:02000004085F93
:10A0000000A05F08FCFF5F080000060020000501BB
:08A0100004017D1500000000B1
:10A018001348144908B5884205D0134A824202D031
:10A02800124B121A98471248124A0021124B121A60
:10A03800984712481249884205D0124A824202D0F3
:10A048000A4B121A984710481049884205D0104AFE
:10A05800824202D0054B121A9847014808BD00BF3A
:10A0680068AD07109CFC5F08E0AD07102D0D1110BE
:10A07800E0AD0710E8AF0710A10E111000A43F02D1
:10A08800A8A05F0808A43F0208A43F02B0A05F0888
:0CA09800F4FF3F0219A05F080000000068
:08A0A8009CA05F0854ED3F028B
:10A0B00010F8012B11F8013B012A28BF9A42F7D072
:10A0C000D01A7047034613F8012B002AFBD1181A47
:10A0D0000138704770B503F06DFB0025054E064C46
:10A0E000A41BA408AC4200D170BD56F8043B9847AD
:10A0F0000135F7E7D0FF3F02F4FF3F0200F0A2B8BE
:10A1000008B500F047F8BDE8084003F00BBB01F0CC
:10A1100067BD01F065BD01F071BD01F06FBD0000CC
:10A120000C2008B5024A034901F0B6FBFEE700BF68
:10A13000E9B63F0264ED3F020078B0FA80F04009D2
:10A1400070470123037070477047000010B5044644
:10A15000094B036002F070FC214602F0A7FE03F0F9
:10A1600037FC03F027FC2046044B40F8043B02F088
:10A1700039FD204610BD00BFACED3F0294ED3F021B
:10A1800010B50446FFF7E2FF20462421FFF7C5FF84
:10A19000204610BD704700002DE9F047DFF89C8095
:10A1A000DFF89C90D0E90047ADF5047D04EB8717FC
:10A1B000BC423BD0204602F012F9214606466846D2
:10A1C00002F006F94146684602F048F8F8B140F25C
:10A1D0000161009804F058FB431C05461DD04FF068
:10A1E000000AB2451EDAA6EB0A022368B2F5007F28
:10A1F000A8BF4FF4007220461B6A04A99847021EAC
:10A2000010DD284604A9924404F052FBE9E74946D0
:10A21000684602F023F80028D9D1684601F074FF9F
:10A220004034C5E7284604F027FBF6E701200DF58A
:10A23000047DBDE8F04701F01FBE00BF79ED3F028D
:10A2400080ED3F0230B5002085B001F0BDF842F24C
:10A2500010750446002001F0B7F8001B61F1000101
:10A26000A84271F1000307D203F0B2FB03F0A5FB93
:10A2700010B901F01BFCEDE703F0AAFB03F09DFB16
:10A280004FF4FA6003F016FA01A801F0F0FE01A8FD
:10A29000FFF782FFDDE9014304EB8315A54205D0FA
:10A2A000236820461B6898474034F7E7019801F07F
:10A2B000A5FC054800F0A1FC0021034805B0BDE85D
:10A2C000304000F052BB00BF08AE071070B5142636
:10A2D000D0E90053044606FB0356AE4204D028469C
:10A2E00001F012FF1435F8E7206801F087FC2046E2
:10A2F00070BD8842F8B504460D46164616D9904200
:10A3000015D2A2F11406751AA1F114072C44B74214
:10A310001CD02CB13146204601F073FF337C2374EE
:10A32000304601F0F1FE143E143CF0E70ED0B54289
:10A330000CD02CB12946204601F063FF2B7C2374FE
:10A34000284601F0E1FE14351434F0E7F8BD00238F
:10A350002DE9F041C0E9003383604F6804469F4215
:10A360000E4624DD4FF0140808FB07F001F038FC1E
:10A370000546E0B1D4E9001208FB0212FFF7B9FF6D
:10A38000206801F03BFC2560A760D6E9007308FB5C
:10A390000378B84509D03946284601F04CFF3B7C8C
:10A3A000143505F8043C1437F3E7736863602046FE
:10A3B000BDE8F08170B5224C8CB0132212210E231F
:10A3C000204600F0E5F81F4B1C600023CDE9003368
:10A3D000029303F0FDFA1C4C05462646694603A885
:10A3E000FFF7B5FF03A906A8FFF7B1FF174B06A9B2
:10A3F00046F8043B09A8FFF7AAFF09AA0121304645
:10A4000002F036FE09A8FFF761FF06A8FFF75EFF1E
:10A410000F4B2562236003A8FFF758FF0D4B236005
:10A4200003F0D6FA4FF4165103F0C0FA02F004FB21
:10A43000214602F0F5FC6846FFF748FF0CB070BDFE
:10A4400008AE0710E0AD0710E4AD071094ED3F0231
:10A45000B4FB3F02ACED3F0213B50446084659B1C8
:10A460000191FFF72FFE0246204623680199DB6821
:10A4700002B0BDE81040184702B010BD034A02F117
:10A480000C015C320160C260704700BFBCED3F024E
:10A4900010B5036853F80C1C044B421803F10C046C
:10A4A0005C334450D360104610BD00BFBCED3F028A
:10A4B00010B50446054B382103F10C025C330260F1
:10A4C000C360FFF72AFE204610BD00BFBCED3F026F
:10A4D000D0F800C0ACF10C0CDCF800C06044E7E739
:10A4E00070B50446264D274E51B3D5E88F3FDA07A5
:10A4F00009D42846FFF720FE28B100F003FF3060A2
:10A500002846FFF71EFE0C20444333681E4A1919E3
:10A510001C5D1E4B4878002C18BF13460122897819
:10A520008240052901D0082904D1596821EA020294
:10A530005A6070BD19681143196059680A43F7E7FA
:10A54000D5E88F3FDB0709D42846FFF7F5FD28B192
:10A5500000F0D8FE30602846FFF7F3FD0C2044439E
:10A5600033681A19195D5078084B074A002918BF3B
:10A57000134601221968824021EA0201DCE700BF8C
:10A580004CAE071050AE071000440148004001488F
:10A59000F8B51646802204460F460C3011461D467B
:10A5A00000F0C6FD0648277100F10C03236000236C
:10A5B0005C30E06066712046E3712372A571F8BDDE
:10A5C000BCED3F0213B50A4CD4E88F1F11F0010116
:10A5D0000BD120460191FFF7AFFD019928B1054845
:10A5E00001F0A4FB2046FFF7ACFD024802B010BD0D
:10A5F00040AE071044AE07102DE9F84FC379074667
:10A60000894633B9FFF7DEFF4946BDE8F84F01F050
:10A610002DBC4FF00708584CDFF864A1DFF864B197
:10A620003D7AD4E88F3F13F0010F544E09D12046F4
:10A63000FFF782FD28B100F065FE30602046FFF78D
:10A6400080FD326805EB450502EB8503587812F86A
:10A650002530002B0CBF52465A4601231168834017
:10A6600021EA0301116051680B43536049FA08F372
:10A6700013F0010FFD7955D0D4E88F3FD90709D4E5
:10A680002046FFF759FD28B100F03CFE306020461F
:10A69000FFF757FD326805EB450512F8253002EB50
:10A6A0008501002B0CBF52465A4601234878897811
:10A6B0008340052901D008292ED1516821EA0303DE
:10A6C00053603D7AD4E88F3FDB0709D42046FFF77B
:10A6D00033FD28B100F016FE30602046FFF731FD53
:10A6E000306805EB450210F8223000EB8201002BA8
:10A6F0000CBF52465A4601234D788978AB40052954
:10A7000001D0082932D1516821EA0303B8F10108C8
:10A71000536085D2BDE8F88F116819431160516804
:10A720000B43CDE7D4E88F3FDA0709D42046FFF783
:10A7300003FD28B100F0E6FD30602046FFF701FD83
:10A74000326805EB450502EB8503587812F8253091
:10A75000002B0CBF5146594601230A68834022EA68
:10A7600003020A604A6813434B60AAE71168194361
:10A77000116051680B43C9E74CAE071050AE07108B
:10A78000004001480044014838B504460D46407970
:10A790000021FFF7A5FE20790021FFF7A1FE294641
:10A7A0002046FFF729FF01212079FFF799FE38BDE8
:10A7B00038B504460D4640790121FFF791FE207916
:10A7C0000021FFF78DFE29462046FFF715FF0121E6
:10A7D0002079FFF785FE38BD7F2970B504460E4607
:10A7E00015461EDC7F2A1CDC1521FFF7CDFF204615
:10A7F000F1B2FFF7DDFF20467F21FFF7D9FF2046AA
:10A800007521FFF7C1FF2046E9B2FFF7D1FF2046CF
:10A810007F21FFF7CDFF2046BDE870405C21FFF7A8
:10A82000B3BF70BD2DE9F8437F2906460D46144697
:10A830001F46BDF82080BDF8249049D87F2A47D80C
:10A8400002EB0803802BC8BFC2F17F0801EB0703AE
:10A85000C8BF1FFA88F8802BC8BFC1F17F07EDB2CF
:10A860004FF01501C8BFBFB2FFF78EFF2946304633
:10A87000013DFFF79DFFE9193046C9B2FFF798FF88
:10A88000E4B275213046FFF77FFF2146013C304698
:10A890004444FFF78DFFE1B23046FFF789FF5C21AA
:10A8A0003046FFF771FF002408FB07F74FEA192530
:10A8B0005FFA89F9A3B2BB4204F1010408DA294620
:10A8C0003046FFF775FF49463046FFF771FFF1E765
:10A8D000BDE8F8832DE9F04704461F4603680E469D
:10A8E00053F80C0C15462044BDF82080BDF8249088
:10A8F00000F0E9FC032836D8DFE800F0020C192844
:10A900003B462A463146CDE908892046BDE8F04756
:10A91000FFF788BF2368324653F80C3C4544234474
:10A9200019894346CDE90879491B89B2EDE72368C7
:10A93000454453F80C3C3E4423445A891989521B20
:10A940003B46CDE90889891B92B2EEE723683E4475
:10A9500053F80C3C294623445A894346921BCDE9BF
:10A96000087992B2D1E7BDE8F08707B580230022CD
:10A97000019100931146FFF7ADFF03B05DF804FBB2
:10A98000D0F800C0ACF1300CDCF800C06044FFF738
:10A99000ECBF2DE9F3417F2905460C4617461E46BC
:10A9A000BDF820803BDC7F2A39DCCB18802BC4BF6C
:10A9B000C1F17F0636B2002E31DB1521E4B2FFF77C
:10A9C000E3FE2146013C28463444FFF7F1FEE1B2A4
:10A9D0002846FFF7EDFE75212846FFF7D5FEF9B2B0
:10A9E00028460191FFF7E4FE28460199FFF7E0FEB3
:10A9F0005C212846FFF7C8FE00244FEA18275FFABB
:10AA000088F8A3B2B34204F1010408DA39462846B3
:10AA1000FFF7CEFE41462846FFF7CAFEF1E702B037
:10AA2000BDE8F0812DE9F3417F2905460F46144624
:10AA30001E46BDF820803BDC7F2A39DCD318802BF2
:10AA4000C4BFC2F17F0636B2002E31DB1521FFF7FD
:10AA50009BFEF9B228460191FFF7AAFE284601990C
:10AA6000FFF7A6FEE4B275212846FFF78DFE2146CA
:10AA7000013C28463444FFF79BFEE1B22846FFF72D
:10AA800097FE5C212846FFF77FFE00244FEA182737
:10AA90005FFA88F8A3B2B34204F1010408DA394638
:10AAA0002846FFF785FE41462846FFF781FEF1E77D
:10AAB00002B0BDE8F081F7B504461646026801937E
:10AAC00052F80C0C0D462044BDF8207000F0FBFB42
:10AAD000019B032835D8DFE800F0020B1B29324622
:10AAE00029460897204603B0BDE8F040FFF79ABF1B
:10AAF00022681E4452F80C0C2A462044018908970B
:10AB0000891B09B2204603B0BDE8F040FFF741BF02
:10AB1000E94322681E4452F80C0C204442890589FE
:10AB2000921B2944089712B209B2DBE7ED43226871
:10AB3000314652F80C2C2244528908972A4412B20A
:10AB4000E0E703B0F0BDD0F800C0ACF1200CDCF8B9
:10AB500000C06044FFF7AFBFF7B504461546026872
:10AB6000019352F80C0C0E462044BDF8207000F002
:10AB7000AAFB019B032835D8DFE800F0020B1B2954
:10AB80002A4631460897204603B0BDE8F040FFF75B
:10AB900000BF2268E94352F80C2C22441589324642
:10ABA0002944089709B2204603B0BDE8F040FFF7FA
:10ABB00039BF22681E4452F80C0CEA4320444589F0
:10ABC00001892A44891B089712B209B2DBE722687F
:10ABD0001E4452F80C2C2946224452890897921B95
:10ABE00012B2E0E703B0F0BDD0F800C0ACF1240C25
:10ABF000DCF800C06044FFF7AFBF10B50446012188
:10AC0000407903F0B9FA207A002800F0DA800121B7
:10AC100003F0B2FA0121E07903F0AEFA01212079C4
:10AC200003F0AAFA2079002103F0B7FAA079D0B195
:10AC3000012103F0A1FA0121A07903F0AEFA4FF44B
:10AC4000FA7002F037FD0021A07903F0A6FA4FF464
:10AC5000FA7002F02FFDA079012103F09EFA4FF463
:10AC6000FA7002F027FD2046FD21FFF78DFD2046FA
:10AC70001221FFF79DFD2046FD21FFF785FD2046AF
:10AC8000B121FFF795FD2046AE21FFF77DFD20465F
:10AC9000B321FFF779FD2046F121FFF775FD20462E
:10ACA000CA21FFF771FD20467F21FFF781FD204675
:10ACB000A021FFF769FD20467421FFF779FD2046AA
:10ACC0001521FFF761FD20460021FFF771FD2046A9
:10ACD0007F21FFF76DFD20467521FFF755FD2046CA
:10ACE0000021FFF765FD20467F21FFF761FD20462B
:10ACF000A121FFF749FD20460021FFF759FD20461D
:10AD0000A221FFF741FD20460021FFF751FD20461B
:10AD1000B521FFF739FD20460021FFF749FD204608
:10AD2000AB21FFF731FD20460121FFF741FD204611
:10AD3000B121FFF729FD20463221FFF725FD2046EE
:10AD4000BE21FFF721FD20460521FFF71DFD20460E
:10AD5000A621FFF719FD2046C121FFF715FD20466A
:10AD6000C821FFF725FD20468021FFF721FD204661
:10AD7000C821FFF71DFD2046C721FFF705FD20462E
:10AD80000F21FFF715FD2046B421FFF7FDFC2046FB
:10AD9000A021FFF70DFD2046B521FFF709FD204654
:10ADA0005521FFF705FD2046B621FFF7EDFC2046B3
:10ADB0000121FFF7FDFC2046BDE81040AF21FFF761
:10ADC000E3BCFFF7FFFB00F0BBFFFFF7FBFB10212D
:10ADD00001F026F8FFF7F6FB032100F0C5FF1DE7A1
:10ADE000F8B504461F4603680D4653F80C0C16468A
:10ADF000204400F068FA02282CD0032837D001281C
:10AE000008D1F24323682E4653F80C3C23441B8997
:10AE10001A4415B2ABB27F2B1BD8B3B27F2B18D814
:10AE2000324629462046FFF7D7FC01216079FFF71B
:10AE300057FB00212079FFF753FB2046390AFFF723
:10AE4000DBFB2046F9B2FFF7D7FB01212079FFF7A2
:10AE500047FBF8BDED43F643236853F80C3C23440D
:10AE600019895A890D4416442DB236B2D2E7E94306
:10AE70002368354653F80C3C23445B8919440EB2D1
:10AE8000C8E7D0F800C0ACF1180CDCF800C0604492
:10AE9000FFF7A6BF0A680260496852F80C2C81507F
:10AEA00070472DE9F04F1F4685B0BDF93880A7EBFC
:10AEB000010AA8EB0209B9F1000FB8BFC9F10009F6
:10AEC000BAF1000FB8BFCAF1000AD14583460C465B
:10AED0001546BDF83C3004DD3A462C4647460D4643
:10AEE0009046BC4205DD2A464546904622463C46F1
:10AEF00017463E1BB2B20092A8EB050282EAE2714D
:10AF0000A1EBE271C6F3C03202FA86F64545B4BF42
:10AF100001224FF0FF32019176100292BC421CDCFC
:10AF2000DBF80020D145D2F81080C7BF2946224661
:10AF30002A46214603935846C047019A039BB61AF6
:10AF4000B1B236B2002E05DA029A1544009A2DB23B
:10AF5000561836B2013424B2E0E705B0BDE8F08FF0
:10AF60002DE9F347044616468A461D46BDF82C8057
:10AF70000768BDF92890CDF80080FF69B8472368BD
:10AF800009F1FF32CDF80080324451462046DF6996
:10AF900012B22B46B8472368CDF80080324651469E
:10AFA00020469F694B46B8476B1E03EB0A01236896
:10AFB000CDF828809D6932464B462046AC4609B202
:10AFC00002B0BDE8F047604737B5013BBDF8185007
:10AFD000134404681BB2009301950B466469A047B3
:10AFE00003B030BD37B5BDF818500468CDE9002571
:10AFF000013B0B4464691BB2A04703B030BD2DE98F
:10B00000F347054692460C46BDF92890BDF82C80C2
:10B01000CE18B4420BDA2B68CDF8008021469F6928
:10B0200052464B4628460134B84724B2F1E702B0F5
:10B03000BDE8F08713B50191B0F90E1002680091D8
:10B04000546A0022B0F90C301146A04702B010BD7E
:10B0500070470A292DE9FF4104460D460CD1436A89
:10B06000027E5978438A01FB0233638200232382E4
:10B07000012004B0BDE8F0810D29F9D0027E0368FB
:10B080000292C28A0192828A00921E6BB0F912204B
:10B090000B46B0F91010B047E37E94F91D70ED1A1D
:10B0A000636A002F03EB850213F82560557815DDE0
:10B0B000E28AA38A934211D0237E0192218A15FB52
:10B0C00003F206FB0311206812B20092D0F824802C
:10B0D0007B432046B4F9122009B2C04794F91D30D1
:10B0E000277E9919238A94F8282001FB07331BB285
:10B0F0002382002ABCD0B4F90C2006FB172293420D
:10B10000B6DD638A05FB0733AFE700000423064A78
:10B11000837642620122054B427703621A78C27637
:10B120005B780377704700BF82F63F0288EE3F02EC
:10B130004281C2814FF0FF3238B5426100240122C2
:10B14000064D018181814460042105600461028310
:10B1500080F82820FFF7DAFF38BD00BF54EE3F0229
:10B160002DE9F04F2DED028B89B09046BDF85020AF
:10B1700082460492BDF8542000250592C27E9DF8B7
:10B1800058709A4263D8047F9C4260D39B1ADBB20A
:10B19000BAF90C208A4240F38480BAF90E20424565
:10B1A0007FDDDAF824409A00079204EB830214F85A
:10B1B000233003FB0713002B73DD537803FB078356
:10B1C000002B6EDD53888CB202339BB202930023B6
:10B1D0000393BBB20693DAF82430079A9DF90C600A
:10B1E00013445B789E425CDA069B4FF00009734380
:10B1F00013FA88F31BB208EE103A464436B2DAF876
:10B20000242007984FFA89F1125C5FFA89F3914282
:10B2100043DA5A0707D1029B0298DAF8202001335B
:10B220009BB2155C02932B0623D5012FDAF8002080
:10B2300089B20ED1D2F810B0049B21443246504658
:10B2400009B2D8476D00EDB209F10109D7E72B46E5
:10B250009EE706983BB210FB01F104982144CDE92A
:10B26000003009B2D2F824B0504618EE102AD84760
:10B27000E8E7DDE904239342E4D0012FDAF8002067
:10B2800089B203D1D2F810B02144D7E706983BB277
:10B2900010FB01F105982144E1E7039B013303937F
:10B2A00099E709B0BDEC028BBDE8F08F70B4BDF832
:10B2B0000C40BDF810509DF814600394CDE904567D
:10B2C00070BCFFF74DBF407E7047000009B50448D1
:10B2D0000068044B03441B689B68029309BD00008F
:10B2E00068AD07105000000009B504480068044B21
:10B2F00003441B68DB68029309BD000068AD0710BA
:10B300005000000009B504480068044B03441B6862
:10B310001B68029309BD000068AD0710140000000F
:10B3200009B504480068044B03441B689B680293FA
:10B3300009BD000068AD07101400000009B50448FD
:10B340000068044B03441B68DB68029309BD0000DE
:10B3500068AD07101400000009B504480068044BEC
:10B3600003441B681B69029309BD000068AD071008
:10B370001400000009B504480068044B03441B682E
:10B380005B68029309BD000068AD07100000000073
:10B3900009B504480068044B03441B68DB6802934A
:10B3A00009BD000068AD07100000000009B50448A1
:10B3B0000068044B03441B685B69029309BD0000ED
:10B3C00068AD07100000000009B504480068044B90
:10B3D00003441B68DB6D029309BD000068AD0710D4
:10B3E0000000000009B504480068044B03441B68D2
:10B3F0001B68029309BD000068AD071064000000DF
:10B4000009B504480068044B03441B685B68029359
:10B4100009BD000068AD07106400000009B50448CC
:10B420000068044B03441B68DB68029309BD0000FD
:10B4300068AD07106400000009B504480068044BBB
:10B4400003441B685B6C029309BD000068AD0710E4
:10B450003000000009B504480068044B03441B6831
:10B460009B6C029309BD000068AD0710300000001E
:10B4700009B504480068044B03441B68DB6C029365
:10B4800009BD000068AD07103000000009B5044890
:10B490000068044B03441B685B6D029309BD000008
:10B4A00068AD07103000000009B504480068044B7F
:10B4B00003441B685B69029309BD000068AD071077
:10B4C0004C00000009B504480068044B03441B68A5
:10B4D0009B68029309BD000068AD071024000000BE
:10B4E00009B504480068044B03441B68DB680293F9
:10B4F00009BD000068AD07102400000009B504482C
:10B500000068044B03441B681B69029309BD0000DB
:10B5100068AD07102400000009B504480068044B1A
:10B5200003441B685B69029309BD000068AD071006
:10B530002400000009B504480068044B03441B685C
:10B540009B69029309BD000068AD0710240000004C
:10B5500009B504480068044B03441B68DB69029387
:10B5600009BD000068AD07102400000009B50448BB
:10B570000068044B03441B681B6A029309BD00006A
:10B5800068AD07102400000009B504480068044BAA
:10B5900003441B689B6A029309BD000068AD071055
:10B5A0002400000009B504480068044B03441B68EC
:10B5B000DB6A029309BD000068AD0710240000009B
:10B5C00009B504480068044B03441B681B6C0293D4
:10B5D00009BD000068AD07102400000009B504484B
:10B5E0000068044B03441B681B6A029309BD0000FA
:10B5F00068AD07101000000009B504480068044B4E
:10B6000003441B685B6A029309BD000068AD071024
:10B610001000000009B504480068044B03441B688F
:10B620009B6A029309BD000068AD0710100000007E
:10B6300009B504480068044B03441B68DB6A0293A5
:10B6400009BD000068AD07101000000009B50448EE
:10B650000068044B03441B681B6B029309BD000088
:10B6600068AD07101000000009B504480068044BDD
:10B6700003441B685B6B029309BD000068AD0710B3
:10B680001000000009B504480068044B03441B681F
:10B690001B6C029309BD000068AD0710100000008C
:10B6A00009B504480068044B03441B681B680293F7
:10B6B00009BD000068AD07101800000009B5044876
:10B6C0000068044B03441B68DB68029309BD00005B
:10B6D00068AD07101800000009B504480068044B65
:10B6E00003441B681B69029309BD000068AD071085
:10B6F0001800000009B504480068044B03441B68A7
:10B700005B69029309BD000068AD071018000000D6
:10B7100009B504480068044B03441B68DB690293C5
:10B7200009BD000068AD07101800000009B5044805
:10B730000068044B03441B681B6A029309BD0000A8
:10B7400068AD07101800000009B504480068044BF4
:10B7500003441B685B6A029309BD000068AD0710D3
:10B760001800000009B504480068044B03441B6836
:10B770001B6C029309BD000068AD071018000000A3
:10B7800009B504480068044B03441B685B6C0293D2
:10B7900009BD000068AD07101800000009B5044895
:10B7A0000068044B03441B681B68029309BD00003A
:10B7B00068AD07103400000009B504480068044B68
:10B7C00003441B685B68029309BD000068AD071065
:10B7D0003400000009B504480068044B03441B68AA
:10B7E0009B68029309BD000068AD0710340000009B
:10B7F00009B504480068044B03441B681B690293A5
:10B8000009BD000068AD07103400000009B5044808
:10B810000068044B03441B685B69029309BD000088
:10B8200068AD07103400000009B504480068044BF7
:10B8300003441B689B69029309BD000068AD0710B3
:10B840003400000009B504480068044B03441B6839
:10B85000DB69029309BD000068AD071034000000E9
:10B8600009B504480068044B03441B681B6A029333
:10B8700009BD000068AD07103400000009B5044898
:10B880000068044B03441B689B6A029309BD0000D7
:10B8900068AD07103400000009B504480068044B87
:10B8A00003441B685B6B029309BD000068AD071081
:10B8B0004800000009B504480068044B03441B68B5
:10B8C000DB6E029309BD000068AD07104800000060
:10B8D00009B504480068044B03441B681B6F0293BE
:10B8E00009BD000068AD07104800000009B5044814
:10B8F0000068044B03441B685B68029309BD0000A9
:10B9000068AD07100800000009B504480068044B42
:10B9100003441B685B69029309BD000068AD071012
:10B920000800000009B504480068044B03441B6884
:10B93000D3F88830029309BD68AD071008000000F5
:10B9400009B504480068044B03441B68D3F89430DD
:10B95000029309BD68AD07100800000009B504484E
:10B960000068044B03441B685B68029309BD000038
:10B9700068AD07102800000009B504480068044BB2
:10B9800003441B689B68029309BD000068AD071063
:10B990002800000009B504480068044B03441B68F4
:10B9A000DB68029309BD000068AD071028000000A5
:10B9B00009B504480068044B03441B681B690293E3
:10B9C00009BD000068AD07102800000009B5044853
:10B9D0000068044B03441B685B69029309BD0000C7
:10B9E00068AD07102800000009B504480068044B42
:10B9F00003441B689B69029309BD000068AD0710F2
:10BA00002800000009B504480068044B03441B6883
:10BA1000DB69029309BD000068AD07102800000033
:10BA200009B504480068044B03441B681B6A029371
:10BA300009BD000068AD07102800000009B50448E2
:10BA40000068044B03441B681B6B029309BD000094
:10BA500068AD07102800000009B504480068044BD1
:10BA600003441B685B6B029309BD000068AD0710BF
:10BA70002800000009B504480068044B03441B6813
:10BA80001B6C029309BD000068AD07102800000080
:10BA900009B504480068044B03441B685B6C0293BF
:10BAA00009BD000068AD07102800000009B5044872
:10BAB0000068044B03441B689B68029309BD0000A7
:10BAC00068AD07102C00000009B504480068044B5D
:10BAD00003441B68DB6B029309BD000068AD0710CF
:10BAE0002C00000009B504480068044B03441B689F
:10BAF0005B68029309BD000068AD07107400000088
:10BB000009B504480068044B03441B689B68029312
:10BB100009BD000068AD07107400000009B50448B5
:10BB20000068044B03441B68DB68029309BD0000F6
:10BB300068AD07107400000009B504480068044BA4
:10BB400003441B681B69029309BD000068AD071020
:10BB50007400000009B504480068044B03441B68E6
:10BB60005B69029309BD000068AD07107400000016
:10BB700009B504480068044B03441B689B690293A1
:10BB800009BD000068AD07107400000009B5044845
:10BB90000068044B03441B68DB69029309BD000085
:10BBA00068AD07107400000009B504480068044B34
:10BBB00003441B681B6A029309BD000068AD0710AF
:10BBC0007400000009B504480068044B03441B6876
:10BBD0009B6A029309BD000068AD07107400000065
:10BBE00009B504480068044B03441B681B680293B2
:10BBF00009BD000068AD07100400000009B5044845
:10BC00000068044B03441B685B68029309BD000095
:10BC100068AD07100400000009B504480068044B33
:10BC200003441B689B68029309BD000068AD0710C0
:10BC30000400000009B504480068044B03441B6875
:10BC40005B6A029309BD000068AD071004000000A4
:10BC500009B504480068044B03441B68DB6B02937E
:10BC600009BD000068AD07100400000009B50448D4
:10BC70000068044B03441B681B6C029309BD000061
:10BC800068AD07100400000009B504480068044BC3
:10BC900003441B685B6C029309BD000068AD07108C
:10BCA00004000000002240681146FFF7B9BE0022E0
:10BCB00040681146FFF7D0BE00224068FFF7BEBEC5
:10BCC0000022406881F00101FFF79CBE002340681C
:10BCD0001A461946FFF788BE002340681A461946DF
:10BCE000FFF774BE002240681146FFF761BE0022D4
:10BCF00040681146FFF740BE002202214068FFF76E
:10BD000049BE002340681A46FFF728BE0322024BB3
:10BD10005A60024A1A60704754AE07108CFA3F020C
:10BD20000021FFF72DBD0021FFF71CBD10B5044613
:10BD300008462170FFF7ECFC00232046636010BD2D
:10BD400013B504460078FFF7EEFF58B920784FF698
:10BD5000FF710190FFF7A4FC019802B0BDE810400C
:10BD6000FFF7DEBF02B010BD13B5044600780191A5
:10BD7000FFF7D9FF019948B920780190FFF79EFCA1
:10BD8000019802B0BDE81040FFF7CABF02B010BD75
:10BD900030B50024400818601868E5B2884206D91A
:10BDA0000134082C02D040081860F5E70725024B43
:10BDB0005B5D137030BD00BFC0FA3F0200232DE968
:10BDC000F041044688B000780E4617460293FFF70C
:10BDD000AAFF054600BB0146142203A894F8008080
:10BDE00002F03FFC0B232A46404603A9ADF80C3075
:10BDF000FFF7AAFC07FB06F1049802AB0DF107025E
:10BE00008DF80750FFF7C4FF20789DF80710FFF763
:10BE100063FC2078FFF784FF029808B0BDE8F0814A
:10BE200038B5044600780D46FFF77DFF0346D0B9CC
:10BE3000616899B10C4A12F8010B854202D00133B6
:10BE4000082BF8D10133DBB201222046D940FFF79D
:10BE5000B5FF2078BDE83840FFF762BF294620785B
:10BE6000FFF73AFCF5E738BDC0FA3F0208B50078A5
:10BE7000FFF740FCC0B208BD00284FF0000114BF1E
:10BE800001200220FFF74ABE10B50446006808B141
:10BE9000FEF741F9204610BDF7B5002704460D46D0
:10BEA000C0E90071C9B10846FEF733F9064638B15A
:10BEB0006B1E0133ACBF2A463A46394602F0D1FB2D
:10BEC000002320680193266008B1FEF724F901A839
:10BED000FFF7DAFF236803B96360204603B0F0BDC3
:10BEE00038B50D4604464B681031436051F8083CA4
:10BEF000836051F8043CC360134B40F8103B00F0E2
:10BF00009AF995F8203004F1240084F82030A96AC9
:10BF1000FFF7C2FFA26A2AB1AB6A1BB1696A606A05
:10BF200002F078FBEB6AE3622B6B236395F8343005
:10BF300084F83430AB6BA363EB6BE36313B15A68E3
:10BF400001325A60204638BDF4FA3F028842F8B503
:10BF500006460C46154615D9904214D2A2F140056A
:10BF60006B1AA1F140071E44AF421AD01EB12946F8
:10BF70003046FFF7B5FF2B6828461B689847403DC1
:10BF8000403EF1E70DD0AC420BD01EB12146304609
:10BF9000FFF7A6FF236820461B68984740344036C9
:10BFA000F1E7F8BD70B50E1E054611DDB001FFF7D3
:10BFB00017FE044658B1D5E9001201EB8212FFF7D3
:10BFC000C5FF2868FFF71AFE01202C60AE6070BD27
:10BFD0000024F6E738B50F4BC46B054603607CB10F
:10BFE0006368013B63605BB9236820469B689847A0
:10BFF000A368013BA3601BB923682046DB68984710
:10C0000005F12400FFF740FF05F1100000F07CF877
:10C01000284638BDF4FA3F0230B5044691B0456871
:10C020006846FFF75DFFD4E9011399420FDA2368F0
:10C03000626803EB8515294603EB821205F1400087
:10C04000FFF784FF75B963680133636005E020463C
:10C050000131FFF7A7FF0028E9D16846FFF7BAFFD3
:10C0600011B030BD69462846FFF73AFFEBE770B5DF
:10C0700000241C2698B02146C0E900448460324662
:10C08000054601A802F0EDFA214601A8ADF80460CA
:10C09000FFF728FD0446C0B9BDF81C30A34210D9F3
:10C0A000069BBDF80C1008A804FB013100F0E4F970
:10C0B000284608A9FFF7B0FF08A8FFF78BFF013457
:10C0C000EAE7002101A8FFF71BFD284618B070BD64
:10C0D00010B50446FFF77EFF20464021FEF71DF80D
:10C0E000204610BD02220020044B1A60044B054A72
:10C0F000C3E900009A60FFF7F9BB00BF68AE071004
:10C100005CAE07100000FFFF10B504460068FFF7A3
:10C1100075FD204610BD10B50446006808B1FFF754
:10C120006DFD0023C4E90133236010BD38B504461A
:10C130000D4600680131FFF76FFD10B1C4E900053D
:10C14000012038BD10B50368044623B143688B4213
:10C1500001D3012010BD2046FFF7E8FF0028F9D0E9
:10C16000A368002BF5D122681370F2E737B50D46AE
:10C17000114601920446FFF7E5FF019A28B92046CF
:10C18000FFF7C9FF204603B030BD2946A2602068F2
:10C1900002F040FA00212268A368D154F2E700239C
:10C1A00013B50446C0E900338360037341B1084608
:10C1B0000191FDF787FF019902462046FFF7D6FF60
:10C1C000204602B010BD38B5054600680C4670B177
:10C1D0006A688B689A4208D3096831B102F08FFA15
:10C1E000A368AB600023A36038BDFFF707FD236899
:10C1F0002B6063686B60A368AB600023C4E9003305
:10C20000F1E7002310B50446C0E9003383600373EF
:10C21000FFF7D9FF204610BD884210B5044605D06F
:10C220000B682BB18A681946FFF7A0FF204610BDA6
:10C23000FFF771FFFAE7002310B50446C0E90033A9
:10C2400083600373FFF7E8FF204610BD884210B5F6
:10C25000044601D0FFF7B7FF204610BD08B582683D
:10C260003AB921B10878B0FA80F0400900E0012025
:10C2700008BD006809B90078F5E7FDF719FFF2E796
:10C2800010B543680446013B436063B903689B688B
:10C290009847A368013BA3602BB923682046BDE8FB
:10C2A0001040DB68184710BD70B50446D0E9005354
:10C2B00005EB0316AE4204D02846FFF725FF1035E4
:10C2C000F8E72068FFF79AFC204670BD10B50446D9
:10C2D000006808B1FFF7D4FF204610BD00230248D4
:10C2E0000360FFF7A9B800BF6CAE0710F8B50646AB
:10C2F0000D4600248F18BD420CD0336830469B6831
:10C3000015F8011B9847031E01DB1C44F3E7002CC2
:10C3100008BF1C462046F8BD03689B6818470023E9
:10C32000012A98BF0A2230B58BB08DF8243009ACB1
:10C330000D46B1FBF2F101FB125303F0FF03092B91
:10C3400094BF30333733DBB2AA4204F8013DEFD952
:10C350002146FEF781F80BB030BD07B50368012216
:10C360001B6A0DF107019847012808BF9DF80700D7
:10C3700003B05DF804FB07B5036801225B6A0DF1A9
:10C3800007019847012808BF9DF8070003B05DF832
:10C3900004FB70470020704770470000064B10B543
:10C3A000994200F10C0405D0084602F013F8002869
:10C3B00008BF0024204610BDC8FA3F0210B504464D
:10C3C0001021FDF7AAFE204610BD1021FDF7A5BEE5
:10C3D00010B504461031FFF72EFF204610BDC06A8D
:10C3E0007047836943B190F92030013304D0806AEB
:10C3F000003818BF012070470020704710B5044670
:10C40000006810B10021FFF7DDFB204610BD0C30A5
:10C41000FFF7F4BF38B504460D464968FFF73CFD09
:10C4200062682AB16B681BB12968206802F0F2F8D3
:10C43000204638BDFF2373B5154604460E4600F866
:10C44000043B0021FFF728FD95B97368202B0FD11D
:10C4500031466846FFF7DEFF009A63686260019A22
:10C460000093A3686846A2600193FFF70DFD257055
:10C47000204602B070BD0000F0B54FF47A7300267C
:10C480000746C0E90163314B044647F8103B89B0C9
:10C490000D4638462E49FFF782FEFF23314684F8C9
:10C4A000203004F12400FFF7F7FCC4E90B66C4E96F
:10C4B0000E6684F83460002D45D0296849B104A87F
:10C4C000FFF76DFE384604A9FFF7C0FE04A8FFF78A
:10C4D0001BFE6E68002E31D02A89002A2ED011460C
:10C4E00002A895F90A700192FFF7D6FC029818B1DC
:10C4F0003146019A02F08EF83A4602A904A8FFF7E5
:10C5000099FF02A8FFF7C0FC9DF81030002184F8C5
:10C51000203002A8FFF7C0FC029B05990593039BFE
:10C52000069A0693636A02A80293A36A6162A262F2
:10C530000393FFF7A9FC05A8FFF7A6FCEB6803B17E
:10C54000E3622B692363204609B0F0BDF4FA3F0291
:10C550007DFB3F0270B58AB004460E46FFF741FFEF
:10C5600000284ED0A36B13B11B68002B3CD194F86C
:10C570003450002D48D1E36A002B48D02369CDE91F
:10C5800007550593636A2A460693A36A6846ADF881
:10C590001C3094F8203005A9009509958DF81E30BF
:10C5A000FFF7CAFA00282ADBE6B110200195FDF753
:10C5B000AEFD30B10123C0E90133164B0360009B8F
:10C5C000C3600023CDE90133A36B039300F10C0397
:10C5D000A363E36BE06304A80493FFF777FE02A86C
:10C5E000FFF774FEA16B09B1002008E00098FFF787
:10C5F000E9FA002EF8D0A36B002BF5D106480AB05B
:10C6000070BD6FF0D100FAE76FF0C800F7E76FF088
:10C61000BE00F4E7D8FA3F02FCFEFFFF70B50C46FF
:10C62000012106461546FFF795FF00280BDB4CB1AC
:10C6300045B1B06B2A462146BDE870400023006832
:10C64000FFF7A4BA004870BDF2FEFFFF38B50C46F4
:10C6500001210546FFF77EFF002807DBAB6B214673
:10C6600018680022BDE83840FFF79EBA38BD07B50C
:10C6700003684268009300230360436001A80192AD
:10C68000FFF724FE03B05DF804FB38B50121054631
:10C69000FFF760FF044628B9AB6B01461868FFF747
:10C6A00059FA044614F1C90F09D195F8343033B959
:10C6B00005F13800FFF7DBFF012385F8343024EA69
:10C6C000E47038BD2DE9F041884601210746154642
:10C6D000FFF740FF041E1BDBB8F1000F20D0FDB1B7
:10C6E0000026B86B00232A46006808EB0601FFF716
:10C6F0003FFA041E0FDC14F1C90F06D107F1380010
:10C70000FFF7B5FF012387F83430002E18BF3446F9
:10C710002046BDE8F0812D1B2644E2D13446F7E7E0
:10C72000004CF5E7F2FEFFFF80680368DB681847FE
:10C730007047084611B10B685B681847704770472F
:10C7400070477047704738B504460D4600682E2183
:10C7500001F0CBFF2368C31A2B6023B1037803B128
:10C76000013023682060184638BD10B504460C21FE
:10C77000FDF7D3FC204610BD10B504460421FDF79B
:10C78000CCFC204610BD10B504460421FDF7C5FCC5
:10C79000204610BDFEF76CBE08B5FDF789FCB0FA67
:10C7A00080F0400908BD704710B50C4601F010F943
:10C7B000844205D101F00CF9BDE8104001F0FAB84F
:10C7C00001F034FD844205D101F030FDBDE8104098
:10C7D00001F07BB92CB123682046BDE810405B68AE
:10C7E000184710BD0B6803604B68436013B15A686B
:10C7F00001325A60704713B5044608460191FDF7AF
:10C8000061FC02462046019902B0BDE8104001F0EB
:10C8100065BC13B5044608460191FDF753FC02467A
:10C82000204623680199DB6802B0BDE81040184734
:10C8300007B503688DF807100122DB680DF10701C9
:10C84000984703B05DF804FB0A6810B502604A68B7
:10C8500042600022C0E9022202618C688A60846022
:10C86000CC68CA60C4600C690A61046110BD000034
:10C870002DE9F74F4FF0140AD0E9008417464546DA
:10C880000AFB04F40093174BA4105C43002C21DD39
:10C8900066100AFB06F005EB0009B9F804B03A4649
:10C8A0005F4528BF5A462858019101F030FF002803
:10C8B0004FF0010301990BD15F4503D1009A13702A
:10C8C0003446E3E7FCD9A61B09F11405013EF7E75E
:10C8D000F9DBF5E7A5EB08050248AD10684303B0A6
:10C8E000BDE8F08FCDCCCCCC7FB50369057E01913E
:10C8F00003B3F9B1002600F10C04039603A901A8C3
:10C90000FFF721FF0146A8B10DF10B032046039A62
:10C910008DF80B60FFF7ACFF9DF80B3053B1236827
:10C92000142404FB0034B4F906300834002BA8BFEB
:10C93000DDB2E3E7284604B070BD0EB4F0B58CB0AC
:10C9400000AF07F1440555F8042B04462B4620217F
:10C9500007F110007A60FD60FFF76CF91F287A6814
:10C960001AD900F1080323F007036E46ADEB030D5F
:10C97000411C2B466846FD60FFF75CF9021E04DD92
:10C98000236869462046DB689847B5463037BD4680
:10C99000BDE8F04003B070470028F7D02368024696
:10C9A000DB68204607F110019847EFE710B5084C07
:10C9B000D4E88F3FDB0709D42046FDF7BDFB28B143
:10C9C0002046FDF7BEFB034801F016FE024810BDED
:10C9D00074AE071097CA3F026CAD071010B5084C33
:10C9E000D4E88F3FDB0709D42046FDF7A5FB28B12B
:10C9F0002046FDF7A6FB034801F0FEFD024810BDEE
:10CA000078AE0710FFCA3F0270AD071038B5002599
:10CA10000446C0E90055C0E904558560856140F8C9
:10CA2000245FFEF709FDFFF7C1FFE061FFF7D6FFC6
:10CA300025732062204638BD10B50A4CD4E88F3FDC
:10CA4000DB070CD42046FDF777FB40B10648FFF723
:10CA5000DDFF2046FDF775FB044801F0CDFD0248DF
:10CA600010BD00BF70AE071080AE0710E1D23F02CC
:10CA70000023024A02490348FEF72ABFC9D03F02F9
:10CA800055D03F02D5CF3F0200231A46194618461B
:10CA9000FEF71EBF37B504468D686846FFF7A2FE55
:10CAA0006A462946204601F039FA01A8FFF70EFC34
:10CAB000204603B030BD37B50446CD686846FFF761
:10CAC00091FE6A462946204601F004FA01A8FFF7C4
:10CAD000FDFB204603B030BD37B504460D696846FE
:10CAE000FFF780FE6A462946204601F09CF901A81E
:10CAF000FFF7ECFB204603B030BD000070B58AB0F4
:10CB00000D46014604A8FFF7C5FF144E04A801F026
:10CB10001DFAE8B1684604A9FFF7CDFF3146029837
:10CB2000FFF73AFE044610B12C1E18BF012401A8DD
:10CB3000FFF7CCFB002CE9D0684604A9FFF7CCFF37
:10CB4000684601F0A6F9286001A8FFF7BFFBDDE702
:10CB500005A8FFF7BBFB0AB070BD00BF20FB3F027A
:10CB600037B50C46134920461546FDF7A1FA50B9D2
:10CB700000F02EFF4FF4165100F018FF03B0BDE88F
:10CB8000304000F025BF20460B49FDF791FA78B9F7
:10CB90004FF4165301A928460193FFF7AFFF01F0A8
:10CBA00045FB019900F08EFF01F040FB03B030BD62
:10CBB0000020FBE725FB3F022CFB3F0270B514264B
:10CBC000D0E90053044606FB0356AE4205D005F1FA
:10CBD0000800FFF7F3FF1435F7E72068FFF70EF8BA
:10CBE000204670BD10B504460C30FFF7E7FF204625
:10CBF000FFF75AFB204610BD10B50446034B40F822
:10CC0000043BFFF7EFFF204610BD00BF94ED3F024D
:10CC100010B50446FFF7F0FF20462421FDF77DFA0A
:10CC2000204610BD10B50446024B0360FFF7E4FF39
:10CC3000204610BDCCFB3F0210B50446FFF7F2FFC3
:10CC400020462421FDF769FA204610BD0022C0E9E4
:10CC50000022826010B50C680A6004604C684A606B
:10CC600044608C688A60846010BD10B50446036817
:10CC70001868FEF70BFC204610BD00002DE9F04FB0
:10CC800087B003931C4B80465B688946C3F3080357
:10CC900016466BB9FFF7D0FE044600F12403406A44
:10CCA0000593FFF777FD237B2BB105A8FFF7DDFF89
:10CCB00007B0BDE8F08F01235FFA89F92373D4E947
:10CCC000005305EB830AAA4512D055F8047B314680
:10CCD000381DFFF709FE8145F5D3039A3B680092A2
:10CCE000D3F808B04A46334641463846D847EAE7C3
:10CCF00000232373D9E700BF00ED00E02DE9F74FD3
:10CD00009B461A4B80465B688946C3F30803164668
:10CD10006BB9FFF791FE044600F12403406A0193CA
:10CD2000FFF738FD237B2BB101A8FFF79EFF03B06F
:10CD3000BDE8F08F0123F6B22373D4E9005305EB6D
:10CD4000830A55450ED055F8047B5946381DFFF728
:10CD5000CBFD8642F5D33B684A4641463846DB6800
:10CD60009847EEE700232373DEE700BF00ED00E005
:10CD70002DE9F341164B05465B680F46C3F30803E4
:10CD80001BBBFFF759FE044600F12403406A0193E0
:10CD9000FFF700FDD4E90063462406EB8308B045A5
:10CDA00009D101A8FFF761FFA542B4BF002001200F
:10CDB00002B0BDE8F08156F8040B39460430FFF7A5
:10CDC00093FD8442A8BF0446E9E70020F0E700BFD6
:10CDD00000ED00E0F8B5D0E901539D4204460E464F
:10CDE0000DDB6F1C002F006804DDB900FEF714FF97
:10CDF00018B9F8BDFEF702FF00202060A760276881
:10CE0000626807EB85019200A2EB8502081D01F024
:10CE10000EFC47F825606368012001336360E8E792
:10CE200037B5044600F12403406A01930D46FFF72D
:10CE3000B1FCD4E9003203EB8202934219460AD0D6
:10CE400009680433A942F8D101A8FFF70EFF0025B5
:10CE5000284603B030BD29462046FFF7BBFF0546F4
:10CE60000028F1D06368012B01D1FFF701FE01A872
:10CE7000FFF7FBFEECE70B4670B50446D0E9000275
:10CE800000EB820282420FD001461D6851F8046B0C
:10CE9000AE4207D1521A01F0CAFB01206368013B80
:10CEA000636070BD0846EDE70020FAE71FB5044651
:10CEB00000F12403406A01910393FFF76BFC2046C5
:10CEC00001A9FFF7D8FF18B163680BB9FFF7DCFDC4
:10CED00003A8FFF7CAFE04B010BD182370B50446BE
:10CEE000D0E9045603FB0656AE4215D0204605F1A4
:10CEF0001001FFF7C0FF63680BB9FFF7C5FDE069DC
:10CF000029690368DB689847696919B1206A036871
:10CF1000DB6898471835E7E71826D4E9045306FB81
:10CF20000356AE4204D02846FFF7EEF81835F8E76E
:10CF30000023636170BD73B50446FFF7A5FD04F1DE
:10CF40002403606A0193FFF725FC2046FFF7C5FF25
:10CF500001A8FFF78AFE606A08B1FEF77BFAD4E900
:10CF60000453182606FB0356AE4204D02846FFF7AA
:10CF7000CBF81835F8E72069FEF740FE2068FEF789
:10CF80003DFE204602B070BD0148FFF7D4BF00BF90
:10CF900080AE07108842F8B504460D46164615D9EE
:10CFA000904214D2A2F11406751AA1F114072C4470
:10CFB000B7421AD01CB131462046FFF745FC06F1B6
:10CFC0000800FFF7FBFD143E143CF1E70DD0B5421D
:10CFD0000BD01CB129462046FFF736FC05F10800AE
:10CFE000FFF7ECFD14351434F1E7F8BD8842F8B5CD
:10CFF00004460D46164614D9904213D2A2F11006EB
:10D00000751AA1F110072C44B74218D01CB1314653
:10D010002046FFF7F6F83046FFF776F8103E103C52
:10D02000F2E70CD0B5420AD01CB129462046FFF7E2
:10D03000E8F82846FFF768F810351034F2E7F8BD35
:10D0400070B50E1E054611DD3001FEF7C9FD044620
:10D0500058B1D5E9001201EB0212FFF7C7FF2868AB
:10D06000FEF7CCFD01202C60AE6070BD0024F6E719
:10D070002DE9F04F90460023462295B00391D8F851
:10D08000041004469942C0E90033C0E90233C0E904
:10D090000433CDE9083302760A9323DCD8E900573C
:10D0A000142303FB0757AF423BD029460BA8FFF7D9
:10D0B000A8F80BA90FA8099EFFF7A3F8DDE909134B
:10D0C00099421BDA089B099A03EB0616314603EBDB
:10D0D000021206F11000FFF789FFEEB9099B013338
:10D0E000099311E008A8FFF7ABFF0028D6D108A8E4
:10D0F000FFF7DAF8204615B0BDE8F08F013108A837
:10D10000FFF79EFF0028DDD10FA8FEF7FDFF0BA85B
:10D11000FEF7FAFF1435C6E730460FA9FFF771F89E
:10D12000DCE700264FF01409CDE90B660D96DDE92A
:10D1300008239E427CDA3301D35806930BB901369B
:10D14000F5E70023079309FB06F30BAD029307A94C
:10D1500006A8FFF7F8FA82460028F0D04FF0000347
:10D1600001468DF817302846079A0DF11703FFF78F
:10D170007FFB9DF817700190002F4AD1BDF81C303D
:10D18000CDE91177ADF840304FF6FF73CDF83CA0F4
:10D19000ADF842301397D5E90132934217DB03F122
:10D1A000010ABAF1000F30DD09FB0AF0FEF718FDA5
:10D1B000834660B3D5E9001209FB0212FFF7EAFECD
:10D1C0002868FEF71BFDC5F800B0C5F808A02B685D
:10D1D000019A09FB023A6A68514609FB02320AF1D8
:10D1E0001400FFF7D7FEBAF1000F03D050460FA985
:10D1F000FFF72AFB6B6801336B6011A8FFF7DEFCB9
:10D200003FB10BA8FFF7DAFC71E7BB46D8E701276F
:10D21000F3E7019B2D6809FB0355069B1B782BB98F
:10D22000D8F80030029A13441B7CEB8008358EE757
:10D230002168226062686360A36809920A9A0A936F
:10D24000E368A2600B9A0B932369E2600C9A0C933B
:10D25000636922610D9A0D93039B089162612376A5
:10D26000CFE70000F0B504462646174687B00D46C6
:10D2700068461946FDF76BF80B4B694646F8043BC8
:10D2800003A8FDF764F8394603AA3046FFF7F0FE1D
:10D2900003A8FDF71BF86846FDF718F82046034B76
:10D2A0002562236007B0F0BD94ED3F02B4FB3F025E
:10D2B000F0B50F4685B038461C4916461D460A9CF7
:10D2C000FCF7F6FEC0B9A4B1294601A8FFF7BEFCE1
:10D2D0002420174901F07AF8054630B101AB3246F7
:10D2E0002146FFF7BFFF134B2B6001A8FCF7EEFFB1
:10D2F0002C46204605B0F0BD38460F49FCF7D8FE55
:10D3000090B9002CF5D0294601A8FFF79FFC2420F6
:10D31000074901F05BF805460028E6D03246214671
:10D3200001ABFFF79FFFE0E70024E2E734FB3F0299
:10D3300045FD3F02CCFB3F0238FB3F02014B024A56
:10D340001A6070477CAE071049FB3F022DE9F04799
:10D35000089DD0F8209004460E461746984600F0E7
:10D3600037FB81454DD02B79190704D520466A69D2
:10D370005449FFF7E2FAB8F1000F0DD05B212046C7
:10D38000FFF756FA41462046FFF743FA2368022288
:10D390002046DB684C4998472B79DA0724D5D5F825
:10D3A00008802F21404601F0C6F908B100F10108BC
:10D3B00041462046FFF72DFA2B799B0708D53A21E5
:10D3C0002046FFF735FA2046EA684049FFF7B5FAEC
:10D3D0002A79236812F0040F20464FF00202DB681E
:10D3E00014BF3B493B4998472B7958071DD52969FC
:10D3F0000B461A4613F8010B60B1202808D11946D4
:10D40000F7E7354800F027FC0028ACD0BDE8F087EE
:10D410002828EED12368521A2046DB6898472368F3
:10D4200004222046DB682D49984700213846FEF744
:10D4300041FA01462046FFF7ECF923680222204614
:10D44000DB68244998471EB131462046FFF7E1F9D1
:10D450002B7913F0300F2CD023682149DB6802228E
:10D46000204698472B79D9060AD5236807222046FB
:10D470001C49DB6898472046AA691B49FFF75DFAFB
:10D480002B799A0611D5DB0605D5236802222046A2
:10D49000DB680F4998472368204614490A22DB6855
:10D4A00098472046E969FFF7B4F95D212046FFF768
:10D4B000BFF923682046BDE8F0470222DB680C492B
:10D4C000184700BF4DFB3F0254FB3F0257FB3F0292
:10D4D0005AFB3F025FFB3F02E4AE07105DFB3F02D9
:10D4E00062FB3F0265FB3F026DFB3F0270FB3F02A8
:10D4F0007BFB3F022DE9F0410446076A0D461646C4
:10D5000000F066FA874207D0206A3246036829464F
:10D51000BDE8F041DB681847034800F09CFB002899
:10D52000F2D0BDE8F08100BFE4AE07102DE9F04372
:10D5300085B0D0F8209005460F4690461E460C9CBC
:10D5400000F046FA814505D1494800F084FB0028E7
:10D5500040F08A804FF000092B6A464A01A80192E8
:10D5600003938DF8089000F01AFD49464046FEF7F7
:10D57000A1F980464049012201A800F09FFD4146E3
:10D58000FFF739F93FB13D49012201A800F096FDAE
:10D590003946FFF730F93EB13949012201A800F0C0
:10D5A0008DFD3146FFF727F92379DF070ED5A668F1
:10D5B0002F21304601F0BFF800B1461C314901224D
:10D5C00001A800F07BFD3146FFF715F923799E078E
:10D5D00007D52D49022201A800F070FDE16800F096
:10D5E000EBFC2379580714D5266933461F4613F8F8
:10D5F000012B2AB1202A01D11E46F7E7282AF5D1AE
:10D600000222224901A800F059FD3146BA1B00F060
:10D6100065FD2379190707D51D49012201A800F0EE
:10D620004DFD616900F0DAFC2379DA0608D50422A1
:10D6300018490DEB020000F041FDA16900F0BCFCAF
:10D6400023799B0607D51449062201A800F036FD70
:10D65000E169FFF7D0F801A800F08BFC286A0222EC
:10D6600003680E49DB68984705B0BDE8F08300BF4A
:10D67000E4AE07109CFB3F022AFB3F027EFB3F0209
:10D68000CBFE3F027EED3F0280FB3F0283FB3F0269
:10D6900086FB3F0288FB3F028DFB3F027BFB3F0284
:10D6A000024B1A68024B1A60704700BF74AD071036
:10D6B000A8AE07100021FEF727B900000022014B99
:10D6C0009A607047ACAE0710014B1860704700BFFE
:10D6D00078AD071008B50F4B43B100F079F9036836
:10D6E0001B699847002801DD00E000BF0A4B43B1E9
:10D6F00000F09CFD03681B699847002801DD00E0ED
:10D7000000BF064B0BB100F0D7FD054B0BB100F08D
:10D7100009FE08BD0000000000000000000000003D
:10D720000000000008B5FFF7D5FFFDF73FFE014BF5
:10D73000186008BD34AF07100548064A08B5121A2C
:10D74000054900F067FF054B054A1A6008BD00BF98
:10D7500000B4071004B4071014FD5F0800B40710EC
:10D760001E1C279A002307B51A466FF07701009315
:10D77000FEF7E6F803B05DF804FB000007B5438848
:10D780000A2B08D0502B0BD1094B1B684BB103B0AF
:10D790005DF804EB1847FFF7E5FF03B05DF804FB05
:10D7A00000231A466FF077010093FEF7C9F8F4E7FB
:10D7B000C0AE0710002110B51148FEF765FA114BF5
:10D7C0001A68114B9A420CBF012200220F4B1A70AB
:10D7D00001D0FFF7B1FFFDF7CDFD044600F04AFF91
:10D7E0000B4B13B1204600E000BF00210848FEF7B4
:10D7F0006BF9BDE8104000210648FEF793B800BF62
:10D8000021DA3F0200B407101E1C279ABCAE071095
:10D8100000000000D5DA3F02704710B50446182119
:10D82000FCF77BFC204610BDF0B5037D0E46062BB1
:10D830004FF000048DB000F1040712D000F108058C
:10D8400015F8011D0A223046FEF769FDAF42044477
:10D8500019D0002CF4D02E213046FEF75DFD044493
:10D86000EEE72F236A4639460A208DF80040FDF77F
:10D870001BFE6846FCF726FC3368024669463046C4
:10D88000DB689847044620460DB0F0BD10B504464D
:10D89000044B1122002140F8043B00F0E2FE204638
:10D8A00010BD00BF30FC3F020346074A10B543F8E5
:10D8B000042B01F1100251F8044B914243F8044B40
:10D8C000F9D10A781A7010BD30FC3F0210B59DF8EE
:10D8D000084044EA032343EA0242042342EA016186
:10D8E0004160037510BD000007B5064B0360CB789F
:10D8F00000938B784A780978FFF7E8FF03B05DF86A
:10D9000004FB00BF30FC3F02417470477047704712
:10D9100008B50021007CFDF787FF40EAE07008BDF4
:10D9200008B50121007CFDF77FFF40EAE07008BDEB
:10D9300008B5007CFDF76AFF20EAE07008BD08B575
:10D94000007CFDF755FF20EAE07008BD13B50446E2
:10D95000007C0191FDF75AFF0028019901DC607CF1
:10D9600020B1207CFDF76EFF20EAE07002B010BD10
:10D97000007CFDF775BF10B504461421FCF7CDFB04
:10D98000204610BD10B54FF47A73044608460021B6
:10D99000C4E90113044B207423600123114663740E
:10D9A000FDF7FCFE204610BD44FC3F020022007C37
:10D9B000FDF702BF007CFDF70DBF007CFDF75EBFE9
:10D9C00010B504461422002100F04BFE204610BD85
:10D9D00010B588B003A8FFF7F3FF0C4CD4E88F1FF5
:10D9E00011F001010FD120460191FCF7A5FB01992F
:10D9F00048B103AA0648FFF7C5FF2046FCF7A1FB84
:10DA0000044800F0F9FD024808B010BDC4AE07108C
:10DA1000C8AE071065DC3F0270474174704708B517
:10DA2000007CFDF7B1FD20EAE07008BD08B5007C80
:10DA3000FDF764FD20EAE07008BD08B5007CFDF745
:10DA400079FD40EAE07008BD08B5007CFDF764FD93
:10DA500040EAE07008BD007CFDF77ABD37B5457C33
:10DA600004462DB1207C03B0BDE83040FDF738BD41
:10DA7000007C0191FDF788FD00280199F2DC284621
:10DA800003B030BD10B504461421FCF746FB204618
:10DA900010BD000010B54FF47A73044608461146D5
:10DAA0000022C4E90123044B207423600123637422
:10DAB000FDF786FD204610BD74FC3F020023007C6C
:10DAC000FDF770BD0022FFF7F9BF007CFDF7FABC3F
:10DAD000007CFDF74BBD7047F8B5064615460C4671
:10DAE0008F18BC4206D0336830469B6814F8011B7F
:10DAF0009847F6E72846F8BD0022007CFDF76EBD8A
:10DB00000021007CFDF778BD0021007CFDF782BD7F
:10DB10000021007CFDF78CBD0021007CFDF796BD47
:10DB200010B504461421FCF7F8FA204610BD000099
:10DB300038B5044615464FF47A730022C4E9012330
:10DB4000094B0846217423602946FDF79BFDBF3031
:10DB500008D16B69DB0705D56868FEF74FF8E86800
:10DB6000FEF74CF8204638BDA4FC3F020022406876
:10DB70001146FDF71DBF002240681146FDF750BF5A
:10DB8000002240681146FDF767BF00224068FDF79C
:10DB900055BF0022406881F00101FDF733BF00232B
:10DBA00040681A461946FDF71FBF002340681A4611
:10DBB0001946FDF70BBF002240681146FDF7DCBE99
:10DBC000002202214068FDF7E5BE002340681A46A6
:10DBD000FDF7C4BE0422024B5A60024A1A60704725
:10DBE000DCAE0710CCFC3F02002340681A46FDF76C
:10DBF000B5BE002202214068FDF7CCBE002240687D
:10DC00001146FDF7B9BE002240681146FDF7D0BEAF
:10DC1000002340681A461946FDF7D8BE0023406825
:10DC20001A461946FDF7E0BE00214068FDF722BF05
:10DC300000214068FDF72CBF0022406881F00101FF
:10DC4000FDF7E0BE00224068FDF7F8BE0022406804
:10DC50001146FDF701BF002240681146FDF7E0BE06
:10DC60002DE9F04395B014460D460746FFF70EFE2A
:10DC700000211C220DA8009100F0F3FC4023204657
:10DC80000C9300216B460CAAFDF72EFB04460028DE
:10DC90004BD1024601216868FDF78AFE02218046C9
:10DCA00022466868FDF784FE21468146009E002ECC
:10DCB0003BD0002939D17368022B03D00A2B11D035
:10DCC000F669F4E7B8F1000FFAD0716906A80431DB
:10DCD0003C1D07ADFFF708FE0FCD0FC42B68414672
:10DCE0002370EDE7B9F1000FEAD0102201A87469A2
:10DCF00000F0B7FC062301AD8DF8143004F10803E1
:10DD000018342A4618685968083303C2A3421546D6
:10DD1000F7D101A906A83C1D07ADFFF7C5FD0FCD42
:10DD20000FC42B6849462370CAE70098FDF7CEFA66
:10DD3000384615B0BDE8F083024B034A1A60002252
:10DD40005A607047E4AE071008FD3F02012200F15F
:10DD5000100313F8101C1846012908D153F8041CAD
:10DD600002EB4102013A03F11003F2D1704702299C
:10DD700004BF53F8041C5218F4E70EB4F0B588B091
:10DD8000102100AF07F1340555F8042B04462B464B
:10DD900078187A60FD60FDF74DFF0F287A681AD970
:10DDA00000F1080323F007036E46ADEB030D411CA1
:10DDB0002B466846FD60FDF73DFF021E04DD23682B
:10DDC000694620469B689847B5462037BD46BDE862
:10DDD000F04003B070470028F7D0236802469B68E4
:10DDE000204607F110019847EFE738B50B68044665
:10DDF00003604D6843689D4208D015B16B680133DC
:10DE00006B60606808B1FEF73BFA656038BD07B526
:10DE100003688DF8071001229B680DF107019847F0
:10DE200003B05DF804FB0B461146002210B5044612
:10DE3000C0E9002283600BB9204610BDFFF7D5FF73
:10DE4000FAE78368EBB11A78032A1AD8DFE802F000
:10DE50000417021B0520704702685B685268D05C9B
:10DE60002D2812D0A0F13003092B0ED974280ED022
:10DE700066280CD0A0F16E03584258417047062026
:10DE8000704700207047042070470320704702202D
:10DE9000704710B50446FFF7D4FF02280ED0C31E0A
:10DEA000DBB2012B14D82268A36850685B680A2291
:10DEB000BDE810400021184400F0D4BC2268A368DB
:10DEC00052685B68D05CA0F174035842584110BDA1
:10DED0000020FCE738B500230446C0E900330E48B3
:10DEE000C4E90203A9B10B78032B06D08BB91368E0
:10DEF00058684B68C35C6E2B07D013684D68586830
:10DF00008B6828445B1BA060E36011462046FFF746
:10DF10006CFF204638BD00BF7DFB3F0238B50025B1
:10DF20000B4604461146C0E90055C0E90255C0E958
:10DF300004554BB11A78012A06D103F11002DB68AF
:10DF400082604361FFF751FF204638BD10B5436939
:10DF5000044663B18068013BE0601030A06020613E
:10DF6000636113B1FFF7F2FEA060012000E01846E4
:10DF700010BD10B57D210446FFF749FF012320465F
:10DF8000237110BD08B50379012B02D0022B04D0F8
:10DF900008BD2C21FFF73BFFFAE73A21FAE710B55D
:10DFA0000446FFF7EFFF20467B21FFF730FF0023F9
:10DFB0002046237110BD000013B504460191FFF700
:10DFC000E1FF23682046DB68019A03499847012353
:10DFD0002046237102B010BD57FB3F0213B5044623
:10DFE0000191FFF7CFFF23682046DB68019A0349C0
:10DFF000984701232046237102B010BD3CFD3F022B
:10E000002DE9F0470D469046222104462F46FFF7A2
:10E01000FEFEDFF8A490A8444745BA463DD017F865
:10E02000016B222E06D05C2E04D0304600F0EAFAB6
:10E030000028F1D12368294620469B68AAEB0502F7
:10E0400098475C212046FFF7E2FE0D2E0AD8072EE6
:10E050001CD9A6F10803052B18D8DFE803F00D0F33
:10E0600011171315222E01D05C2E0FD131462046F8
:10E07000FFF7CDFE3D46CFE76221F8E77421F6E7D2
:10E080006E21F4E76621F2E77221F0E72368324659
:10E0900049462046DB689847ECE7BD4205D0236837
:10E0A000294620469B687A1B984722212046FFF785
:10E0B000AEFEBDE8F08700BF3FFD3F0213B504464A
:10E0C000CDE90021FFF75EFFDDE900212046FFF7E3
:10E0D00097FF02232046237102B010BD13B50446FA
:10E0E000CDE90021FFF74EFFDDE900212046FFF7D3
:10E0F00087FF01232046237102B010BD1B2837B5CE
:10E10000044602D9002003B030BDA0F10F03022B5A
:10E110000BD9012821D800F035F90021007CFDF74A
:10E12000A3FA80F00100C0B2EDE7114DD5E88F1FD2
:10E1300011F001010BD128460191FBF7FDFF019978
:10E1400028B10C48FDF7F2FD2846FBF7FAFF094B12
:10E150001878FDF7EBFA0028D4D1083C012C05D83B
:10E1600000F064F8007CFDF701FADAE70120CAE765
:10E1700040AE071044AE07101B2838B504460D46C4
:10E180000AD8FF2908D0FFF7B9FF28B12946204651
:10E19000BDE83840FDF7C4B838BD38B504460D4673
:10E1A000FDF7CCF8FF2810D0062804D84D2323FA19
:10E1B00000F0C30709D42046FFF7A0FF28B1294685
:10E1C0002046BDE83840FDF7C7B838BD70470000AD
:10E1D00038B5142504462A46002100F042FA25806D
:10E1E0004025074928462581258200F0F1F8044999
:10E1F0006060284600F0ECF8E060204638BD00BFC3
:10E2000045FD3F027047704710B50446FFF7E0FF39
:10E21000204610BD10B50446FFF7DAFF204610BDBA
:10E2200010B50446FFF7D4FF204610BD30B50E4DA3
:10E2300087B0D5E88F1F11F0010411D12846FBF7F4
:10E240007BFF68B101A8FFF7DFFF214601AA07485D
:10E25000FFF720FC2846FBF774FF054800F0CCF9D7
:10E26000024807B030BD00BFECAE0710F8AE071093
:10E2700025E53F0210B50D4C86B0D4E88F3FDB0793
:10E2800011D42046FBF758FF68B101A8FFF7C2FF81
:10E29000012101AA0648FFF7FDFB2046FBF751FFCD
:10E2A000044800F0A9F9024806B010BDF0AE07100E
:10E2B0000CAF07105FE53F0210B5FFF7DBFF074B20
:10E2C000044653B1FFF704FC38B1236820461B69AC
:10E2D0009847002801DD00E000BF10BD00000000ED
:10E2E00010B50D4C86B0D4E88F3FDB0711D4204623
:10E2F000FBF722FF68B101A8FFF792FF022101AAF4
:10E300000648FFF7C7FB2046FBF71BFF044800F059
:10E3100073F9024806B010BDF4AE071020AF071025
:10E320005DE53F0210B5FFF7DBFF074B044653B135
:10E33000FFF7CEFB38B1236820461B6998470028B9
:10E3400001DD00E000BF10BD0000000070470000CC
:10E3500038B50A4B04460360012309494361202074
:10E3600000F036F82025606005492846A56000F0D9
:10E370002FF8C4E90305204638BD00BF180001008E
:10E3800045FD3F0230B50E4D87B0D5E88F1F11F027
:10E39000010411D12846FBF7CFFE68B16846FFF7AC
:10E3A000D7FF6A4621460748FFF7C2FB2846FBF71E
:10E3B000C8FE054800F020F9024807B030BD00BF94
:10E3C00038AF07103CAF0710A5E63F02FBF79FBE32
:10E3D000FBF79FBE014900F0F9B800BF60FD3F02A6
:10E3E0007FB50024102315461268CDE90234036876
:10E3F000CDE900449E696B46B0479DF8043003F0B8
:10E400000603062B05BF009B012020462B6004B0AD
:10E4100070BD0098904214BF012006207047000094
:10E42000034B10B50446036000F0CDF8204610BD44
:10E43000A0FD3F0210B50446FFF7F2FF0821204679
:10E44000FBF76BFE204610BD2DE9F041DDF818808A
:10E450001F4606461546DDE90834984507D1079959
:10E4600000F0B4F818B165710020BDE8F0813946BC
:10E47000304600F0ABF80028F6D00123C4F8008045
:10E480002571A371F0E738B515461C4600F09EF8DB
:10E4900020B108232560E3600623237138BD73B5DE
:10E4A00005460C461E46019200F090F850B9032E26
:10E4B00008D823682946019A20465B6902B0BDE866
:10E4C0007040184702B070BD034B10B5044603609E
:10E4D000FFF7A6FF204610BD00FE3F0210B5044620
:10E4E000FFF7F2FF0C212046FBF717FE204610BD78
:10E4F000F7B5089F05460E46144697420AD0A8680D
:10E50000314602680897156A2246AC4603B0BDE85A
:10E51000F04060471946019300F058F8019B00282D
:10E52000EDD0062003B0F0BD2DE9F14F0D461946A0
:10E53000814617469846DDE90A4BDDE90CA600F056
:10E5400045F890B1002D3460377109DB61198A45B7
:10E550000CBF06210121B171002001B0BDE8F08F90
:10E560000235F9D10123B371F6E7544506D1594676
:10E57000484600F02BF808B17771EDE7D9F80800AC
:10E580003A4629460368CDE90CA6CDE90A4BDC6979
:10E590004346A44601B0BDE8F04F60472DE9F04185
:10E5A00007460C4615461E46FFF76DFF48B9B8688A
:10E5B0002A46214603689F693346BC46BDE8F041C0
:10E5C0006047BDE8F081704700207047814208B580
:10E5D0000ED0406803782A2B0CD049680B782A2B80
:10E5E00008BF0131FBF764FDB0FA80F0400908BDB7
:10E5F0000120FCE70020FAE7002301461A461846EE
:10E6000000F072B9024B1844407800F09700704750
:10E61000CDFE3F020A44431E914200D1704710B51F
:10E6200011F8014B914203F8014FF9D110BD884216
:10E6300010B501EB020402D98442234607D8431ED9
:10E64000A14208D011F8012B03F8012FF8E702448A
:10E6500001468A4200D110BD13F8014D02F8014D68
:10E66000F7E702440346934200D1704703F8011BC9
:10E67000F9E7000038B5104B04461D68AB6BB3B921
:10E680001820FDF7ADFA0246A86320B90B4B4221D2
:10E690000B48FDF7EBFA0B490B4BC0E900130B4B92
:10E6A000002183600B2383810120C2E90401AB6B4D
:10E6B00000221C615A6138BD78AD071039FE3F0257
:10E6C00050FE3F020E33CDAB34126DE6ECDE05009A
:10E6D000C9B2034610F8012B1AB18A42F9D1184683
:10E6E0007047002918BF0023F9E710B50446FFF76B
:10E6F000EFFF18B92046FBF7E5FC204410BD0346A8
:10E7000011F8012B03F8012B002AF9D1704710B53D
:10E710007AB103460139841813F8010B11F8012F5F
:10E72000904201D1A34201D1801A10BD0028F3D13B
:10E73000FAE71046F9E738B503460C4669B9BDE873
:10E740003840FFF7C5BF431C054621461846FFF772
:10E75000BFFF0028F7D1284638BD0025F5E70000A7
:10E76000012B2DE9F04701D0242B06D9FDF770FAD3
:10E77000162303600020BDE8F0870D46DFF8E0C0F7
:10E780002E4615F8014B14F80C7017F00807F7D156
:10E790002D2C32D12C780127B51C002B5BD0102BEF
:10E7A00009D1302C07D12C7804F0DF04582C4DD13E
:10E7B0006C781023023507F100484FF0000C08F187
:10E7C000FF386646B8FBF3F903FB198AA4F1300E53
:10E7D000BEF1090F16D87446A34224DDBCF1000F28
:10E7E0001EDBB1451CD301D1A24519DB06FB034654
:10E7F0004FF0010C15F8014BE8E72B2C04BF2C78E7
:10E80000B51CCAE7A4F1410EBEF1190F01D8373C7F
:10E81000E2E7A4F1610EBEF1190F04D8573CDBE723
:10E820004FF0FF3CE6E7BCF1000F05DA2223464635
:10E83000036042B930469EE707B17642002AF9D01C
:10E84000BCF1000F00D0691E1160F3E73024002BEB
:10E85000B1D10823AFE7302CA5D00A23ABE700BF26
:10E86000CEFE3F0213460A46014602480068FFF703
:10E8700077BF00BF78AD0710024B0146186800F063
:10E8800097B800BF78AD07100EB403B503AB0146CF
:10E89000064853F8042B00680193049B00F09CF891
:10E8A00002B05DF804EB03B0704700BF78AD07100D
:10E8B00013460A4601460248006800F003B800BF4C
:10E8C00078AD071038B50446064D084611460022BB
:10E8D0002A601A46FCF794FD431C02D12B6803B151
:10E8E000236038BDE4AF07102DE9F843DFF8BC80A2
:10E8F00006461F460D46D8F80000914600F068F81D
:10E90000264B1C6834B9264C1C60264B13B11B687F
:10E91000C4F8883063681F2B07DDD8F8000000F0CA
:10E9200059F84FF0FF30BDE8F8835EB3D4F88800A3
:10E9300088B91D4B23B9D8F8000000F04AF8F0E779
:10E940004FF48470FDF74CF90028F4D00023C0E99F
:10E950004033C4F8880063680122022E40F82390F7
:10E9600002FA03F200EB8301D0F8003143EA02031C
:10E97000C0F80031C1F8807002BFD0F804311343F1
:10E98000C0F804316368D8F800005A1C0233626092
:10E9900044F8235000F01EF80020C4E7DCAF071055
:10E9A00050AF07100000000039BF3F02DCAD071078
:10E9B00038B50023054D044608462B60FCF72EFDB4
:10E9C000431C02D12B6803B1236038BDE4AF0710AC
:10E9D000704770477047000038B50446064D08463A
:10E9E000114600222A601A46FCF7FCFC431C02D1A7
:10E9F0002B6803B1236038BDE4AF07102DA43F029C
:10EA000055A43F0259A43F020000000043616C6C12
:10EA1000206F6E2070757265207669727475616CF6
:10EA20000061642E676966007172636F64652E62AF
:10EA30006D700000000000000000000000000000F9
:10EA40000000000079A43F02A1A43F0200000000E2
:10EA500000000000A5A43F02D9A43F02A5D63F02B2
:10EA60004DD83F020C000000000000000000000034
:10EA700039B13F02B1AE3F020FAE3F02C3AC3F021D
:10EA8000D5A73F0209A83F020000000000000000D7
:10EA9000F4FFFFFF0000000000000000F4FFFFFF94
:10EAA000F4FFFFFF00000000F4FFFFFF0000000084
:10EAB00000000000F4FFFFFFF4FFFFFF0000000074
:10EAC000E9A73F0229A83F02ABB33F0245C63F0278
:10EAD000DBB13F02FBB13F029FAE3F0241AF3F02BD
:10EAE000B9B23F0257B33F02D9AC3F02A9B33F02CC
:10EAF00005B63F020000000000000000000000001A
:10EB000000000000ABB33F0245C63F0279A43F02BC
:10EB1000FBB13F0221B33F023DB33F02B9B23F0216
:10EB200057B33F028DB33F02A9B33F0205B63F0280
:10EB300000FF000000000000000070F8A8F8D8886E
:10EB4000700070F8A8F888D870000050F8F8F870D5
:10EB50002000002070F8F87020007050F8A8F8200D
:10EB600070002070F8F8F82070000000207070200D
:10EB70000000F8F8D88888D8F8F800002050502015
:10EB80000000F8F8D8A8A8D8F8F800381868A0A0AD
:10EB900040007088887020F8200078487840404015
:10EBA000C000784878484858C00020A870D8D8706D
:10EBB000A82080C0F0F8F0C08000081878F8781815
:10EBC00008002070A820A8702000D8D8D8D8D80075
:10EBD000D80078A8A868282828003048502810486D
:10EBE00048300000000000F8F8002070A820A8704D
:10EBF00020F8002070A82020200000202020A870ED
:10EC00002000002010F810200000002040F84020D4
:10EC1000000000808080F80000000050F8F85000EC
:10EC2000000000202070F8F8000000F8F8702020A4
:10EC30000000000000000000000020202020200034
:10EC4000200050505000000000005050F850F85084
:10EC500050002078A07028F02000C0C810204098F4
:10EC6000180040A0A040A89068003030204000006C
:10EC700000001020404040201000402010101020C4
:10EC8000400020A870F870A82000002020F8202064
:10EC900000000000000030302040000000F80000BC
:10ECA000000000000000003030000008102040800C
:10ECB0000000708898A8C88870002060202020205C
:10ECC0007000708808708080F800F808103008889C
:10ECD000700010305090F8101000F880F00808888C
:10ECE0007000384080F088887000F80808102040D4
:10ECF0008000708888708888700070888878081014
:10ED0000E000000020002000000000002000202083
:10ED1000400008102040201008000000F800F80013
:10ED200000004020100810204000708808302000AB
:10ED300020007088A8B8B080780020508888F888B3
:10ED40008800F08888F08888F0007088808080884B
:10ED50007000F08888888888F000F88080F08080D3
:10ED6000F800F88080F08080800078888080988823
:10ED70007800888888F888888800702020202020E3
:10ED8000700038101010109060008890A0C0A09003
:10ED90008800808080808080F80088D8A8A8A88813
:10EDA00088008888C8A8988888007088888888889B
:10EDB0007000F08888F08080800070888888A89033
:10EDC0006800F08888F0A0908800708880700888BB
:10EDD0007000F8A820202020200088888888888853
:10EDE00070008888888888502000888888A8A8A80B
:10EDF0005000888850205088880088885020202023
:10EE00002000F80810704080F800784040404040F2
:10EE100078000080402010080000780808080808E2
:10EE20007800205088000000000000000000000072
:10EE3000F80060602010000000000000601070907A
:10EE400078008080B0C888C8B000000070888088D2
:10EE50007000080868988898680000007088F8803A
:10EE60007000102820702020200000007098986802
:10EE700008708080B0C8888888002000602020202A
:10EE800070001000101010906000808090A0C0A052
:10EE9000900060202020202070000000D0A8A8A8AA
:10EEA000A8000000B0C888888800000070888888A2
:10EEB00070000000B0C8C8B08080000068989868F2
:10EEC00008080000B0C880808000000078807008CA
:10EED000F0002020F8202028100000008888889862
:10EEE0006800000088888850200000008888A8A852
:10EEF0005000000088502050880000008888780862
:10EF000088700000F8102040F800102020402020D9
:10EF10001000202020002020200040202010202051
:10EF2000400040A81000000000002070D88888F839
:10EF30000000708880808870106000880088889841
:10EF4000680018007088F8807800F80060107090F1
:10EF500078008800601070907800C0006010709099
:10EF6000780030006010709078000078C0C0781091
:10EF70003000F8007088F880780088007088F88089
:10EF80007800C0007088F8807800280030101010D9
:10EF90003800304830101010380060003010101069
:10EFA00038005000205088F888882000205088F8C9
:10EFB00088883000F080E080F000000078107890C1
:10EFC0007800385090F89090980070880070888889
:10EFD0007000008800708888700000C00070888809
:10EFE0007000708800888898680000C00088889841
:10EFF0006800480048484838087088007088888849
:10F00000700088008888888870002020F8A0A0F808
:10F010002020305848E04048F800D8D870F820F850
:10F020002020E09090E090B8909018282070202048
:10F03000A0C01800601070907800180030101010F8
:10F0400038000018007088887000001800888898C0
:10F0500068000078007048484800F800C8E8B89890
:10F0600088007090907800F800007088887000F830
:10F0700000002000206080887000000000F8808080
:10F080000000000000F808080000808890B8489848
:10F090002038808890A858B8080820200020202018
:10F0A0002000002850A05028000000A0502850A0A8
:10F0B0000000208820882088208850A850A850A8C8
:10F0C00050A8101010101010101010101010F01088
:10F0D00010101010F010F010101028282828E82820
:10F0E000282800000000F82828280000F010F01060
:10F0F00010102828E808E828282828282828282860
:10F1000028280000F808E82828282828E808F80017
:10F11000000028282828F80000001010F010F00047
:10F12000000000000000F010101010101010180067
:10F13000000010101010F800000000000000F8108F
:10F140001010101010101810101000000000F8001F
:10F15000000010101010F8101010101018101810D7
:10F16000101028282828282828282828282038006F
:10F17000000000003820282828282828E800F80067
:10F1800000000000F800E82828282828282028283F
:10F1900028280000F800F80000002828E800E828E7
:10F1A00028281010F800F800000028282828F80067
:10F1B00000000000F800F810101000000000F8280F
:10F1C00028282828282838000000101018101800B7
:10F1D000000000001810181010100000000038285F
:10F1E000282828282828F82828281010F810F8108F
:10F1F000101010101010F000000000000000181097
:10F200001010F8F8F8F8F8F8F8F800000000F8F82E
:10F21000F8F8E0E0E0E0E0E0E0E01818181818186E
:10F220001818F8F8F8F800000000000068909090B6
:10F230006800007098F098F0800000F89880808056
:10F24000800000F8505050505000F888402040880E
:10F25000F800000078909090600000505050506886
:10F26000C00000F8A02020202000F82070888870BE
:10F2700020F8205088F8885020002050888850506E
:10F28000D800304030708888700000000070A8A856
:10F290007000087098A8A8C87080708080F0808086
:10F2A0007000708888888888880000F800F800F866
:10F2B00000002020F8202000F8004020102040000E
:10F2C000F800102040201000F800382820202020CE
:10F2D00020202020202020A0A0E0303000F80030A6
:10F2E000300000E8B800E8B8000070D8D87000001E
:10F2F000000000000030300000000000000030007E
:10F30000000038202020A0A0602070484848480015
:10F31000000070183060780000000000787878787D
:10F3200000000000000000000000050800000508C3
:10F330000800050810000508180005082000050849
:10F3400028000508300005083800050840000508B9
:10F350004800050850000508580005086000050829
:10F360006800050870000508780005088000050899
:10F37000880005089000050898000508A000050809
:10F38000A8000508B0000508B8000508C000050879
:10F39000C8000508D0000508D8000508E0000508E9
:10F3A000E8000508F0000508F80005080001050858
:10F3B00008010508100105081801050820010508C5
:10F3C0002801050830010508380105084001050835
:10F3D00048010508500105085801050860010508A5
:10F3E0006801050870010508780105088001050815
:10F3F000880105089001050898010508A001050885
:10F40000A8010508B0010508B8010508C0010508F4
:10F41000C8010508D0010508D8010508E001050864
:10F42000E8010508F0010508F801050800020508D3
:10F430000802050810020508180205082002050840
:10F4400028020508300205083802050840020508B0
:10F450004802050850020508580205086002050820
:10F460006802050870020508780205088002050890
:10F47000880205089002050898020508A002050800
:10F48000A8020508B0020508B8020508C002050870
:10F49000C8020508D0020508D8020508E0020508E0
:10F4A000E8020508F0020508F8020508000305084F
:10F4B00008030508100305081803050820030508BC
:10F4C000280305083003050838030508400305082C
:10F4D000480305085003050858030508600305089C
:10F4E000680305087003050878030508800305080C
:10F4F000880305089003050898030508A00305087C
:10F50000A8030508B0030508B8030508C0030508EB
:10F51000C8030508D0030508D8030508E00305085B
:10F52000E8030508F0030508F803050800040508CA
:10F530000804050810040508180405082004050837
:10F5400028040508300405083804050840040508A7
:10F550004804050850040508580405086004050817
:10F560006804050870040508780405088004050887
:10F57000880405089004050898040508A0040508F7
:10F58000A8040508B0040508B8040508C004050867
:10F59000C8040508D0040508D8040508E0040508D7
:10F5A000E8040508F0040508F80405080005050846
:10F5B00008050508100505081805050820050508B3
:10F5C0002805050830050508380505084005050823
:10F5D0004805050850050508580505086005050893
:10F5E0006805050870050508780505088005050803
:10F5F000880505089005050898050508A005050873
:10F60000A8050508B0050508B8050508C0050508E2
:10F61000C8050508D0050508D8050508E005050852
:10F62000E8050508F0050508F805050800060508C1
:10F63000080605081006050818060508200605082E
:10F64000280605083006050838060508400605089E
:10F65000480605085006050858060508600605080E
:10F66000680605087006050878060508800605087E
:10F67000880605089006050898060508A0060508EE
:10F68000A8060508B0060508B8060508C00605085E
:10F69000C8060508D0060508D8060508E0060508CE
:10F6A000E8060508F0060508F8060508000705083D
:10F6B00008070508100705081807050820070508AA
:10F6C000280705083007050838070508400705081A
:10F6D000480705085007050858070508600705088A
:10F6E00068070508700705087807050880070508FA
:10F6F000880705089007050898070508A00705086A
:10F70000A8070508B0070508B8070508C0070508D9
:10F71000C8070508D0070508D8070508E007050849
:10F72000E8070508F0070508F807000000000000DA
:10F73000000000005BC03F0251C03F0247C03F02D3
:10F740003DC03F0231C03F0225C03F0281DF3F0282
:10F7500089DF3F0219C03F0211C03F0207C03F02CC
:10F76000FDBF3F02B9DF3F020008101820283038E3
:10F770000000000000000000000000000000000089
:10F78000F1C63F0215C73F0267C73F0223C73F02CA
:10F79000F5C63F0200000000000000002DC33F023C
:10F7A00029C43F02EDC63F0245C63F02E3C93F02FE
:10F7B000B3C63F02CFC63F02EBC63F021DCA3F029F
:10F7C00075C93F02A5C93F02626175640053657245
:10F7D00069616C0053657269616C31004A534F4E28
:10F7E00053747265616D4C6F6748616E646C6572CD
:10F7F0000061707000253031307520005D200025DB
:10F8000064002C200028293A2000205B00636F64EC
:10F8100065203D200025690064657461696C732072
:10F820003D20000D0A006D006C6E00666E007400D5
:10F83000636F64650064657461696C0000000000BA
:10F84000000000009DCA3F02C3CA3F0281CA3F02B6
:10F85000D3E03F02000000000000000051CF3F0253
:10F8600069CF3F02A5D63F024DD83F0200000000FD
:10F87000000000007DCF3F0291CF3F0285D83F02BC
:10F8800089CA3F0200000000000000009BCA3F023E
:10F89000D1CA3F0209D63F028BCA3F0200000000D6
:10F8A0000000000099CA3F02DFCA3F02B9CE3F0202
:10F8B00001CB3F0225592D256D2D25645425483A4D
:10F8C000254D3A2553257A0061736374696D65008F
:10F8D000000000000000000081DB3F0271DB3F02FE
:10F8E00073DB3F02000000000000000067DC3F0205
:10F8F000CFDC3F02A5DC3F0245C63F0297DC3F025A
:10F9000069DC3F0279DC3F02C9DC3F0289DC3F024F
:10F9100061DC3F02000000000000000071DD3F02DA
:10F92000DDDD3F02B5DD3F0245C63F0285DD3F021A
:10F93000A1DD3F0293DD3F02AFDD3F0273DD3F02F9
:10F9400077DD3F0200000000000000002FDE3F02D4
:10F9500079DE3F0251DE3F0231DE3F0259DE3F02D7
:10F9600061DE3F0269DE3F0271DE3F0200000000FF
:10F970000000000023DF3F0219DF3F020FDF3F02DC
:10F98000C5DE3F0203DF3F02F7DE3F0281DF3F02B9
:10F9900089DF3F02EBDE3F02E3DE3F02D9DE3F02BA
:10F9A000CFDE3F02B9DF3F02000000000000000090
:10F9B00041DF3F024BDF3F0255DF3F025FDF3F0287
:10F9C00069DF3F0275DF3F0281DF3F0289DF3F02CF
:10F9D00091DF3F029DDF3F02A5DF3F02AFDF3F0225
:10F9E000B9DF3F0225750075253034780000537467
:10F9F00031395F53705F6D616B655F73686172650C
:10FA0000645F746167000000A0FD3F0246FD3F0295
:10FA100000FE3F0274FD3F0224FE3F024E31305F84
:10FA20005F637878616269763131375F5F636C61FB
:10FA300073735F747970655F696E666F450000006F
:10FA40000000000068FD3F0279E73F028DE73F02BA
:10FA500021E93F0221E93F02F7E73F0239E73F0290
:10FA6000DFE73F02A1E73F026BE73F0200FE3F02F4
:10FA7000D0FD3F0268FD3F024E31305F5F63787812
:10FA8000616269763132305F5F73695F636C6173A5
:10FA9000735F747970655F696E666F450000000082
:10FAA00000000000C4FD3F0221E83F0235E83F02AC
:10FAB00021E93F0221E93F02F7E73F0239E73F0230
:10FAC000F5E83F0281E83F0249E83F02A0FD3F021E
:10FAD0002CFE3F02537439747970655F696E666FEE
