:02000004085F93
:10E0000000E05F08FCFF5F0800000600200005013B
:08E0100004017D150000000071
:10E018001348144908B5884205D0134A824202D0F1
:10E02800124B121A98471248124A0021124B121A20
:10E03800984712481249884205D0124A824202D0B3
:10E048000A4B121A984710481049884205D0104ABE
:10E05800824202D0054B121A9847014808BD00BFFA
:10E0680034AE0710F8FD5F08A4AE07102D0D11108F
:10E07800A4AE0710E8AF0710A10E1110A0E23F02EE
:10E08800A8E05F08A8E23F02A8E23F02B0E05F080C
:0CE09800F0FF3F0219E05F0800000000EC
:08E0A8009CE05F0894FC3F02BC
:10E0B00010F8012B11F8013B012A28BF9A42F7D032
:10E0C000D01A7047034613F8012B002AFBD1181A07
:10E0D0000138704770B500F0E5FF0025054E064C8D
:10E0E000A41BA408AC4200D170BD56F8043B98476D
:10E0F0000135F7E7D0FF3F02F0FF3F0200F017B80D
:10E1000008B500F02AF8BDE8084000F083BF00F031
:10E110008DBA00F08BBA00F097BA00F095BA00788B
:10E12000B0FA80F04009704701230370704730B5A2
:10E1300085B001A800F0F1FBDDE9014304EB831594
:10E14000A54205D0236820461B6898474034F7E76E
:10E15000019800F079FA05B030BD704709B5044860
:10E160000068044B03441B689B68029309BD0000D0
:10E1700034AE07105000000009B504480068044B95
:10E1800003441B68DB68029309BD000034AE07102E
:10E190005000000009B504480068044B03441B68A4
:10E1A0005B68029309BD000034AE07100000000058
:10E1B00009B504480068044B03441B685B6902937B
:10E1C00009BD000034AE07100000000009B5044886
:10E1D0000068044B03441B685B6C029309BD00009C
:10E1E00034AE07103000000009B504480068044B45
:10E1F00003441B685B69029309BD000034AE07103D
:10E200004C00000009B504480068044B03441B6837
:10E21000DB68029309BD000034AE07102400000043
:10E2200009B504480068044B03441B681B6902934A
:10E2300009BD000034AE07102400000009B50448F1
:10E240000068044B03441B685B69029309BD00002E
:10E2500034AE07102400000009B504480068044BE0
:10E2600003441B689B69029309BD000034AE07108C
:10E270002400000009B504480068044B03441B68EF
:10E28000DB69029309BD000034AE071024000000D2
:10E2900009B504480068044B03441B681B6A0293D9
:10E2A00009BD000034AE07102400000009B5044881
:10E2B0000068044B03441B689B6A029309BD00007D
:10E2C00034AE07102400000009B504480068044B70
:10E2D00003441B681B6C029309BD000034AE071099
:10E2E0002400000009B504480068044B03441B687F
:10E2F0001B68029309BD000034AE07103400000013
:10E3000009B504480068044B03441B681B69029369
:10E3100009BD000034AE07103400000009B5044800
:10E320000068044B03441B685B69029309BD00004D
:10E3300034AE07103400000009B504480068044BEF
:10E3400003441B689B69029309BD000034AE0710AB
:10E350003400000009B504480068044B03441B68FE
:10E36000DB69029309BD000034AE071034000000E1
:10E3700009B504480068044B03441B681B6A0293F8
:10E3800009BD000034AE07103400000009B5044890
:10E390000068044B03441B685B68029309BD0000DE
:10E3A00034AE07100800000009B504480068044BAB
:10E3B00003441B68D3F88830029309BD34AE0710BC
:10E3C0000800000009B504480068044B03441B68BA
:10E3D000D3F89430029309BD34AE07100800000052
:10E3E00009B504480068044B03441B685B6802934A
:10E3F00009BD000034AE07102800000009B504482C
:10E400000068044B03441B689B68029309BD00002D
:10E4100034AE07102800000009B504480068044B1A
:10E4200003441B68DB68029309BD000034AE07108B
:10E430002800000009B504480068044B03441B6829
:10E440001B69029309BD000034AE071028000000CC
:10E4500009B504480068044B03441B685B690293D8
:10E4600009BD000034AE07102800000009B50448BB
:10E470000068044B03441B689B69029309BD0000BC
:10E4800034AE07102800000009B504480068044BAA
:10E4900003441B68DB69029309BD000034AE07101A
:10E4A0002800000009B504480068044B03441B68B9
:10E4B0001B6A029309BD000034AE0710280000005B
:10E4C00009B504480068044B03441B681B6B0293A6
:10E4D00009BD000034AE07102800000009B504484B
:10E4E0000068044B03441B685B6B029309BD00008A
:10E4F00034AE07102800000009B504480068044B3A
:10E5000003441B681B6C029309BD000034AE071066
:10E510002800000009B504480068044B03441B6848
:10E520005B6C029309BD000034AE071028000000A8
:10E5300009B504480068044B03441B68DB6B029375
:10E5400009BD000034AE07102C00000009B50448D6
:10E550000068044B03441B685B68029309BD00001C
:10E5600034AE07107400000009B504480068044B7D
:10E5700003441B689B68029309BD000034AE07107A
:10E580007400000009B504480068044B03441B688C
:10E590001B69029309BD000034AE0710740000002F
:10E5A00009B504480068044B03441B685B69029387
:10E5B00009BD000034AE07107400000009B504481E
:10E5C0000068044B03441B689B69029309BD00006B
:10E5D00034AE07107400000009B504480068044B0D
:10E5E00003441B68DB69029309BD000034AE0710C9
:10E5F0007400000009B504480068044B03441B681C
:10E600001B6A029309BD000034AE071074000000BD
:10E6100009B504480068044B03441B689B6A0293D5
:10E6200009BD000034AE07107400000009B50448AD
:10E630000068044B03441B681B68029309BD00007B
:10E6400034AE07100400000009B504480068044B0C
:10E6500003441B685B68029309BD000034AE0710D9
:10E660000400000009B504480068044B03441B681B
:10E670009B68029309BD000034AE0710040000003F
:10E6800009B504480068044B03441B681B6C0293E3
:10E6900009BD000034AE07100400000009B50448AD
:10E6A0000068044B03441B685B6C029309BD0000C7
:10E6B00034AE071004000000002240681146FFF746
:10E6C000F1BE002240681146FFF708BF00224068F3
:10E6D000FFF7F6BE0022406881F00101FFF7D4BECB
:10E6E000002340681A461946FFF7C0BE0023406861
:10E6F0001A461946FFF7ACBE002240681146FFF7E4
:10E7000099BE002240681146FFF778BE0022022120
:10E710004068FFF781BE002340681A46FFF760BEDD
:10E720000322024B5A60024A1A607047A4AE0710D7
:10E73000ACFC3F0210B50446006808B1FFF7EBFCE3
:10E74000204610BDF7B5002704460D46C0E900710C
:10E75000C9B10846FFF7DDFC064638B16B1E013330
:10E76000ACBF2A463A46394601F0F1F8002320684A
:10E770000193266008B1FFF7CEFC01A8FFF7DAFF8E
:10E78000236803B96360204603B0F0BD38B50D4679
:10E7900004464B681031436051F8083C836051F8DF
:10E7A000043CC360134B40F8103B00F08FF995F820
:10E7B000203004F1240084F82030A96AFFF7C2FF5A
:10E7C000A26A2AB1AB6A1BB1696A606A01F0B2F849
:10E7D000EB6AE3622B6B236395F8343084F83430B2
:10E7E000AB6BA363EB6BE36313B15A6801325A60FE
:10E7F000204638BD0CFD3F028842F8B506460C465F
:10E80000154615D9904214D2A2F140056B1AA1F118
:10E8100040071E44AF421AD01EB129463046FFF7CA
:10E82000B5FF2B6828461B689847403D403EF1E7FE
:10E830000DD0AC420BD01EB121463046FFF7A6FFEB
:10E84000236820461B68984740344036F1E7F8BDFE
:10E8500070B50E1E054611DDB001FFF7E7FE044658
:10E8600058B1D5E9001201EB8212FFF7C5FF286805
:10E87000FFF7EAFE01202C60AE6070BD0024F6E7D1
:10E8800038B50F4BC46B054603607CB16368013B30
:10E8900063605BB9236820469B689847A368013B87
:10E8A000A3601BB923682046DB68984705F1240064
:10E8B000FFF740FF05F1100000F07CF8284638BD56
:10E8C0000CFD3F0230B5044691B045686846FFF73D
:10E8D0005DFFD4E9011399420FDA2368626803EB04
:10E8E0008515294603EB821205F14000FFF784FFEE
:10E8F00075B963680133636005E020460131FFF7B5
:10E90000A7FF0028E9D16846FFF7BAFF11B030BD74
:10E9100069462846FFF73AFFEBE770B500241C264E
:10E9200098B02146C0E9004484603246054601A8FB
:10E9300001F00DF8214601A8ADF80460FFF706FECE
:10E940000446C0B9BDF81C30A34210D9069BBDF8DF
:10E950000C1008A804FB013100F0BEF9284608A9F4
:10E96000FFF7B0FF08A8FFF78BFF0134EAE70021AB
:10E9700001A8FFF7F9FD284618B070BD10B5044690
:10E98000FFF77EFF20464021FFF7C7FB204610BD62
:10E9900002220020044B1A60044B054AC3E9000020
:10E9A0009A60FFF7F3BC00BFB8AE0710ACAE07101B
:10E9B0000000FFFF10B504460068FFF745FE204643
:10E9C00010BD10B50446006808B1FFF73DFE0023F6
:10E9D000C4E90133236010BD38B504460D46006814
:10E9E0000131FFF73FFE10B1C4E90005012038BD39
:10E9F00010B50368044623B143688B4201D301205C
:10EA000010BD2046FFF7E8FF0028F9D0A368002BCF
:10EA1000F5D122681370F2E737B50D461146019221
:10EA20000446FFF7E5FF019A28B92046FFF7C9FF22
:10EA3000204603B030BD2946A260206800F07AFF6E
:10EA400000212268A368D154F2E7002313B50446DD
:10EA5000C0E900338360037341B108460191FFF7B9
:10EA600031FB019902462046FFF7D6FF204602B04F
:10EA700010BD38B5054600680C4670B16A688B68F1
:10EA80009A4208D3096831B100F098FFA368AB60DF
:10EA90000023A36038BDFFF7D7FD23682B606368B0
:10EAA0006B60A368AB600023C4E90033F1E78842E0
:10EAB00010B5044605D00B682BB18A681946FFF7DC
:10EAC000ABFF204610BDFFF77CFFFAE7002310B52F
:10EAD0000446C0E9003383600373FFF7E8FF204674
:10EAE00010BD884210B5044601D0FFF7C2FF204692
:10EAF00010BD10B543680446013B436063B9036829
:10EB00009B689847A368013BA3602BB92368204604
:10EB1000BDE81040DB68184710BD10B5044600681A
:10EB200008B1FFF7E6FF204610BD000000230248B1
:10EB30000360FFF74BBB00BFBCAE0710F8B506463D
:10EB40000D4600248F18BD420CD0336830469B68B8
:10EB500015F8011B9847031E01DB1C44F3E7002C4A
:10EB600008BF1C462046F8BD13B50446084659B1F7
:10EB70000191FFF7A7FA0246204623680199DB6856
:10EB800002B0BDE81040184702B010BD03689B6892
:10EB900018470023012A98BF0A2230B58BB08DF8A0
:10EBA000243009AC0D46B1FBF2F101FB125303F026
:10EBB000FF03092B94BF30333733DBB2AA4204F88A
:10EBC000013DEFD92146FFF7CFFF0BB030BD07B5B0
:10EBD000036801221B6A0DF107019847012808BF4D
:10EBE0009DF8070003B05DF804FB07B50368012238
:10EBF0005B6A0DF107019847012808BF9DF80700DF
:10EC000003B05DF804FB70470020704770470000B8
:10EC1000064B10B5994200F10C0405D0084600F0EF
:10EC200071FD002808BF0024204610BDE0FC3F0213
:10EC300010B504461021FFF770FA204610BD1021D0
:10EC4000FFF76BBA836943B190F92030013304D0E8
:10EC5000806A003818BF012070470020704710B547
:10EC60000446006810B10021FFF7D2FC204610BD19
:10EC70000C30FFF7F4BF38B504460D464968FFF77E
:10EC800061FD62682AB16B681BB12968206800F0D9
:10EC900051FE204638BDFF2373B5154604460E4687
:10ECA00000F8043B0021FFF74DFD95B97368202B58
:10ECB0000FD131466846FFF7DEFF009A6368626055
:10ECC000019A0093A3686846A2600193FFF732FDA2
:10ECD0002570204602B070BDF0B54FF47A7300265F
:10ECE0000746C0E90163314B044647F8103B89B041
:10ECF0000D4638462E49FFF7A8FEFF23314684F81B
:10ED0000203004F12400FFF71DFDC4E90B66C4E9BF
:10ED10000E6684F83460002D45D0296849B104A8F6
:10ED2000FFF793FE384604A9FFF7DBFE04A8FFF7C0
:10ED300041FE6E68002E31D02A89002A2ED011465D
:10ED400002A895F90A700192FFF7FCFC029818B12D
:10ED50003146019A00F0EEFD3A4602A904A8FFF7F9
:10ED60009AFF02A8FFF7E6FC9DF81030002184F816
:10ED7000203002A8FFF7E6FC029B05990593039B50
:10ED8000069A0693636A02A80293A36A6162A2626A
:10ED90000393FFF7CFFC05A8FFF7CCFCEB6803B1AA
:10EDA000E3622B692363204609B0F0BD0CFD3F02EE
:10EDB000CCFF3F0270B58AB004460E46FFF742FF13
:10EDC00000284ED0A36B13B11B68002B3CD194F8E4
:10EDD0003450002D48D1E36A002B48D02369CDE997
:10EDE00007550593636A2A460693A36A6846ADF8F9
:10EDF0001C3094F8203005A9009509958DF81E3037
:10EE0000FFF7C0FB00282ADBE6B110200195FFF7D1
:10EE10007EF930B10123C0E90133164B0360009B3A
:10EE2000C3600023CDE90133A36B039300F10C030E
:10EE3000A363E36BE06304A80493FFF76EFE02A8EC
:10EE4000FFF76BFEA16B09B1002008E00098FFF707
:10EE5000DFFB002EF8D0A36B002BF5D106480AB0DB
:10EE600070BD6FF0D100FAE76FF0C800F7E76FF000
:10EE7000BE00F4E7F0FC3F02FCFEFFFF70B50C465D
:10EE8000012106461546FFF795FF00280BDB4CB124
:10EE900045B1B06B2A462146BDE8704000230068AA
:10EEA000FFF79ABB004870BDF2FEFFFF38B50C4675
:10EEB00001210546FFF77EFF002807DBAB6B2146EB
:10EEC00018680022BDE83840FFF794BB38BD07B58D
:10EED00003684268009300230360436001A8019225
:10EEE000FFF71BFE03B05DF804FB38B501210546B2
:10EEF000FFF760FF044628B9AB6B01461868FFF7BF
:10EF00004FFB044614F1C90F09D195F8343033B9D9
:10EF100005F13800FFF7DBFF012385F8343024EAE0
:10EF2000E47038BD2DE9F0418846012107461546B9
:10EF3000FFF740FF041E1BDBB8F1000F20D0FDB12E
:10EF40000026B86B00232A46006808EB0601FFF78D
:10EF500035FB041E0FDC14F1C90F06D107F1380090
:10EF6000FFF7B5FF012387F83430002E18BF344671
:10EF70002046BDE8F0812D1B2644E2D13446F7E758
:10EF8000004CF5E7F2FEFFFF014B024A1A607047A2
:10EF9000C0AE071038FD3F02024B1A68024B1A60E0
:10EFA000704700BF38AE0710C4AE07100022014BF7
:10EFB0009A607047C8AE0710014B1860704700BFD9
:10EFC0003CAE071008B50F4B43B100F06FF9036872
:10EFD0001B699847002801DD00E000BF0A4B43B1E0
:10EFE00000F0FEFA03681B699847002801DD00E085
:10EFF00000BF064B0BB100F039FB054B0BB100F025
:10F000006BFB08BD000000000000000000000000D5
:10F010000000000008B5FFF7D5FFFFF7C9F8014B66
:10F02000186008BD50AF07100548064A08B5121A07
:10F03000054900F07FFC054B054A1A6008BD00BF7A
:10F0400000B4071004B4071068FE5F0800B407108E
:10F050001E1C279A002307B51A466FF0770100930C
:10F06000FFF7B0F903B05DF804FB000007B5438873
:10F070000A2B08D0502B0BD1094B1B684BB103B0A6
:10F080005DF804EB1847FFF7E5FF03B05DF804FBFC
:10F0900000231A466FF077010093FFF793F9F4E726
:10F0A000DCAE0710002110B51148FFF7F7FA114B3D
:10F0B0001A68114B9A420CBF012200220F4B1A70A2
:10F0C00001D0FFF7B1FFFFF765F8044600F048FCF8
:10F0D0000B4B13B1204600E000BF00210848FFF7AA
:10F0E00027FABDE8104000210648FFF75DB900BFD0
:10F0F000B1F13F0200B407101E1C279AD8AE0710CA
:10F100000000000065F23F02704710B50446182168
:10F11000FFF703F8204610BDF0B5037D0E46062B21
:10F120004FF000048DB000F1040712D000F1080583
:10F1300015F8011D0A223046FFF72BFDAF420444AB
:10F1400019D0002CF4D02E213046FFF71FFD0444C7
:10F15000EEE72F236A4639460A208DF80040FFF774
:10F1600043F86846FEF7AEFF33680246694630460C
:10F17000DB689847044620460DB0F0BD10B5044644
:10F18000044B1122002140F8043B00F0E0FB204634
:10F1900010BD00BF60FD3F020346074A10B543F8AB
:10F1A000042B01F1100251F8044B914243F8044B37
:10F1B000F9D10A781A7010BD60FD3F0210B59DF8B4
:10F1C000084044EA032343EA0242042342EA01617D
:10F1D0004160037510BD000007B5064B0360CB7896
:10F1E00000938B784A780978FFF7E8FF03B05DF861
:10F1F00004FB00BF60FD3F024174704770477047D9
:10F2000008B50021007CFFF797F840EAE07008BDE0
:10F2100008B50121007CFFF78FF840EAE07008BDD7
:10F2200008B5007CFFF77AF820EAE07008BD08B561
:10F23000007CFFF765F820EAE07008BD13B50446CE
:10F24000007C0191FFF76AF80028019901DC607CDD
:10F2500020B1207CFFF77EF820EAE07002B010BDFC
:10F26000007CFFF785B810B504461421FEF755FF62
:10F27000204610BD10B54FF47A73044608460021AD
:10F28000C4E90113044B2074236001231146637405
:10F29000FFF728F8204610BD74FD3F0210B5044664
:10F2A0001422002100F053FB204610BD10B588B099
:10F2B00003A8FFF7F3FF0C4CD4E88F1F11F00101F6
:10F2C0000FD120460191FEF72AFF019948B103AA08
:10F2D0000648FFF7CFFF2046FEF726FF044800F060
:10F2E00023FB024808B010BDE0AE0710E4AE0710E3
:10F2F000F5F33F0270474174704708B5007CFEF794
:10F30000D5FF20EAE07008BD08B5007CFEF788FF55
:10F3100020EAE07008BD08B5007CFEF79DFF40EADA
:10F32000E07008BD08B5007CFEF788FF40EAE07099
:10F3300008BD007CFEF79EBF37B5457C04462DB165
:10F34000207C03B0BDE83040FEF75CBF007C01913B
:10F35000FEF7ACFF00280199F2DC284603B030BD6F
:10F3600010B504461421FEF7D8FE204610BD00005B
:10F3700010B54FF47A730446084611460022C4E9DA
:10F380000123044B2074236001236374FEF79CFF68
:10F39000204610BDA4FD3F02007CFEF779BF00228D
:10F3A00040681146FFF746B8002240681146FFF753
:10F3B00079B8002240681146FFF790B800224068F3
:10F3C000FFF77EB80022406881F00101FFF75CB8CA
:10F3D000002340681A461946FFF748B800234068E2
:10F3E0001A461946FFF734B8002240681146FFF765
:10F3F00005B8002202214068FFF70EB800234068DC
:10F400001A46FEF7EDBF00000422024B5A60024A82
:10F410001A607047F8AE0710D4FD3F020023406821
:10F420001A46FEF7DDBF002202214068FEF7F4BF56
:10F43000002240681146FEF7E1BF002240681146F5
:10F44000FEF7F8BF002340681A461946FFF700B8D8
:10F45000002340681A461946FFF708B800214068A3
:10F46000FFF74AB800214068FFF754B8002240680F
:10F4700081F00101FFF708B800224068FFF720B8CB
:10F48000002240681146FFF729B800224068114663
:10F49000FFF708B82DE9F04395B014460D4607462E
:10F4A000FFF76CFE00211C220DA8009100F04FFA1E
:10F4B000402320460C9300216B460CAAFEF75CFE0D
:10F4C000044600284BD1024601216868FEF7B2FFCE
:10F4D0000221804622466868FEF7ACFF214681463D
:10F4E000009E002E3BD0002939D17368022B03D037
:10F4F0000A2B11D0F669F4E7B8F1000FFAD0716960
:10F5000006A804313C1D07ADFFF766FE0FCD0FC402
:10F510002B6841462370EDE7B9F1000FEAD01022C5
:10F5200001A8746900F013FA062301AD8DF81430B8
:10F5300004F1080318342A4618685968083303C2CE
:10F54000A3421546F7D101A906A83C1D07ADFFF758
:10F5500023FE0FCD0FC42B6849462370CAE70098DD
:10F56000FEF7FCFD384615B0BDE8F083024B034AB8
:10F570001A6000225A60704700AF071010FE3F0269
:10F580007047000038B5142504462A46002100F0D3
:10F59000DEF925804025074928462581258200F08F
:10F5A000AFF804496060284600F0AAF8E060204601
:10F5B00038BD00BF44FE3F027047704710B5044697
:10F5C000FFF7E0FF204610BD10B50446FFF7DAFF55
:10F5D000204610BD10B50446FFF7D4FF204610BDED
:10F5E00030B50E4D87B0D5E88F1F11F0010411D151
:10F5F0002846FEF794FD68B101A8FFF7DFFF21461A
:10F6000001AA0748FFF7B4FE2846FEF78DFD05481E
:10F6100000F08AF9024807B030BD00BF08AF0710FC
:10F6200014AF071079F73F0210B50D4C86B0D4E83F
:10F630008F3FDB0711D42046FEF771FD68B101A8AA
:10F64000FFF7C2FF012101AA0648FFF791FE2046FD
:10F65000FEF76AFD044800F067F9024806B010BDE5
:10F660000CAF071028AF0710B3F73F0210B5FFF734
:10F67000DBFF074B044653B1FFF78EFE38B123681A
:10F6800020461B699847002801DD00E000BF10BD3F
:10F690000000000010B50D4C86B0D4E88F3FDB07AA
:10F6A00011D42046FEF73BFD68B101A8FFF792FF99
:10F6B000022101AA0648FFF75BFE2046FEF734FD53
:10F6C000044800F031F9024806B010BD10AF071031
:10F6D0003CAF0710B1F73F0210B5FFF7DBFF074B58
:10F6E000044653B1FFF758FE38B1236820461B6922
:10F6F0009847002801DD00E000BF10BD00000000B9
:10F70000FEF707BD014900F0F9B800BF60FE3F02F7
:10F710007FB50024102315461268CDE90234036832
:10F72000CDE900449E696B46B0479DF8043003F074
:10F730000603062B05BF009B012020462B6004B06A
:10F7400070BD0098904214BF012006207047000051
:10F75000034B10B50446036000F0CDF8204610BD01
:10F76000A0FE3F0210B50446FFF7F2FF0821204635
:10F77000FEF7D3FC204610BD2DE9F041DDF81880DE
:10F780001F4606461546DDE90834984507D1079916
:10F7900000F0B4F818B165710020BDE8F081394679
:10F7A000304600F0ABF80028F6D00123C4F8008002
:10F7B0002571A371F0E738B515461C4600F09EF898
:10F7C00020B108232560E3600623237138BD73B59B
:10F7D00005460C461E46019200F090F850B9032EE3
:10F7E00008D823682946019A20465B6902B0BDE823
:10F7F0007040184702B070BD034B10B5044603605B
:10F80000FFF7A6FF204610BD00FF3F0210B50446DB
:10F81000FFF7F2FF0C212046FEF77FFC204610BDCB
:10F82000F7B5089F05460E46144697420AD0A868C9
:10F83000314602680897156A2246AC4603B0BDE817
:10F84000F04060471946019300F058F8019B0028EA
:10F85000EDD0062003B0F0BD2DE9F14F0D4619465D
:10F86000814617469846DDE90A4BDDE90CA600F013
:10F8700045F890B1002D3460377109DB61198A4574
:10F880000CBF06210121B171002001B0BDE8F08F4D
:10F890000235F9D10123B371F6E7544506D1594633
:10F8A000484600F02BF808B17771EDE7D9F8080069
:10F8B0003A4629460368CDE90CA6CDE90A4BDC6936
:10F8C0004346A44601B0BDE8F04F60472DE9F04142
:10F8D00007460C4615461E46FFF76DFF48B9B86847
:10F8E0002A46214603689F693346BC46BDE8F0417D
:10F8F0006047BDE8F081704700207047814208B53D
:10F900000ED0406803782A2B0CD049680B782A2B3C
:10F9100008BF0131FEF7CCFBB0FA80F0400908BD0A
:10F920000120FCE70020FAE7002301461A461846AA
:10F9300000F04CB80A44431E914200D1704710B504
:10F9400011F8014B914203F8014FF9D110BD024467
:10F950000346934200D1704703F8011BF9E700000A
:10F9600038B5104B04461D68AB6BB3B91820FEF7D1
:10F970005DFE0246A86320B90B4B42210B48FEF7FF
:10F980007FFE0B490B4BC0E900130B4B002183603A
:10F990000B2383810120C2E90401AB6B00221C61AF
:10F9A0005A6138BD3CAE071039FF3F0250FF3F029D
:10F9B0000E33CDAB34126DE6ECDE0500034611F8D4
:10F9C000012B03F8012B002AF9D170472DE9F843E8
:10F9D000DFF8BC8006461F460D46D8F80000914669
:10F9E00000F058F8264B1C6834B9264C1C60264B96
:10F9F00013B11B68C4F8883063681F2B07DDD8F883
:10FA0000000000F049F84FF0FF30BDE8F8835EB326
:10FA1000D4F8880088B91D4B23B9D8F8000000F04D
:10FA20003AF8F0E74FF48470FEF700FE0028F4D0B7
:10FA30000023C0E94033C4F8880063680122022E25
:10FA400040F8239002FA03F200EB8301D0F8003172
:10FA500043EA0203C0F80031C1F8807002BFD0F859
:10FA600004311343C0F804316368D8F800005A1C0D
:10FA70000233626044F8235000F00EF80020C4E71F
:10FA8000E0AF071054AF07100000000025E83F0268
:10FA9000A0AE07107047704770470000CDE23F02EC
:10FAA000F5E23F02F9E23F02000000000000000022
:10FAB000000000000FE93F0205E93F02FBE83F02BA
:10FAC000F1E83F02E5E83F02D9E83F0255F63F0280
:10FAD0005DF63F02CDE83F02C5E83F02BBE83F02CA
:10FAE000B1E83F028DF63F02000000000000000078
:10FAF000000000000000000005EE3F0229EE3F027A
:10FB000069EE3F0237EE3F0209EE3F0200000000BF
:10FB10000000000079EA3F0275EB3F0201EE3F0270
:10FB200035ED3F02E3F03F02C7ED3F02E3ED3F0258
:10FB3000FFED3F021DF13F0275F03F02A5F03F02CD
:10FB40006170700025592D256D2D25645425483A86
:10FB5000254D3A2553257A0061736374696D6500FC
:10FB6000000000000000000011F33F0201F33F021B
:10FB700003F33F020000000000000000F7F33F0223
:10FB80005FF43F0235F43F0235ED3F0227F43F02B8
:10FB9000F9F33F0209F43F0259F43F0219F43F021E
:10FBA000F1F33F020000000000000000EDF43F020E
:10FBB00059F53F0231F53F0235ED3F0201F53F02B5
:10FBC0001DF53F020FF53F022BF53F02EFF43F0218
:10FBD000F3F43F020000000000000000F5F53F02D2
:10FBE000EBF53F02E1F53F0297F53F02D5F53F0205
:10FBF000C9F53F0255F63F025DF63F02BDF53F02F3
:10FC0000B5F53F02ABF53F02A1F53F028DF63F028D
:10FC1000000000000000000015F63F021FF63F0242
:10FC200029F63F0233F63F023DF63F0249F63F0216
:10FC300055F63F025DF63F0265F63F0271F63F0260
:10FC400079F63F0283F63F028DF63F02005374318E
:10FC5000395F53705F6D616B655F73686172656476
:10FC60005F74616700000000A0FE3F0245FE3F0296
:10FC700000FF3F0274FE3F0224FF3F024E31305F1F
:10FC80005F637878616269763131375F5F636C6199
:10FC900073735F747970655F696E666F450000000D
:10FCA0000000000068FE3F0249F93F025DF93F0293
:10FCB000F1FA3F02F1FA3F02C7F93F0209F93F02A8
:10FCC000AFF93F0271F93F023BF93F0200FF3F02EB
:10FCD000D0FE3F0268FE3F024E31305F5F637878AE
:10FCE000616269763132305F5F73695F636C617343
:10FCF000735F747970655F696E666F450000000020
:10FD000000000000C4FE3F02F1F93F0205FA3F0285
:10FD1000F1FA3F02F1FA3F02C7F93F0209F93F0247
:10FD2000C5FA3F0251FA3F0219FA3F02A0FE3F0214
:10FD30002CFF3F02537439747970655F696E666F8A
:10FD4000005245454E54206D616C6C6F6320737595
:10FD500063636565646564002F6D6E742F776F72E1
:10FD60006B73706163652F776F726B73706163651E
:10FD70002F4743432D31302D706970656C696E6576
:10FD80002F6A656E6B696E732D4743432D31302D9D
:10FD9000706970656C696E652D34385F3230323051
:10FDA000313132345F313630363138303634312FFC
:10FDB0007372632F6E65776C69622F6E65776C69FD
:10FDC000622F6C6962632F7374646C69622F726155
:10FDD0006E642E630000000019E93F0289EB3F02C8
:10FDE00025ED3F0281F13F0291F13F02A5F13F0273
:08FDF00001F63F0265F73F0236
:10FDF8000000000250FD3F0240AE07100000000066
:10FE080000000000000000000000000000000000EA
:10FE180000000000000000000000000000000000DA
:10FE280000000000000000000000000000000000CA
:10FE380000000000000000000000000000000000BA
:10FE480000000000000000000000000000000000AA
:10FE5800000000000000000000000000E4AF0710F0
:04FE68000000000096
:10FFBE000200100000E05F08A8E05F08A0E23F0228
:10FFCE0001000A00FFFFFFFFFFFF00000102030414
:10FFDE0005060708090A0B0C0D0E0F10111213144B
:0EFFEE0015161718191A1B1C1D1E1F203E0089
:04FFFC0078563412ED
:04000005085FE01898
:00000001FF
