:02000004085F93
:1080000000805F08FCFF5F080000060020000501FB
:0880100004017D1500000000D1
:108018001348144908B5884205D0134A824202D051
:10802800124B121A98471248124A0021124B121A80
:10803800984712481249884205D0124A824202D013
:108048000A4B121A984710481049884205D0104A1E
:10805800824202D0054B121A9847014808BD00BF5A
:108068004CAD071068EF5F08C4AD07102D0D111057
:10807800C4AD0710E8AF0710A10E111030913F02F0
:10808800A8805F0838913F0238913F02B0805F08AE
:0C809800F0FF3F0219805F0800000000AC
:0880A8009C805F0890EB3F0291
:1080B00010F8012B11F8013B012A28BF9A42F7D092
:1080C000D01A7047034613F8012B002AFBD1181A67
:1080D0000138704770B504F0ABF80025054E064C2A
:1080E000A41BA408AC4200D170BD56F8043B9847CD
:1080F0000135F7E7CCFF3F02F0FF3F0200F0F8BA8E
:1081000008B500F081F8BDE8084004F049B802F075
:1081100055BA02F053BA02F05FBA02F05DBA00003D
:108120000C2008B5024A034902F05EF8FEE700BFE2
:10813000C1AC3F02A0EB3F020078B0FA80F04009EA
:108140007047012303707047704700000122014B04
:108150001A70704704AE07100122014B1A70704765
:10816000D8AD071010B50446094B036003F0A2F91F
:10817000214603F0D9FB04F0FFFB04F0EFFB20469F
:10818000044B40F8043B03F06BFA204610BD00BFDF
:1081900044ED3F022CED3F0210B50446FFF7E2FF2D
:1081A00020462421FFF7B9FF204610BD0EB44FF042
:1081B000200C002300B58CB00DAA52F8041BCDE9A9
:1081C00004C3CDE900120392016804AA1E2002F044
:1081D00019F80CB05DF804EB03B0704738B50468CB
:1081E00005467CB16368013B63605BB92368204648
:1081F0009B689847A368013BA3601BB9236820468E
:10820000DB689847284638BD30B585B001F022FDBF
:10821000254C2368C01AB0F57A6F1AD32349244835
:10822000FFF7C4FF234BD3E9001291420ED022483E
:10823000521A037812115D1C0570B3FBF2F002FBB9
:1082400010331B01C9581D4801F082FB01F002FDEB
:1082500020601B4B1B78A3B11A4B00221B781A49D4
:108260008DF8003002A83C2304F040F903A8FFF782
:10827000B5FF1248154901F06BFB41F2707003F035
:1082800057FF134B1B7863B10E4B02A81B780022DB
:108290008DF800300F493C2304F028F903A8FFF7BC
:1082A0009DFF05B030BD00BFDCAD0710B5EB3F0250
:1082B0007CAE0710C4AD0710D9AD0710D4AD0710C0
:1082C000D8AD0710D0AD0710C7EB3F02D7EB3F0288
:1082D00004AE0710E2EB3F0270B51426D0E900535C
:1082E000044606FB0356AE4204D0284602F020FCAA
:1082F0001435F8E7206802F06FF9204670BD70B5BC
:108300000446D0E9005305EB8316AE4205D02B6836
:1083100028461B6898474035F7E7206802F05CF96B
:10832000204670BD8842F8B504460D46164616D95B
:10833000904215D2A2F11406751AA1F114072C442B
:10834000B7421CD02CB13146204602F06EFC337C83
:108350002374304602F0ECFB143E143CF0E70ED0E0
:10836000B5420CD02CB12946204602F05EFC2B7C95
:108370002374284602F0DCFB14351434F0E7F8BD12
:1083800000232DE9F041C0E9003383604F680446C3
:108390009F420E4624DD4FF0140808FB07F002F060
:1083A0000DF90546E0B1D4E9001208FB0212FFF70F
:1083B000B9FF206802F010F92560A760D6E90073C4
:1083C00008FB0378B84509D03946284602F047FC37
:1083D0003B7C143505F8043C1437F3E7736863609D
:1083E0002046BDE8F08100006FF078432DE9F74F9B
:1083F0008B46D0E9009A1146AAEB0902B3EB221F83
:1084000080464FEA221402D1264804F0F5FF012CE1
:10841000224638BF0122A418ABEB09061AD2DCB100
:108420009C4228BF1C4620010191FFF770FE0546C3
:108430000199A81901D002F0F8FB28464E46B34531
:1084400000F110070AD010B1314602F008FC38469E
:108450001036F4E71C46E6E72546EAE7564506D01F
:108460003146384602F0FBFB10361037F6E74E4631
:10847000564504D0304602F05BFB1036F8E7B9F100
:10848000000F06D0D8F808104846A1EB0901FFF705
:1084900044FE05EB0414C8E90057C8F8084003B0CF
:1084A000BDE8F08FF0EB3F022DE9FF41294801F0D4
:1084B00041FC064602F0D6F8274902682748FFF734
:1084C00075FE002E3CD0304601F042FC2449827AF1
:1084D00004462248FFF76AFE224DDFF894801F4FC2
:1084E000A37A082B12D1684604F10B0102F06BFB52
:1084F000D5E90103984226D010B1694602F095FBF8
:108500006B6810336B60684602F012FBD5E90032ED
:10851000D21A414612113846FFF748FE304601F0A4
:1085200017FC0446024610493846FFF73FFE002C70
:10853000D6D1304601F01AFC0C490848FFF736FE48
:1085400004B0BDE8F08101466A462846FFF74CFFBB
:10855000D9E700BF0AEC3F020CEC3F027CAE0710EB
:108560001AEC3F02C4AD071034EC3F0246EC3F0268
:1085700028EC3F022DE9F04F0546ADF5057D4F494A
:108580004F48FFF713FE4F4CFFF78EFF4E494C4804
:10859000FFF70CFE6A684D494948FFF707FED4E92A
:1085A0000032D21A4A4946481211DFF83491444F3A
:1085B000DFF830A1FFF7FAFDD4E900481034A4F148
:1085C0001003984512D054F8100C05F0BBF906467C
:1085D0004946384654F8102CFFF7E8FD26B13246DC
:1085E00051463846FFF7E2FD1034E8E7DFF8F8902F
:1085F000DFF8CC80DFF8F4A0D5E9004704EB87175B
:10860000BC4254D0204602F028FC2146064668466B
:1086100002F01CFC49464046009AFFF7C7FD514650
:1086200004A802F0D0FA684604A902F053FB78BB14
:108630006846284902F026FB051E18BF012504A83C
:1086400002F076FA75B340F20161009805F05CF92A
:108650000546024620494046FFF7A8FD6B1C21D085
:108660004FF0000BB34515DAA6EB0B022368B2F509
:10867000007FA8BF4FF4007220461B6A04A99847E8
:10868000021E07DD284604A9934405F063F9E9E7D3
:108690000125D4E7284605F025F92A4640460F492A
:1086A000FFF784FD684602F043FA4034A8E7012052
:1086B0000DF5057DBDE8F04F02F0F1B851EC3F0239
:1086C0007CAE0710C4AD07106CEC3F0280EC3F029B
:1086D00093EC3F02D7EB3F02D5EC3F02DFEC3F02C9
:1086E000ADEC3F02B9EC3F02C3EC3F02D2EC3F02DB
:1086F00030B587B004F040F94FF4E13104F02AF9C5
:10870000002001F0B5FA42F210750446002001F095
:10871000AFFA001B61F10001A84271F1000307D21A
:1087200004F02AF904F01DF910B901F091FEEDE70B
:1087300004F022F904F015F94FF4FA6003F0F8FCA4
:1087400003A802F0A8F9049A27492848FFF72EFD4C
:1087500003A8FFF7D4FD03A802F09DF903A8FFF7D3
:1087600009FF03A8FFF7CBFD21492048FFF71EFDB5
:10877000204800F07EFC3C224FF47F630024114629
:1087800000931D48142300F0C0FF4FF4FA6003F07B
:10879000CFFC4FF47F41174800F023FB4FF4FA6001
:1087A00003F0C6FC0221042004F0F8FC4FF0FF3374
:1087B000022212490094042004F004F92146052005
:1087C00004F0ECFC4FF0FF3301220D49009405202A
:1087D00004F0F8F80B490548FFF7E8FC07B0BDE8DE
:1087E0003040FFF761BE00BFECEC3F027CAE0710EB
:1087F00009ED3F0208AE071014AE0710E1913F02E9
:10880000D5913F0214ED3F0270B50024244B254D55
:108810001C70254B8CB013221221C3E900449C60CC
:1088200028460E2300F0F0F8204BCDE900441D60EF
:10883000029404F0A1F81E4C05462646694603A89A
:10884000FFF79EFD03A906A8FFF79AFD194B06A99D
:1088500046F8043B09A8FFF793FD09AA1E213046FC
:1088600003F044F909A8FFF737FD06A8FFF734FD28
:10887000114B2562236003A8FFF72EFD0F4B2360E9
:1088800004F07AF84FF4165104F064F802F012FE86
:10889000214603F003F86846FFF71EFD0CB070BDDB
:1088A000D0AD071008AE0710C4AD0710D4AD071047
:1088B000E0AD07102CED3F0294FB3F0244ED3F0278
:1088C00013B50446084659B10191FFF7FBFB024678
:1088D000204623680199DB6802B0BDE810401847C4
:1088E00002B010BD034A02F10C015C320160C260AB
:1088F000704700BF54ED3F0210B5036853F80C1CDD
:10890000044B421803F10C045C334450D36010460E
:1089100010BD00BF54ED3F0210B50446054B382191
:1089200003F10C025C330260C360FFF7F6FB2046E4
:1089300010BD00BF54ED3F02D0F800C0ACF10C0CEC
:10894000DCF800C06044E7E770B50446264D274ECA
:1089500051B3D5E88F3FDA0709D42846FFF7ECFB7F
:1089600028B101F007F930602846FFF7EAFB0C2038
:10897000444333681E4A19191C5D1E4B4878002C6D
:1089800018BF1346012289788240052901D00829A1
:1089900004D1596821EA02025A6070BD1968114376
:1089A000196059680A43F7E7D5E88F3FDB0709D418
:1089B0002846FFF7C1FB28B101F0DCF830602846FB
:1089C000FFF7BFFB0C20444333681A19195D507838
:1089D000084B074A002918BF134601221968824034
:1089E00021EA0201DCE700BF4CAE071050AE0710D1
:1089F0000044014800400148C908920842EA811237
:108A0000DB0843EA42107047F8B516468022044658
:108A10000F460C3011461D4600F0C6FD0648277172
:108A200000F10C03236000235C30E0606671204697
:108A3000E3712372A571F8BD54ED3F0213B50A4CE2
:108A4000D4E88F1F11F001010BD120460191FFF7EF
:108A500073FB019928B1054801F072FE2046FFF72B
:108A600070FB024802B010BD40AE071044AE0710C4
:108A70002DE9F84FC3790746894633B9FFF7DEFF82
:108A80004946BDE8F84F01F0FBBE4FF00708584CCF
:108A9000DFF864A1DFF864B13D7AD4E88F3F13F0CA
:108AA000010F544E09D12046FFF746FB28B101F0D3
:108AB00061F830602046FFF744FB326805EB45055E
:108AC00002EB8503587812F82530002B0CBF524674
:108AD0005A4601231168834021EA0301116051685D
:108AE0000B43536049FA08F313F0010FFD7955D099
:108AF000D4E88F3FD90709D42046FFF71DFB28B1E2
:108B000001F038F830602046FFF71BFB326805EBB8
:108B1000450512F8253002EB8501002B0CBF5246AB
:108B20005A460123487889788340052901D00829CD
:108B30002ED1516821EA030353603D7AD4E88F3F78
:108B4000DB0709D42046FFF7F7FA28B101F012F845
:108B500030602046FFF7F5FA306805EB450210F863
:108B6000223000EB8201002B0CBF52465A460123F3
:108B70004D788978AB40052901D0082932D1516858
:108B800021EA0303B8F10108536085D2BDE8F88FEC
:108B900011681943116051680B43CDE7D4E88F3F4A
:108BA000DA0709D42046FFF7C7FA28B100F0E2FF40
:108BB00030602046FFF7C5FA326805EB450502EB49
:108BC0008503587812F82530002B0CBF51465946C2
:108BD00001230A68834022EA03020A604A681343B9
:108BE0004B60AAE711681943116051680B43C9E74C
:108BF0004CAE071050AE0710004001480044014839
:108C000038B504460D4640790021FFF79DFE2079D6
:108C10000021FFF799FE29462046FFF729FF012191
:108C20002079FFF791FE38BD38B504460D464079EE
:108C30000121FFF789FE20790021FFF785FE2946F3
:108C40002046FFF715FF01212079FFF77DFE38BD93
:108C50007F2970B504460E4615461EDC7F2A1CDCB3
:108C60001521FFF7CDFF2046F1B2FFF7DDFF2046CB
:108C70007F21FFF7D9FF20467521FFF7C1FF20466E
:108C8000E9B2FFF7D1FF20467F21FFF7CDFF204655
:108C9000BDE870405C21FFF7B3BF70BD2DE9F8431C
:108CA0007F2906460D4614461F46BDF82080BDF8B4
:108CB000249049D87F2A47D802EB0803802BC8BFED
:108CC000C2F17F0801EB0703C8BF1FFA88F8802BA9
:108CD000C8BFC1F17F07EDB24FF01501C8BFBFB2E9
:108CE000FFF78EFF29463046013DFFF79DFFE9194A
:108CF0003046C9B2FFF798FFE4B275213046FFF75E
:108D00007FFF2146013C30464444FFF78DFFE1B22E
:108D10003046FFF789FF5C213046FFF771FF0024E2
:108D200008FB07F74FEA19255FFA89F9A3B2BB429E
:108D300004F1010408DA29463046FFF775FF494679
:108D40003046FFF771FFF1E7BDE8F8832DE9F04702
:108D500004461F4603680E4653F80C0C1546204483
:108D6000BDF82080BDF8249000F0A8FD032836D877
:108D7000DFE800F0020C19283B462A463146CDE9CF
:108D800008892046BDE8F047FFF788BF23683246D0
:108D900053F80C3C4544234419894346CDE90879EE
:108DA000491B89B2EDE72368454453F80C3C3E4427
:108DB00023445A891989521B3B46CDE90889891BEE
:108DC00092B2EEE723683E4453F80C3C2946234414
:108DD0005A894346921BCDE9087992B2D1E7BDE8A2
:108DE000F08707B580230022019100931146FFF719
:108DF000ADFF03B05DF804FBD0F800C0ACF1300C5F
:108E0000DCF800C06044FFF7ECBF2DE9F3417F2997
:108E100005460C4617461E46BDF820803BDC7F2ADF
:108E200039DCCB18802BC4BFC1F17F0636B2002ECF
:108E300031DB1521E4B2FFF7E3FE2146013C284671
:108E40003444FFF7F1FEE1B22846FFF7EDFE75214D
:108E50002846FFF7D5FEF9B228460191FFF7E4FE58
:108E600028460199FFF7E0FE5C212846FFF7C8FE7F
:108E700000244FEA18275FFA88F8A3B2B34204F13E
:108E8000010408DA39462846FFF7CEFE4146284657
:108E9000FFF7CAFEF1E702B0BDE8F0812DE9F3412A
:108EA0007F2905460F4614461E46BDF820803BDC50
:108EB0007F2A39DCD318802BC4BFC2F17F0636B2BB
:108EC000002E31DB1521FFF79BFEF9B228460191F8
:108ED000FFF7AAFE28460199FFF7A6FEE4B2752126
:108EE0002846FFF78DFE2146013C28463444FFF713
:108EF0009BFEE1B22846FFF797FE5C212846FFF76C
:108F00007FFE00244FEA18275FFA88F8A3B2B34225
:108F100004F1010408DA39462846FFF785FE414688
:108F20002846FFF781FEF1E702B0BDE8F081F7B512
:108F3000044616460268019352F80C0C0D46204474
:108F4000BDF8207000F0BAFC019B032835D8DFE89B
:108F500000F0020B1B29324629460897204603B031
:108F6000BDE8F040FFF79ABF22681E4452F80C0C8F
:108F70002A46204401890897891B09B2204603B07C
:108F8000BDE8F040FFF741BFE94322681E4452F8B4
:108F90000C0C204442890589921B2944089712B27F
:108FA00009B2DBE7ED432268314652F80C2C22442B
:108FB000528908972A4412B2E0E703B0F0BDD0F816
:108FC00000C0ACF1200CDCF800C06044FFF7AFBF7C
:108FD000F7B5044615460268019352F80C0C0E468C
:108FE0002044BDF8207000F069FC019B032835D8AF
:108FF000DFE800F0020B1B292A463146089720467D
:1090000003B0BDE8F040FFF700BF2268E94352F823
:109010000C2C2244158932462944089709B220466F
:1090200003B0BDE8F040FFF739BF22681E4452F894
:109030000C0CEA432044458901892A44891B08977E
:1090400012B209B2DBE722681E4452F80C2C294602
:10905000224452890897921B12B2E0E703B0F0BD98
:10906000D0F800C0ACF1240CDCF800C06044FFF77D
:10907000AFBF10B504460121407904F08FF8207A83
:10908000002800F0DA80012104F088F80121E0795D
:1090900004F084F80121207904F080F8207900217F
:1090A00004F08DF8A079D0B1012104F077F8012106
:1090B000A07904F084F84FF4FA7003F039F8002135
:1090C000A07904F07CF84FF4FA7003F031F8A0793D
:1090D000012104F074F84FF4FA7003F029F82046E7
:1090E000FD21FFF78DFD20461221FFF79DFD204653
:1090F000FD21FFF785FD2046B121FFF795FD2046B4
:10910000AE21FFF77DFD2046B321FFF779FD204614
:10911000F121FFF775FD2046CA21FFF771FD2046BA
:109120007F21FFF781FD2046A021FFF769FD204642
:109130007421FFF779FD20461521FFF761FD2046D8
:109140000021FFF771FD20467F21FFF76DFD2046CE
:109150007521FFF755FD20460021FFF765FD2046EC
:109160007F21FFF761FD2046A121FFF749FD204641
:109170000021FFF759FD2046A221FFF741FD2046BF
:109180000021FFF751FD2046B521FFF739FD2046AC
:109190000021FFF749FD2046AB21FFF731FD2046B6
:1091A0000121FFF741FD2046B121FFF729FD2046AF
:1091B0003221FFF725FD2046BE21FFF721FD204685
:1091C0000521FFF71DFD2046A621FFF719FD2046CA
:1091D000C121FFF715FD2046C821FFF725FD2046D8
:1091E0008021FFF721FD2046C821FFF71DFD204605
:1091F000C721FFF705FD20460F21FFF715FD20468B
:10920000B421FFF7FDFC2046A021FFF70DFD20460D
:10921000B521FFF709FD20465521FFF705FD204642
:10922000B621FFF7EDFC20460121FFF7FDFC2046AB
:10923000BDE81040AF21FFF7E3BCFFF7FFFB01F0F3
:1092400089FAFFF7FBFB102101F0F4FAFFF7F6FBB8
:10925000032101F093FA1DE7F8B504461F460368A1
:109260000D4653F80C0C1646204400F027FB02284C
:109270002CD0032837D0012808D1F24323682E468A
:1092800053F80C3C23441B891A4415B2ABB27F2B14
:109290001BD8B3B27F2B18D8324629462046FFF799
:1092A000D7FC01216079FFF74FFB00212079FFF700
:1092B0004BFB2046390AFFF7DBFB2046F9B2FFF7EC
:1092C000D7FB01212079FFF73FFBF8BDED43F643C3
:1092D000236853F80C3C234419895A890D441644D9
:1092E0002DB236B2D2E7E9432368354653F80C3C39
:1092F00023445B8919440EB2C8E7D0F800C0ACF132
:10930000180CDCF800C06044FFF7A6BF0A680260D2
:10931000496852F80C2C815070472DE9F04F1F46D8
:1093200085B0BDF93880A7EB010AA8EB0209B9F1B5
:10933000000FB8BFC9F10009BAF1000FB8BFCAF1F8
:10934000000AD14583460C461546BDF83C3004DD85
:109350003A462C4647460D469046BC4205DD2A4615
:109360004546904622463C4617463E1BB2B2009206
:10937000A8EB050282EAE271A1EBE271C6F3C0320A
:1093800002FA86F64545B4BF01224FF0FF32019143
:1093900076100292BC421CDCDBF80020D145D2F8EA
:1093A0001080C7BF294622462A46214603935846C5
:1093B000C047019A039BB61AB1B236B2002E05DA45
:1093C000029A1544009A2DB2561836B2013424B2CE
:1093D000E0E705B0BDE8F08F2DE9F34704461646F7
:1093E0008A461D46BDF82C800768BDF92890CDF847
:1093F0000080FF69B847236809F1FF32CDF800808B
:10940000324451462046DF6912B22B46B8472368E2
:10941000CDF800803246514620469F694B46B847FA
:109420006B1E03EB0A012368CDF828809D69324644
:109430004B462046AC4609B202B0BDE8F047604753
:1094400037B5013BBDF81850134404681BB20093B4
:1094500001950B466469A04703B030BD37B5BDF830
:1094600018500468CDE90025013B0B4464691BB228
:10947000A04703B030BD2DE9F347054692460C46A0
:10948000BDF92890BDF82C80CE18B4420BDA2B68B9
:10949000CDF8008021469F6952464B46284601344C
:1094A000B84724B2F1E702B0BDE8F08713B50191E7
:1094B000B0F90E1002680091546A0022B0F90C3025
:1094C0001146A04702B010BD70470A292DE9FF419F
:1094D00004460D460CD1436A027E5978438A01FB4B
:1094E0000233638200232382012004B0BDE8F081AF
:1094F0000D29F9D0027E03680292C28A0192828A03
:1095000000921E6BB0F912200B46B0F91010B04754
:10951000E37E94F91D70ED1A636A002F03EB850258
:1095200013F82560557815DDE28AA38A934211D09D
:10953000237E0192218A15FB03F206FB03112068AA
:1095400012B20092D0F824807B432046B4F9122056
:1095500009B2C04794F91D30277E9919238A94F8DF
:10956000282001FB07331BB22382002ABCD0B4F9A8
:109570000C2006FB17229342B6DD638A05FB0733F6
:10958000AFE700000423064A837642620122054BBE
:10959000427703621A78C2765B780377704700BF20
:1095A0001AF63F0220EE3F024281C2814FF0FF32A5
:1095B00038B5426100240122064D01818181446059
:1095C000042105600461028380F82820FFF7DAFF98
:1095D00038BD00BFECED3F022DE9F04F1C468DB0C9
:1095E0009DF8583083460993BDF95C3003270A93F0
:1095F000BDF8603008920493A3B2C3F10105C3EB38
:10960000C3335B001BB2079300230693099B2AB266
:1096100003F001030B938BB203920593069BA342C5
:1096200070DA039B002B0ADB079B013C02331AB262
:109630000792039A24B212FA83F52BB20393069B86
:1096400001331FFA83FA1BB20693039B3B441BB200
:1096500003930B9B3BB30498BDF828800090DBF884
:109660000000BDF820900599A6B2806908F10103B9
:1096700003EB4603A9EB0602514405461BB25846CC
:1096800012B209B2A847059904983144DBF800608A
:10969000009008EB0703A9EB0A025846B6691BB213
:1096A00012B209B2B047099B9B0728D50498BDF8B0
:1096B00028900090DBF80000BDF820800599A6B244
:1096C000806909F1010303EB4603A8EB0602A1EB55
:1096D0000A0105461BB2584612B209B2A8470599BD
:1096E0000498891BDBF80060009009EB0703A8EBE6
:1096F0000A025846B6691BB212B209B2B047023725
:10970000BFB28BE70DB0BDE8F08F2DE9F0431546F1
:1097100085B0BDF830809AB2CDF800801E46530067
:1097200003F1010C0368AA1AD3F8189012B20FFAC9
:109730008CF304460F46C847032300223946CDE97F
:109740000032204633462A46CDF80880FFF744FF12
:1097500005B0BDE8F0832DE9F04F2DED028B89B007
:109760009046BDF8502082460492BDF85420002552
:109770000592C27E9DF858709A4263D8047F9C423D
:1097800060D39B1ADBB2BAF90C208A4240F3848082
:10979000BAF90E2042457FDDDAF824409A0007929C
:1097A00004EB830214F8233003FB0713002B73DD53
:1097B000537803FB0783002B6EDD53888CB2023392
:1097C0009BB2029300230393BBB20693DAF82430D2
:1097D000079A9DF90C6013445B789E425CDA069B05
:1097E0004FF00009734313FA88F31BB208EE103AE6
:1097F000464436B2DAF8242007984FFA89F1125C11
:109800005FFA89F3914243DA5A0707D1029B029823
:10981000DAF8202001339BB2155C02932B0623D586
:10982000012FDAF8002089B20ED1D2F810B0049BD3
:1098300021443246504609B2D8476D00EDB209F1D5
:109840000109D7E72B469EE706983BB210FB01F1D2
:1098500004982144CDE9003009B2D2F824B0504632
:1098600018EE102AD847E8E7DDE904239342E4D054
:10987000012FDAF8002089B203D1D2F810B02144C8
:10988000D7E706983BB210FB01F105982144E1E7C8
:10989000039B0133039399E709B0BDEC028BBDE84C
:1098A000F08F70B4BDF80C40BDF810509DF81460F6
:1098B0000394CDE9045670BCFFF74DBF407E70475E
:1098C000B0F90C007047B0F90E0070470EB44FF0BD
:1098D000200C002300B58CB00DAA52F8041BCDE972
:1098E00004C3CDE900120392016804AA322000F0FB
:1098F00089FC0CB05DF804EB03B0704707B508466F
:1099000002220DF1060104F013F80549024605484C
:10991000FEF74CFCBDF8060003B05DF804FB00BF89
:109920001AFA3F027CAE071007B5042208460DEB79
:10993000020103F0FDFF044902460448FEF736FC2D
:10994000019803B05DF804FB2AFA3F027CAE0710D1
:109950002DE9F04F0D460A469FB0744904467448FD
:10996000FEF724FC0021284603F0CEFF054600F058
:1099700079FE704902686E48FEF718FC6B1C06D130
:109980006D496B48FFF7A2FF1FB0BDE8F08F4FF4A1
:109990007A6002F0CDFB29462046FFF7AFFF44F680
:1099A0004253984240F0BD8029462046FFF7BCFF55
:1099B00001220421284603F09DFF29462046FFF797
:1099C000B3FF294680462046FFF7AEFF29462046D2
:1099D000FFF7AAFF294607462046FFF7A5FF2946BD
:1099E00006462046FFF78AFF0128824640F099800C
:1099F00029462046FFF782FF8146294620465FFA26
:109A000089F9FFF791FFB9F1180F40F08A8000281B
:109A100040F087807B1C03EB430323F00303019397
:109A20002368002E1A68B8BF039052F80C0CB8BF18
:109A300076421844A8BFCDF80CA00497FFF740FF6A
:109A4000B84207DA23681A6852F80C0C1844FFF77A
:109A500037FF049023681A6852F80C0C1844FFF77B
:109A600032FFB04252DA23681A6852F80C0C1844DC
:109A7000FFF729FF05904FF00009019B013E03FB12
:109A800006830293059B4B454BDD4A460021206827
:109A9000FFF7DEF8DDE9021300222846934208BFF3
:109AA000414603F027FF4FF0000A6027049B53450F
:109AB0002EDD5F2F05D96022284606A903F038FF66
:109AC0000027D4F800B07A1C1EA850FA82F2DBF806
:109AD0000000B91C00681EAB06461EA83B4450FAA5
:109AE00081F113F8603C12F8602C11F8601C5846A4
:109AF000FEF782FF033703460FFA8AF158460FFA42
:109B000089F2B047FFB20AF1010ACFE70596B2E742
:109B1000DDE90132D31A0293019B09F1010998444E
:109B2000B0E7284603F0DEFE2EE700BF3AFA3F0218
:109B30007CAE071048FA3F025BFA3F0209B50448C1
:109B40000068044B03441B689B68029309BD000036
:109B50004CAD07105000000009B504480068044BE4
:109B600003441B68DB68029309BD00004CAD07107D
:109B70005000000009B504480068044B03441B680A
:109B80001B68029309BD00004CAD071014000000D3
:109B900009B504480068044B03441B689B680293A2
:109BA00009BD00004CAD07101400000009B50448C1
:109BB0000068044B03441B68DB68029309BD000086
:109BC0004CAD07101400000009B504480068044BB0
:109BD00003441B681B69029309BD00004CAD0710CC
:109BE0001400000009B504480068044B03441B68D6
:109BF0009B69029309BD00004CAD071014000000E2
:109C000009B504480068044B03441B68DB690293F0
:109C100009BD00004CAD07101400000009B5044850
:109C20000068044B03441B685B68029309BD000095
:109C30004CAD07100000000009B504480068044B53
:109C400003441B68DB68029309BD00004CAD07109C
:109C50000000000009B504480068044B03441B6879
:109C60005B69029309BD00004CAD071000000000C5
:109C700009B504480068044B03441B68DB6D02937C
:109C800009BD00004CAD07100000000009B50448F4
:109C90000068044B03441B681B68029309BD000065
:109CA0004CAD07106400000009B504480068044B7F
:109CB00003441B685B68029309BD00004CAD0710AC
:109CC0006400000009B504480068044B03441B68A5
:109CD0009B68029309BD00004CAD071064000000B2
:109CE00009B504480068044B03441B68DB68029311
:109CF00009BD00004CAD07106400000009B5044820
:109D00000068044B03441B681B6A029309BD0000F2
:109D10004CAD07106400000009B504480068044B0E
:109D200003441B681B6B029309BD00004CAD071078
:109D30006400000009B504480068044B03441B6834
:109D4000DB6B029309BD00004CAD071064000000FE
:109D500009B504480068044B03441B681B6C02935C
:109D600009BD00004CAD07106400000009B50448AF
:109D70000068044B03441B685B6D029309BD00003F
:109D80004CAD07106400000009B504480068044B9E
:109D900003441B685B6C029309BD00004CAD0710C7
:109DA0003000000009B504480068044B03441B68F8
:109DB0009B6C029309BD00004CAD07103000000001
:109DC00009B504480068044B03441B68DB6C02932C
:109DD00009BD00004CAD07103000000009B5044873
:109DE0000068044B03441B685B6D029309BD0000CF
:109DF0004CAD07103000000009B504480068044B62
:109E000003441B685B69029309BD00004CAD071059
:109E10004C00000009B504480068044B03441B686B
:109E20009B68029309BD00004CAD071024000000A0
:109E300009B504480068044B03441B68DB680293BF
:109E400009BD00004CAD07102400000009B504480E
:109E50000068044B03441B681B69029309BD0000A2
:109E60004CAD07102400000009B504480068044BFD
:109E700003441B685B69029309BD00004CAD0710E9
:109E80002400000009B504480068044B03441B6823
:109E90009B69029309BD00004CAD0710240000002F
:109EA00009B504480068044B03441B68DB6902934E
:109EB00009BD00004CAD07102400000009B504489E
:109EC0000068044B03441B681B6A029309BD000031
:109ED0004CAD07102400000009B504480068044B8D
:109EE00003441B689B6A029309BD00004CAD071038
:109EF0002400000009B504480068044B03441B68B3
:109F0000DB6A029309BD00004CAD0710240000007D
:109F100009B504480068044B03441B681B6C02939A
:109F200009BD00004CAD07102400000009B504482D
:109F30000068044B03441B681B6A029309BD0000C0
:109F40004CAD07101000000009B504480068044B30
:109F500003441B685B6A029309BD00004CAD071007
:109F60001000000009B504480068044B03441B6856
:109F70009B6A029309BD00004CAD07101000000061
:109F800009B504480068044B03441B68DB6A02936C
:109F900009BD00004CAD07101000000009B50448D1
:109FA0000068044B03441B681B6B029309BD00004F
:109FB0004CAD07101000000009B504480068044BC0
:109FC00003441B685B6B029309BD00004CAD071096
:109FD0001000000009B504480068044B03441B68E6
:109FE0001B6C029309BD00004CAD0710100000006F
:109FF00009B504480068044B03441B681B680293BE
:10A0000009BD00004CAD07101800000009B5044858
:10A010000068044B03441B68DB68029309BD000021
:10A020004CAD07101800000009B504480068044B47
:10A0300003441B681B69029309BD00004CAD071067
:10A040001800000009B504480068044B03441B686D
:10A050005B69029309BD00004CAD071018000000B9
:10A0600009B504480068044B03441B68DB6902938C
:10A0700009BD00004CAD07101800000009B50448E8
:10A080000068044B03441B681B6A029309BD00006F
:10A090004CAD07101800000009B504480068044BD7
:10A0A00003441B685B6A029309BD00004CAD0710B6
:10A0B0001800000009B504480068044B03441B68FD
:10A0C0001B6C029309BD00004CAD07101800000086
:10A0D00009B504480068044B03441B685B6C029399
:10A0E00009BD00004CAD07101800000009B5044878
:10A0F0000068044B03441B681B68029309BD000001
:10A100004CAD07103400000009B504480068044B4A
:10A1100003441B685B68029309BD00004CAD071047
:10A120003400000009B504480068044B03441B6870
:10A130009B68029309BD00004CAD0710340000007D
:10A1400009B504480068044B03441B681B6902936B
:10A1500009BD00004CAD07103400000009B50448EB
:10A160000068044B03441B685B69029309BD00004F
:10A170004CAD07103400000009B504480068044BDA
:10A1800003441B689B69029309BD00004CAD071096
:10A190003400000009B504480068044B03441B6800
:10A1A000DB69029309BD00004CAD071034000000CC
:10A1B00009B504480068044B03441B681B6A0293FA
:10A1C00009BD00004CAD07103400000009B504487B
:10A1D0000068044B03441B689B6A029309BD00009E
:10A1E0004CAD07103400000009B504480068044B6A
:10A1F00003441B685B6B029309BD00004CAD071064
:10A200004800000009B504480068044B03441B687B
:10A210005B6D029309BD00004CAD071048000000C3
:10A2200009B504480068044B03441B68DB6E0293C5
:10A2300009BD00004CAD07104800000009B50448F6
:10A240000068044B03441B681B6F029309BD0000A8
:10A250004CAD07104800000009B504480068044BE5
:10A2600003441B685B68029309BD00004CAD0710F6
:10A270000800000009B504480068044B03441B684B
:10A280005B69029309BD00004CAD07100800000097
:10A2900009B504480068044B03441B68DB6C029357
:10A2A00009BD00004CAD07100800000009B50448C6
:10A2B0000068044B03441B685B6D029309BD0000FA
:10A2C0004CAD07100800000009B504480068044BB5
:10A2D00003441B68D3F88830029309BD4CAD0710C6
:10A2E0000800000009B504480068044B03441B68DB
:10A2F000D3F89430029309BD4CAD0710080000005C
:10A3000009B504480068044B03441B685B6802936A
:10A3100009BD00004CAD07102800000009B5044835
:10A320000068044B03441B689B68029309BD00004E
:10A330004CAD07102800000009B504480068044B24
:10A3400003441B68DB68029309BD00004CAD071095
:10A350002800000009B504480068044B03441B684A
:10A360001B69029309BD00004CAD071028000000D6
:10A3700009B504480068044B03441B685B690293F9
:10A3800009BD00004CAD07102800000009B50448C5
:10A390000068044B03441B689B69029309BD0000DD
:10A3A0004CAD07102800000009B504480068044BB4
:10A3B00003441B68DB69029309BD00004CAD071024
:10A3C0002800000009B504480068044B03441B68DA
:10A3D0001B6A029309BD00004CAD07102800000065
:10A3E00009B504480068044B03441B681B6B0293C7
:10A3F00009BD00004CAD07102800000009B5044855
:10A400000068044B03441B685B6B029309BD0000AA
:10A410004CAD07102800000009B504480068044B43
:10A4200003441B681B6C029309BD00004CAD071070
:10A430002800000009B504480068044B03441B6869
:10A440005B6C029309BD00004CAD071028000000B2
:10A4500009B504480068044B03441B689B680293D9
:10A4600009BD00004CAD07102C00000009B50448E0
:10A470000068044B03441B685B69029309BD00003C
:10A480004CAD07102C00000009B504480068044BCF
:10A4900003441B681B6A029309BD00004CAD071002
:10A4A0002C00000009B504480068044B03441B68F5
:10A4B000DB6B029309BD00004CAD07102C000000BF
:10A4C00009B504480068044B03441B685B680293A9
:10A4D00009BD00004CAD07107400000009B5044828
:10A4E0000068044B03441B689B68029309BD00008D
:10A4F0004CAD07107400000009B504480068044B17
:10A5000003441B68DB68029309BD00004CAD0710D3
:10A510007400000009B504480068044B03441B683C
:10A520001B69029309BD00004CAD071074000000C8
:10A5300009B504480068044B03441B685B69029337
:10A5400009BD00004CAD07107400000009B50448B7
:10A550000068044B03441B689B69029309BD00001B
:10A560004CAD07107400000009B504480068044BA6
:10A5700003441B68DB69029309BD00004CAD071062
:10A580007400000009B504480068044B03441B68CC
:10A590001B6A029309BD00004CAD07107400000057
:10A5A00009B504480068044B03441B689B6A029386
:10A5B00009BD00004CAD07107400000009B5044847
:10A5C0000068044B03441B681B68029309BD00002C
:10A5D0004CAD07100400000009B504480068044BA6
:10A5E00003441B685B68029309BD00004CAD071073
:10A5F0000400000009B504480068044B03441B68CC
:10A600009B68029309BD00004CAD071004000000D8
:10A6100009B504480068044B03441B685B6A029355
:10A6200009BD00004CAD07100400000009B5044846
:10A630000068044B03441B68DB6A029309BD0000F9
:10A640004CAD07100400000009B504480068044B35
:10A6500003441B681B6B029309BD00004CAD07103F
:10A660000400000009B504480068044B03441B685B
:10A67000DB6B029309BD00004CAD07100400000025
:10A6800009B504480068044B03441B681B6C029323
:10A6900009BD00004CAD07100400000009B50448D6
:10A6A0000068044B03441B685B6C029309BD000007
:10A6B0004CAD071004000000002240681146FFF76F
:10A6C00081BE002240681146FFF798BE0022406814
:10A6D000FFF786BE0022406881F00101FFF764BEEB
:10A6E000002340681A461946FFF750BE0023406811
:10A6F0001A461946FFF73CBE002240681146FFF794
:10A7000029BE002240681146FFF708BE0022022140
:10A710004068FFF711BE002340681A46FFF7F0BDFE
:10A720000322024B5A60024A1A60704754AE071067
:10A730006CFA3F020021FFF7CBBC0021FFF7BABC47
:10A7400010B5044608462170FFF78AFC0023204616
:10A75000636010BD13B504460078FFF7EEFF58B9EB
:10A7600020784FF6FF710190FFF742FC019802B08C
:10A77000BDE81040FFF7DEBF02B010BD13B50446C0
:10A7800000780191FFF7D9FF019948B9207801902D
:10A79000FFF73CFC019802B0BDE81040FFF7CABFCC
:10A7A00002B010BD30B50024400818601868E5B24A
:10A7B000884206D90134082C02D040081860F5E719
:10A7C0000725024B5B5D137030BD00BFA0FA3F024E
:10A7D00000232DE9F041044688B000780E46174664
:10A7E0000293FFF7AAFF054600BB0146142203A807
:10A7F00094F8008002F04DFF0B232A46404603A93F
:10A80000ADF80C30FFF748FC07FB06F1049802ABEB
:10A810000DF107028DF80750FFF7C4FF20789DF86F
:10A820000710FFF701FC2078FFF784FF029808B0BB
:10A83000BDE8F08138B5044600780D46FFF77DFF8E
:10A840000346D0B9616899B10C4A12F8010B8542F0
:10A8500002D00133082BF8D10133DBB201222046AC
:10A86000D940FFF7B5FF2078BDE83840FFF762BF59
:10A8700029462078FFF7D8FBF5E738BDA0FA3F025C
:10A8800008B50078FFF7DEFBC0B208BD10B58368DD
:10A89000044613B1032201469847204610BD002804
:10A8A0004FF0000114BF01200220FFF725BE10B5B4
:10A8B0000446006808B1FDF72EFC204610BDF7B530
:10A8C000002704460D46C0E90071C9B10846FDF7EE
:10A8D00020FC064638B16B1E0133ACBF2A463A460F
:10A8E000394602F0D6FE002320680193266008B1A5
:10A8F000FDF711FC01A8FFF7DAFF236803B96360D5
:10A90000204603B0F0BD000038B50D4604464B6844
:10A910001031436051F8083C836051F8043CC36037
:10A92000134B40F8103B00F09AF995F8203004F1F1
:10A93000240084F82030A96AFFF7C1FFA26A2AB177
:10A94000AB6A1BB1696A606A02F07CFEEB6AE36283
:10A950002B6B236395F8343084F83430AB6BA363EE
:10A96000EB6BE36313B15A6801325A60204638BD7D
:10A97000D4FA3F028842F8B506460C46154615D96A
:10A98000904214D2A2F140056B1AA1F140071E4477
:10A99000AF421AD01EB129463046FFF7B5FF2B68EB
:10A9A00028461B689847403D403EF1E70DD0AC4239
:10A9B0000BD01EB121463046FFF7A6FF2368204684
:10A9C0001B68984740344036F1E7F8BD70B50E1E5D
:10A9D000054611DDB001FFF7F1FD044658B1D5E998
:10A9E000001201EB8212FFF7C5FF2868FFF7F4FDA4
:10A9F00001202C60AE6070BD0024F6E738B50F4B27
:10AA0000C46B054603607CB16368013B63605BB95E
:10AA1000236820469B689847A368013BA3601BB945
:10AA200023682046DB68984705F12400FFF73FFFC5
:10AA300005F1100000F07CF8284638BDD4FA3F023A
:10AA400030B5044691B045686846FFF75DFFD4E92C
:10AA5000011399420FDA2368626803EB85152946D2
:10AA600003EB821205F14000FFF784FF75B96368BC
:10AA70000133636005E020460131FFF7A7FF00289E
:10AA8000E9D16846FFF7BAFF11B030BD69462846E4
:10AA9000FFF73AFFEBE770B500241C2698B021467B
:10AAA000C0E9004484603246054601A802F0F1FD89
:10AAB000214601A8ADF80460FFF702FD0446C0B9C5
:10AAC000BDF81C30A34210D9069BBDF80C1008A895
:10AAD00004FB013100F00EFA284608A9FFF7B0FF89
:10AAE00008A8FFF78BFF0134EAE7002101A8FFF770
:10AAF000F5FC284618B070BD10B50446FFF77EFF80
:10AB000020464021FDF709FB204610BD022200200F
:10AB1000044B1A60044B054AC3E900009A60FFF732
:10AB20009BBB00BF68AE07105CAE07100000FFFFC4
:10AB300010B504460068FFF74FFD204610BD10B564
:10AB40000446006808B1FFF747FD0023C4E901335C
:10AB5000236010BD38B504460D4600680131FFF78B
:10AB600049FD10B1C4E90005012038BD10B50368E6
:10AB7000044623B143688B4201D3012010BD204617
:10AB8000FFF7E8FF0028F9D0A368002BF5D1226871
:10AB90001370F2E737B50D46114601920446FFF7F0
:10ABA000E5FF019A28B92046FFF7C9FF204603B008
:10ABB00030BD2946A260206802F044FD00212268D1
:10ABC000A368D154F2E7002313B50446C0E900336B
:10ABD0008360037341B108460191FDF773FA01994F
:10ABE00002462046FFF7D6FF204602B010BD38B51A
:10ABF000054600680C4670B16A688B689A4208D3B3
:10AC0000096831B102F093FDA368AB600023A36033
:10AC100038BDFFF7E1FC23682B6063686B60A368B5
:10AC2000AB600023C4E90033F1E7002310B504460C
:10AC3000C0E9003383600373FFF7D9FF204610BDDE
:10AC4000884210B5044605D00B682BB18A681946B6
:10AC5000FFF7A0FF204610BDFFF771FFFAE70023C2
:10AC600010B50446C0E9003383600373FFF7E8FFC3
:10AC7000204610BD884210B5044601D0FFF7B7FF4B
:10AC8000204610BD08B582683AB921B10878B0FAFB
:10AC900080F0400900E0012008BD006809B9007893
:10ACA000F5E7FDF705FAF2E7134610B58A68846800
:10ACB000A41A9C420AD3006838B1096841B118440B
:10ACC00002F05BFDB0FA80F0400910BD0020FCE707
:10ACD0000846FAE782688B689A4202D30022FFF79F
:10ACE000E3BF0020704710B543680446013B436052
:10ACF00063B903689B689847A368013BA3602BB9BD
:10AD000023682046BDE81040DB68184710BD70B5C9
:10AD10000446D0E9005305EB0316AE4204D02846A2
:10AD2000FFF706FF1035F8E72068FFF755FC2046CF
:10AD300070BD13B56C460B460246D0E9000184E8AD
:10AD4000030093E8030082E8030094E8030083E82B
:10AD5000030002B010BD0000002302480360FFF7AB
:10AD600013B800BF6CAE0710F8B506460D460024B8
:10AD70008F18BD420CD0336830469B6815F8011B14
:10AD80009847031E01DB1C44F3E7002C08BF1C4658
:10AD90002046F8BD03689B6818470023012A98BF26
:10ADA0000A2230B58BB08DF8243009AC0D46B1FBCA
:10ADB000F2F101FB125303F0FF03092B94BF303370
:10ADC0003733DBB2AA4204F8013DEFD92146FDF743
:10ADD00077FD0BB030BD07B5036801221B6A0DF18A
:10ADE00007019847012808BF9DF8070003B05DF8E8
:10ADF00004FB07B5036801225B6A0DF10701984760
:10AE0000012808BF9DF8070003B05DF804FB7047F8
:10AE10000020704770470000064B10B5994200F1C2
:10AE20000C0405D0084602F0EDFA002808BF002403
:10AE3000204610BDA8FA3F0210B504461021FDF7C8
:10AE40006CF9204610BD1021FDF767B910B5044616
:10AE50001031FFF704FF204610BDC06A70478369B8
:10AE600043B190F92030013304D0806A003818BF14
:10AE7000012070470020704710B50446006810B1EB
:10AE80000021FFF78DFB204610BD0C30FFF7F4BF0B
:10AE900038B504460D464968FFF711FD62682AB1CE
:10AEA0006B681BB12968206802F0CCFB204638BDD6
:10AEB000FF2373B5154604460E4600F8043B0021F7
:10AEC000FFF7FDFC95B97368202B0FD1314668461A
:10AED000FFF7DEFF009A63686260019A0093A3683F
:10AEE0006846A2600193FFF7E2FC2570204602B09D
:10AEF00070BD0000F0B54FF47A7300260746C0E934
:10AF00000163314B044647F8103B89B00D46384683
:10AF10002E49FFF758FEFF23314684F8203004F114
:10AF20002400FFF7CCFCC4E90B66C4E90E6684F884
:10AF30003460002D45D0296849B104A8FFF743FECD
:10AF4000384604A9FFF796FE04A8FFF7F1FD6E68E6
:10AF5000002E31D02A89002A2ED0114602A895F958
:10AF60000A700192FFF7ABFC029818B13146019AC2
:10AF700002F068FB3A4602A904A8FFF799FF02A86D
:10AF8000FFF795FC9DF81030002184F8203002A8CE
:10AF9000FFF795FC029B05990593039B069A069380
:10AFA000636A02A80293A36A6162A2620393FFF735
:10AFB0007EFC05A8FFF77BFCEB6803B1E3622B691D
:10AFC0002363204609B0F0BDD4FA3F025AFB3F028A
:10AFD00070B58AB004460E46FFF741FF00284ED0F8
:10AFE000A36B13B11B68002B3CD194F83450002D97
:10AFF00048D1E36A002B48D02369CDE90755059372
:10B00000636A2A460693A36A6846ADF81C3094F832
:10B01000203005A9009509958DF81E30FFF77AFAC2
:10B0200000282ADBE6B110200195FDF770F830B159
:10B030000123C0E90133164B0360009BC36000236A
:10B04000CDE90133A36B039300F10C03A363E36B1E
:10B05000E06304A80493FDF7C1F802A8FDF7BEF869
:10B06000A16B09B1002008E00098FFF799FA002EC3
:10B07000F8D0A36B002BF5D106480AB070BD6FF075
:10B08000D100FAE76FF0C800F7E76FF0BE00F4E711
:10B09000B8FA3F02FCFEFFFF70B50C4601210646E0
:10B0A0001546FFF795FF00280BDB4CB145B1B06B9F
:10B0B0002A462146BDE8704000230068FFF754BAD5
:10B0C000004870BDF2FEFFFF38B50C460121054671
:10B0D000FFF77EFF002807DBAB6B214618680022D4
:10B0E000BDE83840FFF74EBA38BD07B5036842687F
:10B0F000009300230360436001A80192FDF76EF8FE
:10B1000003B05DF804FB38B501210546FFF760FF89
:10B11000044628B9AB6B01461868FFF709FA0446E4
:10B1200014F1C90F09D195F8343033B905F138005D
:10B13000FFF7DBFF012385F8343024EAE47038BDE3
:10B140002DE9F0418846012107461546FFF740FFEB
:10B15000041E1BDBB8F1000F20D0FDB10026B86B38
:10B1600000232A46006808EB0601FFF7EFF9041EEA
:10B170000FDC14F1C90F06D107F13800FFF7B5FF56
:10B18000012387F83430002E18BF34462046BDE82E
:10B19000F0812D1B2644E2D13446F7E7004CF5E759
:10B1A000F2FEFFFF80680368DB68184770470846B7
:10B1B00011B10B685B68184770477047704770475C
:10B1C000704738B504460D4600682E2102F0A5FAF6
:10B1D0002368C31A2B6023B1037803B101302368BD
:10B1E0002060184638BD10B504460C21FCF795FFC9
:10B1F000204610BD10B504460421FCF78EFF204602
:10B2000010BD10B504460421FCF787FF204610BD91
:10B21000FEF7D6BD08B5FCF74BFFB0FA80F0400949
:10B2200008BD704710B50C4601F0A6FB844205D15D
:10B2300001F0A2FBBDE8104001F090BB02F008F85D
:10B24000844205D102F004F8BDE8104001F03BBC97
:10B250002CB123682046BDE810405B68184710BD3C
:10B260000B6803604B68436013B15A6801325A603F
:10B27000704713B5044608460191FCF723FF0246C8
:10B280002046019902B0BDE8104001F039BF13B566
:10B29000044608460191FCF715FF02462046236844
:10B2A0000199DB6802B0BDE81040184707B5036894
:10B2B0008DF807100122DB680DF10701984703B0F4
:10B2C0005DF804FB0A6810B502604A68426000221B
:10B2D000C0E9022202618C688A608460CC68CA601E
:10B2E000C4600C690A61046110BD00002DE9F74FCC
:10B2F0004FF0140AD0E90084174645460AFB04F4CF
:10B300000093174BA4105C43002C21DD66100AFB50
:10B3100006F005EB0009B9F804B03A465F4528BFCE
:10B320005A462858019102F028FA00284FF00103EC
:10B3300001990BD15F4503D1009A13703446E3E7BE
:10B34000FCD9A61B09F11405013EF7E7F9DBF5E787
:10B35000A5EB08050248AD10684303B0BDE8F08FC7
:10B36000CDCCCCCC7FB50369057E019103B3F9B197
:10B37000002600F10C04039603A901A8FFF721FFA2
:10B380000146A8B10DF10B032046039A8DF80B601E
:10B39000FFF7ACFF9DF80B3053B12368142404FB76
:10B3A0000034B4F906300834002BA8BFDDB2E3E75F
:10B3B000284604B070BD0EB4F0B58CB000AF07F1F4
:10B3C000440555F8042B04462B46202107F11000B4
:10B3D0007A60FD60FFF71CF91F287A681AD900F11E
:10B3E000080323F007036E46ADEB030D411C2B460B
:10B3F0006846FD60FFF70CF9021E04DD236869460C
:10B400002046DB689847B5463037BD46BDE8F0407A
:10B4100003B070470028F7D023680246DB68204657
:10B4200007F110019847EFE710B5084CD4E88F3FBB
:10B43000DB0709D42046FCF77FFE28B12046FCF745
:10B4400080FE034802F0F0F8024810BD74AE071009
:10B4500043C23F0250AD071010B5084CD4E88F3FEF
:10B46000DB0709D42046FCF767FE28B12046FCF72D
:10B4700068FE034802F0D8F8024810BD78AE071005
:10B48000ABC23F0254AD071038B500250446C0E9F1
:10B490000055C0E904558560856140F8245FFEF7DA
:10B4A00073FCFFF7C1FFE061FFF7D6FF2573206251
:10B4B000204638BD10B50A4CD4E88F3FDB070CD4CA
:10B4C0002046FCF739FE40B10648FFF7DDFF204675
:10B4D000FCF737FE044802F0A7F8024810BD00BF91
:10B4E00070AE071080AE07108DCA3F020023024ADB
:10B4F00002490348FEF7A2BE75C83F0201C83F02D9
:10B5000081C73F0200231A4619461846FEF796BE29
:10B5100037B504468D686846FFF7A2FE6A4629469D
:10B52000204601F00DFD01A8FCF758FE204603B0AF
:10B5300030BD37B50446CD686846FFF791FE6A46D0
:10B540002946204601F0D8FC01A8FCF747FE20461A
:10B5500003B030BD37B504460D696846FFF780FE7D
:10B560006A462946204601F070FC01A8FCF736FE29
:10B57000204603B030BD000070B58AB00D460146CC
:10B5800004A8FFF7C5FF144E04A801F0F1FCE8B1D0
:10B59000684604A9FFF7CDFF31460298FFF73AFE4F
:10B5A000044610B12C1E18BF012401A8FCF716FE9A
:10B5B000002CE9D0684604A9FFF7CCFF684601F0EB
:10B5C0007AFC286001A8FCF709FEDDE705A8FCF776
:10B5D00005FE0AB070BD00BF00FB3F0237B50C4648
:10B5E000134920461546FCF763FD50B901F0C4F934
:10B5F0004FF4165101F0AEF903B0BDE8304001F050
:10B60000BBB920460B49FCF753FD78B94FF41653EC
:10B6100001A928460193FFF7AFFF01F019FE019938
:10B6200001F04EFA01F014FE03B030BD0020FBE73C
:10B6300005FB3F020CFB3F0270B51426D0E9005316
:10B64000044606FB0356AE4205D005F10800FFF79D
:10B65000F3FF1435F7E72068FEF7BEFF204670BD04
:10B6600010B504460C30FFF7E7FF2046FFF74FFB0D
:10B67000204610BD10B50446034B40F8043BFFF7CD
:10B68000EFFF204610BD00BF2CED3F0210B5044671
:10B69000FFF7F0FF20462421FCF73FFD204610BDB8
:10B6A00010B50446024B0360FFF7E4FF204610BDCF
:10B6B000ACFB3F0210B50446FFF7F2FF2046242101
:10B6C000FCF72BFD204610BD0022C0E9002282605D
:10B6D00010B50C680A6004604C684A6044608C686D
:10B6E0008A60846010BD10B5044603681868FEF7D0
:10B6F00075FB204610BD00002DE9F04F87B0039385
:10B700001C4B80465B688946C3F3080316466BB939
:10B71000FFF7D0FE044600F12403406A0593FFF7CB
:10B7200077FD237B2BB105A8FFF7DDFF07B0BDE850
:10B73000F08F01235FFA89F92373D4E9005305EBF5
:10B74000830AAA4512D055F8047B3146381DFFF70D
:10B7500009FE8145F5D3039A3B680092D3F808B0FF
:10B760004A46334641463846D847EAE70023237322
:10B77000D9E700BF00ED00E02DE9F74F9B461A4BDB
:10B7800080465B688946C3F3080316466BB9FFF72A
:10B7900091FE044600F12403406A0193FFF738FD4F
:10B7A000237B2BB101A8FFF79EFF03B0BDE8F08F0C
:10B7B0000123F6B22373D4E9005305EB830A554500
:10B7C0000ED055F8047B5946381DFFF7CBFD864255
:10B7D000F5D33B684A4641463846DB689847EEE772
:10B7E00000232373DEE700BF00ED00E02DE9F34105
:10B7F000164B05465B680F46C3F308031BBBFFF7F8
:10B8000059FE044600F12403406A0193FFF700FD4E
:10B81000D4E90063462406EB8308B04509D101A8AA
:10B82000FFF761FFA542B4BF0020012002B0BDE8D0
:10B83000F08156F8040B39460430FFF793FD84423B
:10B84000A8BF0446E9E70020F0E700BF00ED00E0F4
:10B85000F8B5D0E901539D4204460E460DDB6F1C3E
:10B86000002F006804DDB900FEF7C4FE18B9F8BD6A
:10B87000FEF7B2FE00202060A7602768626807EB31
:10B8800085019200A2EB8502081D01F0E8FE47F851
:10B8900025606368012001336360E8E737B504463B
:10B8A00000F12403406A01930D46FFF7B1FCD4E98F
:10B8B000003203EB8202934219460AD0096804332E
:10B8C000A942F8D101A8FFF70EFF0025284603B0D2
:10B8D00030BD29462046FFF7BBFF05460028F1D0C2
:10B8E0006368012B01D1FFF701FE01A8FFF7FBFE02
:10B8F000ECE70B4670B50446D0E9000200EB82028B
:10B9000082420FD001461D6851F8046BAE4207D148
:10B91000521A01F0A4FE01206368013B636070BD10
:10B920000846EDE70020FAE71FB5044600F12403BE
:10B93000406A01910393FFF76BFC204601A9FFF7D2
:10B94000D8FF18B163680BB9FFF7DCFD03A8FFF758
:10B95000CAFE04B010BD182370B50446D0E90456E1
:10B9600003FB0656AE4215D0204605F11001FFF745
:10B97000C0FF63680BB9FFF7C5FDE069296903687B
:10B98000DB689847696919B1206A0368DB689847E2
:10B990001835E7E71826D4E9045306FB0356AE42F0
:10B9A00004D02846FFF7C4F81835F8E70023636190
:10B9B00070BD73B50446FFF7A5FD04F12403606A6A
:10B9C0000193FFF725FC2046FFF7C5FF01A8FFF70D
:10B9D0008AFE606A08B1FEF7E5F9D4E90453182637
:10B9E00006FB0356AE4204D02846FFF7A1F81835EF
:10B9F000F8E72069FEF7F0FD2068FEF7EDFD204630
:10BA000002B070BD0148FFF7D4BF00BF80AE071081
:10BA10008842F8B504460D46164615D9904214D210
:10BA2000A2F11406751AA1F114072C44B7421AD0DA
:10BA30001CB131462046FFF745FC06F10800FFF730
:10BA4000FBFD143E143CF1E70DD0B5420BD01CB108
:10BA500029462046FFF736FC05F10800FFF7ECFD0C
:10BA600014351434F1E7F8BD8842F8B504460D46A4
:10BA7000164614D9904213D2A2F11006751AA1F1FC
:10BA800010072C44B74218D01CB131462046FFF7AE
:10BA9000CCF83046FFF74CF8103E103CF2E70CD0E3
:10BAA000B5420AD01CB129462046FFF7BEF8284609
:10BAB000FFF73EF810351034F2E7F8BD70B50E1EF2
:10BAC000054611DD3001FEF779FD044658B1D5E990
:10BAD000001201EB0212FFF7C7FF2868FEF77CFD9A
:10BAE00001202C60AE6070BD0024F6E72DE9F04F18
:10BAF00090460023462295B00391D8F804100446DE
:10BB00009942C0E90033C0E90233C0E90433CDE90A
:10BB1000083302760A9323DCD8E90057142303FB89
:10BB20000757AF423BD029460BA8FFF77EF80BA979
:10BB30000FA8099EFFF779F8DDE9091399421BDA8E
:10BB4000089B099A03EB0616314603EB021206F135
:10BB50001000FFF789FFEEB9099B0133099311E04B
:10BB600008A8FFF7ABFF0028D6D108A8FFF7CFF849
:10BB7000204615B0BDE8F08F013108A8FFF79EFF01
:10BB80000028DDD10FA8FEF7D3FF0BA8FEF7D0FFEA
:10BB90001435C6E730460FA9FFF747F8DCE7002663
:10BBA0004FF01409CDE90B660D96DDE908239E429E
:10BBB0007CDA3301D35806930BB90136F5E700233D
:10BBC000079309FB06F30BAD029307A906A8FFF73D
:10BBD000F8FA82460028F0D04FF0000301468DF8B5
:10BBE00017302846079A0DF11703FFF77FFB9DF8E2
:10BBF00017700190002F4AD1BDF81C30CDE91177A4
:10BC0000ADF840304FF6FF73CDF83CA0ADF84230B0
:10BC10001397D5E90132934217DB03F1010ABAF118
:10BC2000000F30DD09FB0AF0FEF7C8FC834660B365
:10BC3000D5E9001209FB0212FFF7EAFE2868FEF7B9
:10BC4000CBFCC5F800B0C5F808A02B68019A09FB29
:10BC5000023A6A68514609FB02320AF11400FFF702
:10BC6000D7FEBAF1000F03D050460FA9FFF72AFB09
:10BC70006B6801336B6011A8FFF7DEFC3FB10BA8C6
:10BC8000FFF7DAFC71E7BB46D8E70127F3E7019B32
:10BC90002D6809FB0355069B1B782BB9D8F800309B
:10BCA000029A13441B7CEB8008358EE721682260E2
:10BCB00062686360A36809920A9A0A93E368A260C3
:10BCC0000B9A0B932369E2600C9A0C9363692261CF
:10BCD0000D9A0D93039B089162612376CFE70000D4
:10BCE000F0B504462646174687B00D466846194605
:10BCF000FCF746FB0B4B694646F8043B03A8FCF7F0
:10BD00003FFB394603AA3046FFF7F0FE03A8FCF7D5
:10BD1000E3FA6846FCF7E0FA2046034B256223600D
:10BD200007B0F0BD2CED3F0294FB3F02F0B50F468B
:10BD300085B038461C4916461D460A9CFCF7B8F9E2
:10BD4000C0B9A4B1294601A8FFF7BEFC24201749B9
:10BD500001F04EFB054630B101AB32462146FFF7FC
:10BD6000BFFF134B2B6001A8FCF7B6FA2C46204608
:10BD700005B0F0BD38460F49FCF79AF990B9002C90
:10BD8000F5D0294601A8FFF79FFC2420074901F0C0
:10BD90002FFB05460028E6D03246214601ABFFF7CF
:10BDA0009FFFE0E70024E2E714FB3F0241FD3F0272
:10BDB000ACFB3F0218FB3F02014B024A1A6070477E
:10BDC0007CAE071029FB3F022DE9F047089DD0F813
:10BDD000209004460E461746984600F0CDFD81455A
:10BDE0004DD02B79190704D520466A695449FFF7CD
:10BDF000E2FAB8F1000F0DD05B212046FFF756FAAA
:10BE000041462046FFF743FA236802222046DB68BA
:10BE10004C4998472B79DA0724D5D5F808802F218B
:10BE2000404601F0BEFC08B100F101084146204641
:10BE3000FFF72DFA2B799B0708D53A212046FFF70B
:10BE400035FA2046EA684049FFF7B5FA2A792368AF
:10BE500012F0040F20464FF00202DB6814BF3B498A
:10BE60003B4998472B7958071DD529690B461A4637
:10BE700013F8010B60B1202808D11946F7E73548BF
:10BE800000F0FBFE0028ACD0BDE8F0872828EED1FA
:10BE90002368521A2046DB6898472368042220460C
:10BEA000DB682D49984700213846FEF7B9F901466D
:10BEB0002046FFF7ECF9236802222046DB6824497C
:10BEC00098471EB131462046FFF7E1F92B7913F070
:10BED000300F2CD023682149DB6802222046984786
:10BEE0002B79D9060AD52368072220461C49DB682E
:10BEF00098472046AA691B49FFF75DFA2B799A06F5
:10BF000011D5DB0605D5236802222046DB680F49E0
:10BF100098472368204614490A22DB689847204640
:10BF2000E969FFF7B4F95D212046FFF7BFF92368FF
:10BF30002046BDE8F0470222DB680C49184700BFE5
:10BF40002DFB3F0234FB3F0243EC3F0237FB3F0235
:10BF50003CFB3F02E4AE07103AFB3F023FFB3F02CF
:10BF600042FB3F024AFB3F024DFB3F0258FB3F02B0
:10BF70002DE9F0410446076A0D46164600F0FCFC28
:10BF8000874207D0206A324603682946BDE8F0415F
:10BF9000DB681847034800F070FE0028F2D0BDE8C7
:10BFA000F08100BFE4AE07102DE9F04385B0D0F872
:10BFB000209005460F4690461E460C9C00F0DCFC87
:10BFC000814505D1494800F058FE002840F08A809C
:10BFD0004FF000092B6A464A01A8019203938DF89D
:10BFE000089000F0EEFF49464046FEF719F98046FA
:10BFF0004049012201A801F073F84146FFF739F9E1
:10C000003FB13D49012201A801F06AF83946FFF726
:10C0100030F93EB13949012201A801F061F83146F9
:10C02000FFF727F92379DF070ED5A6682F213046C1
:10C0300001F0B7FB00B1461C3149012201A801F013
:10C040004FF83146FFF715F923799E0707D52D499B
:10C05000022201A801F044F8E16800F0BFFF237953
:10C06000580714D5266933461F4613F8012B2AB109
:10C07000202A01D11E46F7E7282AF5D102222249BB
:10C0800001A801F02DF83146BA1B01F039F82379E7
:10C09000190707D51D49012201A801F021F861699E
:10C0A00000F0AEFF2379DA0608D5042218490DEB1B
:10C0B000020001F015F8A16900F090FF23799B06BA
:10C0C00007D51449062201A801F00AF8E169FFF733
:10C0D000D0F801A800F05FFF286A022203680E4929
:10C0E000DB68984705B0BDE8F08300BFE4AE0710F9
:10C0F0007CFB3F020AFB3F025BFB3F02C7FE3F02A5
:10C100005DFB3F025FFB3F0262FB3F026AEC3F02C6
:10C1100065FB3F026AFB3F0258FB3F02024B1A6875
:10C12000024B1A60704700BF58AD0710A8AE071049
:10C130000021FEF79FB800000022014B9A60704773
:10C14000ACAE0710014B1860704700BF5CAD071024
:10C1500008B50F4B43B100F00FFC03681B6998470B
:10C16000002801DD00E000BF0A4B43B101F070F888
:10C1700003681B699847002801DD00E000BF064BFB
:10C180000BB101F0ABF8054B0BB101F0DDF808BDC8
:10C19000000000000000000000000000000000009F
:10C1A00008B5FFF7D5FFFDF755FD014B186008BD39
:10C1B00034AF07100548064A08B5121A054901F0C0
:10C1C00041FA054B054A1A6008BD00BF00B40710CC
:10C1D00004B40710E0EF5F0800B407101E1C279A94
:10C1E000002307B51A466FF077010093FEF77AF83F
:10C1F00003B05DF804FB000007B543880A2B08D0A4
:10C20000502B0BD1094B1B684BB103B05DF804EB0D
:10C210001847FFF7E5FF03B05DF804FB00231A465B
:10C220006FF077010093FEF75DF8F4E7C0AE0710FA
:10C23000002110B51148FEF731FA114B1A68114B65
:10C240009A420CBF012200220F4B1A7001D0FFF757
:10C25000B1FFFDF7E3FC044601F024FA0B4B13B1E8
:10C26000204600E000BF00210848FEF71BF9BDE8AA
:10C27000104000210648FEF727B800BFCDD13F028D
:10C2800000B407101E1C279ABCAE07100000000067
:10C2900081D23F0270470020704710B5044610213C
:10C2A000FBF73BFF204610BD08B5FFF7F6FF08BDC2
:10C2B000002230B54FF69C74026084808D888C809B
:10C2C0000C68858004600A6030BD10B504460068C3
:10C2D000FEF782F9204610BD38B5C46814B3237840
:10C2E000DBB2022B03D104F10C00FFF7EEFF231D9C
:10C2F0001D6835B12846FEF7C9FA10212846FBF71C
:10C300000CFF04F108031D6835B12846FEF7BEFA9C
:10C3100010212846FBF701FF2046BDE838401421D4
:10C32000FBF7FBBE38BD0B6803604B68436013B17D
:10C330005A6801325A60704737B5044668460D4660
:10C34000FFF7F1FF009B019A23600023626001A8C0
:10C3500001930093FBF742FF35B1281DFBF73EFF29
:10C3600008212846FBF7D9FE204603B030BD82687D
:10C3700010B50AB901F043F8C368BDE8104018478A
:10C3800008B5006800F11001FFF7F1FF08BD8268F1
:10C3900010B50AB901F033F8C368BDE8104018477A
:10C3A00008B5006800F11001FFF7F1FF08BD0000BB
:10C3B00038B500230446036010200D46FBF7A7FEA6
:10C3C00028B10123C0E90133024BC560036020603E
:10C3D000204638BD10FC3F0238B5002383608B68CF
:10C3E00004460D462BB102229847EB68E360AB6828
:10C3F000A360204638BD0000F0B589B004686846E7
:10C40000FFF756FF4FF00203D4E84F2F002A03D165
:10C41000C4E8413F0029F7D121D104F10C05694658
:10C420002846FFF745FF0122631CC3E88F2F002039
:10C4300004F10803D3E8EF6FC3E8E20F002AF9D153
:10C440006EB1FDF725FF78B129463046FFF78FFF23
:10C450003046FEF71BFA10213046FBF75EFE6846B9
:10C46000FFF733FF09B0F0BD314602A8FFF7B4FF74
:10C47000E068B4F9105008B101F062F9069010209C
:10C48000ADF81C50FBF743FE0546E8B10027876076
:10C490001820FBF73CFE044688B10146876002A8DD
:10C4A000FEF747FC049BA268A360059B0492E26828
:10C4B00006A9E36004F110000592FFF7F9FE084BAE
:10C4C0002C60EB60074BAB6006A8FFF7FEFE02A8EE
:10C4D000FEF7DCF9002229460348FDF7E7FEB7E73F
:10C4E00009D43F0285D63F025BDB3F022DE9F04FC6
:10C4F0008BB005460F46904699469DF850A0FDF733
:10C50000B5FF07AE834638BB4FF62E73059005A9DD
:10C510003046ADF81830FFF7CBFE1420FBF7F7FDDF
:10C52000044648B1022303700123C0E901BB4370F4
:10C5300031460C30FFF7BCFE2846214640F8044B3C
:10C54000FFF736FF3046FFF7C0FE05A8FFF7BDFE38
:10C5500028460BB0BDE8F08F0C2300241420CDE951
:10C5600008440793FBF7D3FD014618B1C0E9014425
:10C570000470447004A80391FFF71AFF1E4B0820B3
:10C580000893FBF7C4FD044610B103A9FFF7CBFEE7
:10C590004A464146384600965FFA8AF30994FDF709
:10C5A00073FFB8B9039B01331B78DBB293B90593D2
:10C5B0004FF69C7305A903A8ADF81830FFF71CFFD0
:10C5C00005A8FFF782FE05A80999FFF7B5FE06A8A2
:10C5D000FBF704FE03A905A8FFF7A5FE059B069A35
:10C5E0002B6000236A6006A806930593FBF7F6FD0F
:10C5F00004A8FBF7F3FDABE701D73F02012AF8B52A
:10C60000054603D10B6803600020F8BD022A10D054
:10C61000032AF9D10468002CF6D004F11000FFF7CA
:10C6200054FE2046FEF732F918212046FBF775FD2F
:10C63000EAE718200E68FBF76AFD044650B1314660
:10C64000FFF7CAFE3069B6F9147008B101F078F846
:10C650002061A7822C60D7E738B5002383608B6800
:10C6600004460D462BB102229847EB68E360AB68A5
:10C67000A360204638BD0000F0B5044689B00D46E1
:10C6800001A81146FFF758FEA4B124B21DB12846F7
:10C6900001F056F8054601A803A90395ADF810402E
:10C6A000FFF7AAFE03A8FFF710FE02A8FBF796FD0E
:10C6B00009B0F0BD0123019DD5E84F2F002A03D119
:10C6C000C5E8413F0029F7D1EFD12B730122EB18C8
:10C6D000C3E88F2F2B1DD3E8EF6FC3E8E24F002A8A
:10C6E000F9D1002EE1D02046FDF7D2FD074660B11A
:10C6F000304605F10C01FFF74AFE3046FEF7C6F85A
:10C7000010213046FBF709FDCFE7314603A8FFF7BC
:10C71000A3FF2B7B10208DF81C30FBF7F8FC05469F
:10C72000D0B187601420FBF7F2FC044678B10146D3
:10C73000876003A8FEF7FDFA059BA268A360069B2D
:10C740000592E268E3609DF81C3006922374074B63
:10C750002C60EB60064BAB6003A8FEF797F8002255
:10C7600029460448FDF7A2FDC7E700BF29D43F02D0
:10C7700001D83F025BDB3F02012A70B5044603D1BA
:10C780000B680360002070BD022A0CD0032AF9D187
:10C790000468002CF6D02046FEF778F814212046D5
:10C7A000FBF7BBFCEEE714200E68FBF7B0FC054678
:10C7B00020B13146FFF750FF337C2B742560E1E751
:10C7C000704710B504461821FBF7A7FC204610BDA2
:10C7D000F0B5037D0E46062B4FF000048DB000F13E
:10C7E000040712D000F1080515F8011D0A22304691
:10C7F000FEF7D3FAAF42044419D0002CF4D02E2116
:10C800003046FEF7C7FA0444EEE72F236A4639465E
:10C810000A208DF80040FDF7EFFA6846FBF752FC5E
:10C820003368024669463046DB689847044620462E
:10C830000DB0F0BD10B50446044B1122002140F8A4
:10C84000043B00F026FF204610BD00BF2CFC3F0239
:10C850000346074A10B543F8042B01F1100251F8C2
:10C86000044B914243F8044BF9D10A781A7010BD79
:10C870002CFC3F0210B59DF8084044EA032343EA2C
:10C880000242042342EA01614160037510BD0000C9
:10C8900007B5064B0360CB7800938B784A7809780C
:10C8A000FFF7E8FF03B05DF804FB00BF2CFC3F027C
:10C8B000417470477047704708B50021007CFDF750
:10C8C0005BFC40EAE07008BD08B50121007CFDF783
:10C8D00053FC40EAE07008BD08B5007CFDF73EFC63
:10C8E00020EAE07008BD08B5007CFDF729FC20EACD
:10C8F000E07008BD13B50446007C0191FDF72EFCE5
:10C900000028019901DC607C20B1207CFDF742FC0D
:10C9100020EAE07002B010BD007CFDF749BC10B504
:10C9200004461421FBF7F9FB204610BD10B54FF467
:10C930007A73044608460021C4E90113044B2074AD
:10C940002360012311466374FDF7D0FB204610BD20
:10C9500040FC3F020022007CFDF7D6BB007CFDF7C7
:10C96000E1BB007CFDF732BC10B504461422002167
:10C9700000F08FFE204610BD10B588B003A8FFF769
:10C98000F3FF0C4CD4E88F1F11F001010FD12046AA
:10C990000191FBF7D1FB019948B103AA0648FFF7C3
:10C9A000C5FF2046FBF7CDFB044800F03DFE0248E2
:10C9B00008B010BDC4AE0710C8AE07103DD93F0285
:10C9C000004700002DE9FF411D4600240F46904618
:10C9D0000646FDF715F90423A5428DF80830A8BFD7
:10C9E0009DF82830CDF80940A4BF02AC8DF80A307C
:10C9F0003A464346304606490094A8BF8DF8095090
:10CA0000FDF7F0F8B0FA80F0400904B0BDE8F0811D
:10CA100049DA3F0270474174704708B5007CFDF762
:10CA20005BFA20EAE07008BD08B5007CFDF70EFA5D
:10CA300020EAE07008BD08B5007CFDF723FA40EA63
:10CA4000E07008BD08B5007CFDF70EFA40EAE07022
:10CA500008BD007CFDF724BA37B5457C04462DB1EE
:10CA6000207C03B0BDE83040FDF7E2B9007C0191C5
:10CA7000FDF732FA00280199F2DC284603B030BDF8
:10CA800010B504461421FBF748FB204610BD0000FA
:10CA900010B54FF47A730446084611460022C4E9E3
:10CAA0000123044B2074236001236374FDF730FAE3
:10CAB000204610BD70FC3F020023007CFDF71ABA2F
:10CAC0000022FFF7F9BF007CFDF7A4B9007CFDF759
:10CAD000F5B910B5836804460BB900F090FCC36843
:10CAE0009847A3681BB10322214620469847204659
:10CAF000BDE810401021FBF710BB7047F8B50646A3
:10CB000015460C468F18BC4206D0336830469B68E9
:10CB100014F8011B9847F6E72846F8BD0022007C70
:10CB2000FDF704BA0021007CFDF70EBA0021007C5D
:10CB3000FDF718BA0021007CFDF722BA0021007C25
:10CB4000FDF72CBA10B504461421FBF7E6FA20468F
:10CB500010BD000038B5044615464FF47A73002224
:10CB6000C4E90123094B0846217423602946FDF7D7
:10CB700031FABF3008D16B69DB0705D56868FDF76E
:10CB80002BFDE868FDF728FD204638BDA0FC3F02DC
:10CB9000002240681146FDF7DDBB002240681146C7
:10CBA000FDF710BC002240681146FDF727BC0022AB
:10CBB0004068FDF715BC0022406881F00101FDF7D7
:10CBC000F3BB002340681A461946FDF7DFBB00237C
:10CBD00040681A461946FDF7CBBB00224068114653
:10CBE000FDF79CBB002202214068FDF7A5BB002396
:10CBF00040681A46FDF784BB0422024B5A60024A81
:10CC00001A607047DCAE0710C8FC3F020023406882
:10CC10001A46FDF775BB002202214068FDF78CBB68
:10CC2000002240681146FDF779BB0022406811469A
:10CC3000FDF790BB002340681A461946FDF798BBE4
:10CC4000002340681A461946FDF7A0BB0021406842
:10CC5000FDF7E2BB00214068FDF7ECBB0022406815
:10CC600081F00101FDF7A0BB00224068FDF7B8BBD1
:10CC7000002240681146FDF7C1BB00224068114602
:10CC8000FDF7A0BB2DE9F04395B014460D460746CD
:10CC9000FFF7D0FD00211C220DA8009100F0F9FC47
:10CCA000402320460C9300216B460CAAFCF754FF4E
:10CCB000044600284BD1024601216868FDF74AFB73
:10CCC0000221804622466868FDF744FB21468146E2
:10CCD000009E002E3BD0002939D17368022B03D06F
:10CCE0000A2B11D0F669F4E7B8F1000FFAD0716998
:10CCF00006A804313C1D07ADFFF7CAFD0FCD0FC4D8
:10CD00002B6841462370EDE7B9F1000FEAD01022FD
:10CD100001A8746900F0BDFC062301AD8DF8143044
:10CD200004F1080318342A4618685968083303C206
:10CD3000A3421546F7D101A906A83C1D07ADFFF790
:10CD400087FD0FCD0FC42B6849462370CAE70098B2
:10CD5000FCF7F4FE384615B0BDE8F083024B034AF9
:10CD60001A6000225A607047E4AE071004FD3F02CB
:10CD7000012200F1100313F8101C1846012908D1F4
:10CD800053F8041C02EB4102013A03F11003F2D103
:10CD90007047022904BF53F8041C5218F4E70EB47C
:10CDA000F0B588B0102100AF07F1340555F8042B19
:10CDB00004462B4678187A60FD60FDF729FC0F28A1
:10CDC0007A681AD900F1080323F007036E46ADEB29
:10CDD000030D411C2B466846FD60FDF719FC021E41
:10CDE00004DD2368694620469B689847B54620378E
:10CDF000BD46BDE8F04003B070470028F7D0236877
:10CE000002469B68204607F110019847EFE738B5C6
:10CE10000B68044603604D6843689D4208D015B115
:10CE20006B6801336B60606808B1FDF75CFF65609B
:10CE300038BD07B503688DF8071001229B680DF116
:10CE40000701984703B05DF804FB0B46114600222A
:10CE500010B50446C0E9002283600BB9204610BD1E
:10CE6000FFF7D5FFFAE78368EBB11A78032A1AD8DF
:10CE7000DFE802F00417021B0520704702685B68B8
:10CE80005268D05C2D2812D0A0F13003092B0ED9A6
:10CE900074280ED066280CD0A0F16E035842584179
:10CEA0007047062070470020704704207047032019
:10CEB00070470220704710B50446FFF7D4FF0228E0
:10CEC0000ED0C31EDBB2012B14D82268A3685068B1
:10CED0005B680A22BDE810400021184400F0F8BC4D
:10CEE0002268A36852685B68D05CA0F17403584262
:10CEF000584110BD0020FCE738B500230446C0E9C6
:10CF000000330E48C4E90203A9B10B78032B06D005
:10CF10008BB9136858684B68C35C6E2B07D01368D5
:10CF20004D6858688B6828445B1BA060E36011461D
:10CF30002046FFF76CFF204638BD00BF5AFB3F027A
:10CF400038B500250B4604461146C0E90055C0E936
:10CF50000255C0E904554BB11A78012A06D103F1F4
:10CF60001002DB6882604361FFF751FF204638BD45
:10CF700010B54369044663B18068013BE06010303E
:10CF8000A0602061636113B1FFF7F2FEA060012091
:10CF900000E0184610BD10B57D210446FFF749FF9B
:10CFA00001232046237110BD08B50379012B02D05F
:10CFB000022B04D008BD2C21FFF73BFFFAE73A21F2
:10CFC000FAE710B50446FFF7EFFF20467B21FFF795
:10CFD00030FF00232046237110BD000013B5044626
:10CFE0000191FFF7E1FF23682046DB68019A0349BE
:10CFF000984701232046237102B010BD43EC3F0245
:10D0000013B504460191FFF7CFFF23682046DB6884
:10D01000019A0349984701232046237102B010BDAD
:10D0200038FD3F022DE9F0470D4690462221044687
:10D030002F46FFF7FEFEDFF8A490A8444745BA4606
:10D040003DD017F8016B222E06D05C2E04D030465E
:10D0500000F0F0FA0028F1D12368294620469B68A9
:10D06000AAEB050298475C212046FFF7E2FE0D2E51
:10D070000AD8072E1CD9A6F10803052B18D8DFE81B
:10D0800003F00D0F11171315222E01D05C2E0FD1B6
:10D0900031462046FFF7CDFE3D46CFE76221F8E757
:10D0A0007421F6E76E21F4E76621F2E77221F0E7DA
:10D0B0002368324649462046DB689847ECE7BD4284
:10D0C00005D02368294620469B687A1B9847222171
:10D0D0002046FFF7AEFEBDE8F08700BF3BFD3F02F4
:10D0E00013B50446CDE90021FFF75EFFDDE900211D
:10D0F0002046FFF797FF02232046237102B010BDA0
:10D1000013B50446CDE90021FFF74EFFDDE900210C
:10D110002046FFF787FF01232046237102B010BD90
:10D120001B2837B5044602D9002003B030BDA0F15A
:10D130000F03022B0BD9012821D800F035F900216B
:10D14000007CFCF739FF80F00100C0B2EDE7114D23
:10D15000D5E88F1F11F001010BD128460191FAF794
:10D16000EBFF019928B10C48FDF7EAFA2846FAF7D7
:10D17000E8FF094B1878FCF781FF0028D4D1083C60
:10D18000012C05D800F064F8007CFCF797FEDAE784
:10D190000120CAE740AE071044AE07101B2838B57F
:10D1A00004460D460AD8FF2908D0FFF7B9FF28B179
:10D1B00029462046BDE83840FCF7EABC38BD38B502
:10D1C00004460D46FCF7F2FCFF2810D0062804D8D0
:10D1D0004D2323FA00F0C30709D42046FFF7A0FF30
:10D1E00028B129462046BDE83840FCF7EDBC38BDE3
:10D1F0007047000038B5142504462A46002100F087
:10D2000048FA25804025074928462581258200F0D7
:10D21000F1F804496060284600F0ECF8E060204630
:10D2200038BD00BF41FD3F027047704710B504464E
:10D23000FFF7E0FF204610BD10B50446FFF7DAFF08
:10D24000204610BD10B50446FFF7D4FF204610BDA0
:10D2500030B50E4D87B0D5E88F1F11F0010411D104
:10D260002846FAF769FF68B101A8FFF7DFFF2146FA
:10D2700001AA0748FFF70CFC2846FAF762FF0548A9
:10D2800000F0D2F9024807B030BD00BFECAE071085
:10D29000F8AE071079E23F0210B50D4C86B0D4E825
:10D2A0008F3FDB0711D42046FAF746FF68B101A88B
:10D2B000FFF7C2FF012101AA0648FFF7E9FB20465C
:10D2C000FAF73FFF044800F0AFF9024806B010BD7E
:10D2D000F0AE07100CAF0710B3E23F0210B5FFF736
:10D2E000DBFF074B044653B1FFF7F0FB38B123686F
:10D2F00020461B699847002801DD00E000BF10BDF3
:10D300000000000010B50D4C86B0D4E88F3FDB075D
:10D3100011D42046FAF710FF68B101A8FFF792FF79
:10D32000022101AA0648FFF7B3FB2046FAF709FFDE
:10D33000044800F079F9024806B010BDF4AE0710B9
:10D3400020AF0710B1E23F0210B5FFF7DBFF074B3C
:10D35000044653B1FFF7BAFB38B1236820461B6976
:10D360009847002801DD00E000BF10BD000000006C
:10D370007047000038B50A4B044603600123094991
:10D380004361202000F036F82025606005492846DA
:10D39000A56000F02FF8C4E90305204638BD00BFA2
:10D3A0001800010041FD3F0230B50E4D87B0D5E8B1
:10D3B0008F1F11F0010411D12846FAF7BDFE68B1A4
:10D3C0006846FFF7D7FF6A4621460748FFF7C2FBCA
:10D3D0002846FAF7B6FE054800F026F9024807B0DD
:10D3E00030BD00BF38AF07103CAF0710F9E33F0274
:10D3F000FAF78DBEFAF78DBE08B5FDF717F908B537
:10D40000FDF714F9014900F0F9B800BF5CFD3F02D7
:10D410007FB50024102315461268CDE90234036855
:10D42000CDE900449E696B46B0479DF8043003F097
:10D430000603062B05BF009B012020462B6004B08D
:10D4400070BD0098904214BF012006207047000074
:10D45000034B10B50446036000F0CDF8204610BD24
:10D460009CFD3F0210B50446FFF7F2FF082120465D
:10D47000FAF753FE204610BD2DE9F041DDF8188083
:10D480001F4606461546DDE90834984507D1079939
:10D4900000F0B4F818B165710020BDE8F08139469C
:10D4A000304600F0ABF80028F6D00123C4F8008025
:10D4B0002571A371F0E738B515461C4600F09EF8BB
:10D4C00020B108232560E3600623237138BD73B5BE
:10D4D00005460C461E46019200F090F850B9032E06
:10D4E00008D823682946019A20465B6902B0BDE846
:10D4F0007040184702B070BD034B10B5044603607E
:10D50000FFF7A6FF204610BDFCFD3F0210B5044604
:10D51000FFF7F2FF0C212046FAF7FFFD204610BD71
:10D52000F7B5089F05460E46144697420AD0A868EC
:10D53000314602680897156A2246AC4603B0BDE83A
:10D54000F04060471946019300F058F8019B00280D
:10D55000EDD0062003B0F0BD2DE9F14F0D46194680
:10D56000814617469846DDE90A4BDDE90CA600F036
:10D5700045F890B1002D3460377109DB61198A4597
:10D580000CBF06210121B171002001B0BDE8F08F70
:10D590000235F9D10123B371F6E7544506D1594656
:10D5A000484600F02BF808B17771EDE7D9F808008C
:10D5B0003A4629460368CDE90CA6CDE90A4BDC6959
:10D5C0004346A44601B0BDE8F04F60472DE9F04165
:10D5D00007460C4615461E46FFF76DFF48B9B8686A
:10D5E0002A46214603689F693346BC46BDE8F041A0
:10D5F0006047BDE8F081704700207047814208B560
:10D600000ED0406803782A2B0CD049680B782A2B5F
:10D6100008BF0131FAF74CFDB0FA80F0400908BDAF
:10D620000120FCE70020FAE7002301461A461846CD
:10D6300000F0BCB9024B1844407800F097007047E6
:10D64000C9FE3F020A44431E914200D1704710B503
:10D6500011F8014B914203F8014FF9D110BD8842F6
:10D6600010B501EB020402D98442234607D8431EB9
:10D67000A14208D011F8012B03F8012FF8E702446A
:10D6800001468A4200D110BD13F8014D02F8014D48
:10D69000F7E702440346934200D1704703F8011BA9
:10D6A000F9E7000038B5104B04461D68AB6BB3B901
:10D6B0001820FCF783FF0246A86320B90B4B4221D8
:10D6C0000B48FCF7DDFF0B490B4BC0E900130B4B7C
:10D6D000002183600B2383810120C2E90401AB6B2D
:10D6E00000221C615A6138BD5CAD071035FE3F0257
:10D6F0004CFE3F020E33CDAB34126DE6ECDE05007E
:10D70000C9B2034610F8012B1AB18A42F9D1184662
:10D710007047002918BF0023F9E710B50446FFF74A
:10D72000EFFF18B92046FAF7CDFC204410BD0346A0
:10D7300011F8012B03F8012B002AF9D170470000E2
:10D74000024B0146186800F003B800BF5CAD07103B
:10D7500037B5044608460D46FAF7B4FC421C20468D
:10D7600011460192FCF770FF044618B1019A294650
:10D77000FFF768FF204603B030BD10B57AB103460D
:10D780000139841813F8010B11F8012F904201D1CF
:10D79000A34201D1801A10BD0028F3D1FAE7104648
:10D7A000F9E738B503460C4669B9BDE83840FFF7DC
:10D7B000A7BF431C054621461846FFF7A1FF0028D6
:10D7C000F7D1284638BD0025F5E70000012B2DE9EB
:10D7D000F04701D0242B06D9FCF744FF1623036041
:10D7E0000020BDE8F0870D46DFF8E0C02E4615F8B2
:10D7F000014B14F80C7017F00807F7D12D2C32D11B
:10D800002C780127B51C002B5BD0102B09D1302CB4
:10D8100007D12C7804F0DF04582C4DD16C781023FC
:10D82000023507F100484FF0000C08F1FF3866465A
:10D83000B8FBF3F903FB198AA4F1300EBEF1090F0E
:10D8400016D87446A34224DDBCF1000F1EDBB1459F
:10D850001CD301D1A24519DB06FB03464FF0010C96
:10D8600015F8014BE8E72B2C04BF2C78B51CCAE750
:10D87000A4F1410EBEF1190F01D8373CE2E7A4F143
:10D88000610EBEF1190F04D8573CDBE74FF0FF3CA7
:10D89000E6E7BCF1000F05DA22234646036042B9F1
:10D8A00030469EE707B17642002AF9D0BCF1000F5E
:10D8B00000D0691E1160F3E73024002BB1D108239A
:10D8C000AFE7302CA5D00A23ABE700BFCAFE3F026A
:10D8D00013460A46014602480068FFF777BF00BFBB
:10D8E0005CAD0710024B0146186800F0C3B800BFDA
:10D8F0005CAD071013460A4601460248006800F076
:10D90000CDB800BF5CAD07100EB403B503AB014644
:10D91000064853F8042B00680193049B00F0D0F8EC
:10D9200002B05DF804EB03B0704700BF5CAD0710B8
:10D9300013460A4601460248006800F0D3B800BF0B
:10D940005CAD0710024B0146186800F00DB800BF2F
:10D950005CAD071013460A4601460248006800F015
:10D9600013B800BF5CAD071038B50023054D044661
:10D9700008462B60FCF7D0F9431C02D12B6803B199
:10D98000236038BDE4AF071038B50446064D08469D
:10D99000114600222A601A46FCF786F9431C02D180
:10D9A0002B6803B1236038BDE4AF07102DE9F843BD
:10D9B000DFF8BC8006461F460D46D8F800009146A9
:10D9C00000F068F8264B1C6834B9264C1C60264BC6
:10D9D00013B11B68C4F8883063681F2B07DDD8F8C3
:10D9E000000000F059F84FF0FF30BDE8F8835EB357
:10D9F000D4F8880088B91D4B23B9D8F8000000F08E
:10DA00004AF8F0E74FF48470FCF7D8FD0028F4D012
:10DA10000023C0E94033C4F8880063680122022E65
:10DA200040F8239002FA03F200EB8301D0F80031B2
:10DA300043EA0203C0F80031C1F8807002BFD0F899
:10DA400004311343C0F804316368D8F800005A1C4D
:10DA50000233626044F8235000F01EF80020C4E74F
:10DA6000DCAF071050AF07100000000045B63F02C2
:10DA7000C0AD071038B50023054D044608462B609D
:10DA8000FCF72EF9431C02D12B6803B1236038BD8B
:10DA9000E4AF0710704770477047000038B5044680
:10DAA000064D0846114600222A601A46FCF726F960
:10DAB000431C02D12B6803B1236038BDE4AF0710CB
:10DAC00038B50446064D0846114600222A601A461B
:10DAD000FCF7DCF8431C02D12B6803B1236038BD8E
