:02000004085F93
:1080000000805F08FCFF5F080000060020000501FB
:0880100004017D1500000000D1
:108018001348144908B5884205D0134A824202D051
:10802800124B121A98471248124A0021124B121A80
:10803800984712481249884205D0124A824202D013
:108048000A4B121A984710481049884205D0104A1E
:10805800824202D0054B121A9847014808BD00BF5A
:108068003CAD071054F65F08B4AD07102D0D111084
:10807800B4AD0710E8AF0710A10E1110488A3F02EF
:10808800A8805F08508A3F02508A3F02B0805F088C
:0C809800F4FF3F0219805F0800000000A8
:0880A8009C805F08ACEB3F0275
:1080B00010F8012B11F8013B012A28BF9A42F7D092
:1080C000D01A7047034613F8012B002AFBD1181A67
:1080D0000138704770B504F0F3FB0025054E064CDF
:1080E000A41BA408AC4200D170BD56F8043B9847CD
:1080F0000135F7E7D0FF3F02F4FF3F0200F0F0BA8E
:1081000008B500F093F8BDE8084004F091BB02F018
:108110009DBD02F09BBD02F0A7BD02F0A5BD000011
:108120000C2008B5024A034902F0A6FBFEE700BF97
:10813000F9AB3F02BCEB3F020078B0FA80F0400997
:108140007047012303707047704700000122014B04
:108150001A707047C8AD071010B50446094B03608C
:1081600003F0F0FC214603F027FF04F04DFF04F07C
:108170003DFF2046044B40F8043B03F0B9FD204688
:1081800010BD00BFECEC3F02D4EC3F0210B504463A
:10819000FFF7E2FF20462421FFF7BFFF204610BD76
:1081A0000EB44FF0200C002300B58CB00DAA52F88D
:1081B000041BCDE904C3CDE900120392016804AAAF
:1081C0001E2002F067FB0CB05DF804EB03B07047B3
:1081D0000EB44FF0200C002300B58CB00DAA52F85D
:1081E000041BCDE904C3CDE900120392016804AA7F
:1081F000322002F04FFB0CB05DF804EB03B0704787
:1082000038B5046805467CB16368013B63605BB9BF
:10821000236820469B689847A368013BA3601BB96D
:1082200023682046DB689847284638BD30B585B0BE
:1082300002F020F83D4C2368C01AB0F57A6F1CD3C9
:108240003B4DD5E900239A4214D03A493A48FFF70A
:10825000A7FF3A4A1378591C1170D5E90012521A37
:108260001211B3FBF2F002FB10331B01C958344862
:1082700001F04CFB01F0FEFF2060324B1B78E3B1B4
:108280000021052005F01DFB2F4B00221B782F49F4
:108290008DF8003002A83C2304F070FC03A8FFF71F
:1082A000AFFF2B49264801F031FB41F2707004F01A
:1082B00087FA0121052005F004FB264801F02BFF79
:1082C000244D284601F02DFF18B9012004F078FA5A
:1082D000F7E7204801F037FF05461E4801F018FF78
:1082E0001C4801F01BFF2A461B491348FFF758FFA3
:1082F000B5F5FA7F17DC01F0BDFF2368C01A41F223
:108300006F7398420FD901F0B5FF0F4B20601B78B7
:1083100002A88DF8003000223C23104904F02EFC06
:1083200003A8FFF76DFF05B030BD00BFE0AD07103B
:10833000B4AD0710D1EB3F027CAE0710C9AD0710FA
:10834000C4AD0710C8AD0710C0AD0710E3EB3F0286
:10835000F3EB3F02CCAD0710FEEB3F0211EC3F0206
:1083600070B51426D0E90053044606FB0356AE420E
:1083700004D0284602F024FF1435F8E7206802F004
:1083800073FC204670BD70B50446D0E9005305EB80
:108390008316AE4205D02B6828461B6898474035A7
:1083A000F7E7206802F060FC204670BD8842F8B50F
:1083B00004460D46164616D9904215D2A2F114066F
:1083C000751AA1F114072C44B7421CD02CB13146C8
:1083D000204602F072FF337C2374304602F0F0FE38
:1083E000143E143CF0E70ED0B5420CD02CB1294617
:1083F000204602F062FF2B7C2374284602F0E0FE48
:1084000014351434F0E7F8BD00232DE9F041C0E93C
:10841000003383604F6804469F420E4624DD4FF0D0
:10842000140808FB07F002F011FC0546E0B1D4E99E
:10843000001208FB0212FFF7B9FF206802F014FCDB
:108440002560A760D6E9007308FB0378B84509D01A
:108450003946284602F04BFF3B7C143505F8043CB6
:108460001437F3E7736863602046BDE8F0810000CD
:108470006FF078432DE9F74F8B46D0E9009A11460B
:10848000AAEB0902B3EB221F80464FEA221402D165
:10849000264805F033FB012C224638BF0122A418E0
:1084A000ABEB09061AD2DCB19C4228BF1C46200166
:1084B0000191FFF72CFE05460199A81901D002F0A1
:1084C000FCFE28464E46B34500F110070AD010B115
:1084D000314602F00CFF38461036F4E71C46E6E75A
:1084E0002546EAE7564506D03146384602F0FFFEFB
:1084F00010361037F6E74E46564504D0304602F0A7
:108500005FFE1036F8E7B9F1000F06D0D8F8081072
:108510004846A1EB0901FFF700FE05EB0414C8E98A
:108520000057C8F8084003B0BDE8F08F1FEC3F02C9
:1085300030B51D4885B001F00DFF044602F0DAFBAE
:108540001A4902681A48FFF72BFE5CB3204601F077
:108550000FFF184DF8B1837A082B12D100F10B01EF
:10856000684602F078FED5E9010398420DD010B1BB
:10857000694602F0A2FE6B6810336B60684602F039
:108580001FFE204601F0F4FEE4E701466A46284655
:10859000FFF76EFFF2E7204601F0F8FE06490448B7
:1085A000FFF7FEFD05B030BD39EC3F023BEC3F026A
:1085B0007CAE0710B4AD071049EC3F022DE9F04F37
:1085C0003F4CADF5057D0546FFF7B2FFD4E900321B
:1085D000D21A3C493C481211FFF7E2FDD4E90046AB
:1085E000A64204D054F8100B05F02EFDF8E7DFF892
:1085F000E890DFF8D480DFF8E4A0D5E9004704EB89
:108600008717BC4254D0204602F06FFF2146064631
:10861000684602F063FF49464046009AFFF7C0FDF6
:10862000514604A802F017FE684604A902F09AFE1B
:1086300078BB6846254902F06DFE051E18BF01256E
:1086400004A802F0BDFD75B340F20161009805F089
:10865000DDFC054602461E494046FFF7A1FD6B1CA6
:1086600021D04FF0000BB34515DAA6EB0B022368BF
:10867000B2F5007FA8BF4FF4007220461B6A04A920
:108680009847021E07DD284604A9934405F0E4FC40
:10869000E9E70125D4E7284605F0A6FC2A4640462E
:1086A0000C49FFF77DFD684602F08AFD4034A8E7DB
:1086B00001200DF5057DBDE8F04F02F038BC00BF8C
:1086C000B4AD071054EC3F027CAE0710F3EB3F0251
:1086D00080EC3F028AEC3F026EEC3F027DEC3F02F1
:1086E00030B587B004F090FC4FF4E13104F07AFC2F
:1086F000002001F0CDFD42F210750446002001F08B
:10870000C7FD001B61F10001A84271F1000307D20F
:1087100004F07AFC04F06DFC10B902F0E1F9EDE729
:1087200004F072FC04F065FC4FF4FA6004F048F8C1
:1087300003A802F0F8FC049A2A492B48FFF730FD01
:1087400003A8FFF720FE03A802F0EDFC03A8FFF743
:1087500035FF03A8FFF717FE244800F092FC002124
:10876000224800F046FB3C224FF47F63114620482C
:108770000093142300F0D1FF4FF47A7004F020F836
:108780004FF47F41194800F034FB4FF47A7004F045
:1087900017F805F08BF904F043FD164801F0AAFC28
:1087A00018B115491048FFF713FD124801F0C7FC36
:1087B0000221042005F074F80023022200930F49DF
:1087C0004FF0FF33042004F045FC0121052005F0A3
:1087D00067F80121052005F074F807B0BDE83040C6
:1087E000FFF7A6BE97EC3F027CAE071008AE07105D
:1087F00014AE0710CCAD0710B4EC3F02ED8A3F0277
:1088000070B50024294B2A4D1C702A4B8CB01322C2
:108810001221C3E900449C6028460E2300F0FCF8B6
:1088200005F044F94FF0FF3301461A46224801F0A3
:1088300027FC224BCDE900441D60029404F0E4FBC8
:108840001F4C05462646694603A8FFF7DDFD03A930
:1088500006A8FFF7D9FD1B4B06A946F8043B09A85B
:10886000FFF7D2FD09AA1E21304603F087FC09A8B4
:10887000FFF776FD06A8FFF773FD134B2562236013
:1088800003A8FFF76DFD114B236004F0BDFB4FF40F
:10889000165104F0A7FB03F055F9214603F046FBFF
:1088A0006846FFF75DFD0CB070BD00BFC0AD07109E
:1088B00008AE0710B4AD0710CCAD0710C4AD07105B
:1088C000E4AD0710D4EC3F0298FB3F02ECEC3F0212
:1088D00013B50446084659B10191FFF7F3FB024670
:1088E000204623680199DB6802B0BDE810401847B4
:1088F00002B010BD034A02F10C015C320160C2609B
:10890000704700BFFCEC3F0210B5036853F80C1C25
:10891000044B421803F10C045C334450D3601046FE
:1089200010BD00BFFCEC3F0210B50446054B3821DA
:1089300003F10C025C330260C360FFF7EEFB2046DC
:1089400010BD00BFFCEC3F02D0F800C0ACF10C0C35
:10895000DCF800C06044E7E770B50446264D274EBA
:1089600051B3D5E88F3FDA0709D42846FFF7E4FB77
:1089700028B101F00FFC30602846FFF7E2FB0C2025
:10898000444333681E4A19191C5D1E4B4878002C5D
:1089900018BF1346012289788240052901D0082991
:1089A00004D1596821EA02025A6070BD1968114366
:1089B000196059680A43F7E7D5E88F3FDB0709D408
:1089C0002846FFF7B9FB28B101F0E4FB30602846E8
:1089D000FFF7B7FB0C20444333681A19195D507830
:1089E000084B074A002918BF134601221968824024
:1089F00021EA0201DCE700BF4CAE071050AE0710C1
:108A00000044014800400148C908920842EA811226
:108A1000DB0843EA42107047F8B516468022044648
:108A20000F460C3011461D4600F0C6FD0648277162
:108A300000F10C03236000235C30E0606671204687
:108A4000E3712372A571F8BDFCEC3F0213B50A4C2B
:108A5000D4E88F1F11F001010BD120460191FFF7DF
:108A60006BFB019928B1054802F0B2F92046FFF7E7
:108A700068FB024802B010BD40AE071044AE0710BC
:108A80002DE9F84FC3790746894633B9FFF7DEFF72
:108A90004946BDE8F84F02F03BBA4FF00708584C82
:108AA000DFF864A1DFF864B13D7AD4E88F3F13F0BA
:108AB000010F544E09D12046FFF73EFB28B101F0CB
:108AC00069FB30602046FFF73CFB326805EB45054B
:108AD00002EB8503587812F82530002B0CBF524664
:108AE0005A4601231168834021EA0301116051684D
:108AF0000B43536049FA08F313F0010FFD7955D089
:108B0000D4E88F3FD90709D42046FFF715FB28B1D9
:108B100001F040FB30602046FFF713FB326805EBA5
:108B2000450512F8253002EB8501002B0CBF52469B
:108B30005A460123487889788340052901D00829BD
:108B40002ED1516821EA030353603D7AD4E88F3F68
:108B5000DB0709D42046FFF7EFFA28B101F01AFB32
:108B600030602046FFF7EDFA306805EB450210F85B
:108B7000223000EB8201002B0CBF52465A460123E3
:108B80004D788978AB40052901D0082932D1516848
:108B900021EA0303B8F10108536085D2BDE8F88FDC
:108BA00011681943116051680B43CDE7D4E88F3F3A
:108BB000DA0709D42046FFF7BFFA28B101F0EAFA34
:108BC00030602046FFF7BDFA326805EB450502EB41
:108BD0008503587812F82530002B0CBF51465946B2
:108BE00001230A68834022EA03020A604A681343A9
:108BF0004B60AAE711681943116051680B43C9E73C
:108C00004CAE071050AE0710004001480044014828
:108C100038B504460D4640790021FFF79DFE2079C6
:108C20000021FFF799FE29462046FFF729FF012181
:108C30002079FFF791FE38BD38B504460D464079DE
:108C40000121FFF789FE20790021FFF785FE2946E3
:108C50002046FFF715FF01212079FFF77DFE38BD83
:108C60007F2970B504460E4615461EDC7F2A1CDCA3
:108C70001521FFF7CDFF2046F1B2FFF7DDFF2046BB
:108C80007F21FFF7D9FF20467521FFF7C1FF20465E
:108C9000E9B2FFF7D1FF20467F21FFF7CDFF204645
:108CA000BDE870405C21FFF7B3BF70BD2DE9F8430C
:108CB0007F2906460D4614461F46BDF82080BDF8A4
:108CC000249049D87F2A47D802EB0803802BC8BFDD
:108CD000C2F17F0801EB0703C8BF1FFA88F8802B99
:108CE000C8BFC1F17F07EDB24FF01501C8BFBFB2D9
:108CF000FFF78EFF29463046013DFFF79DFFE9193A
:108D00003046C9B2FFF798FFE4B275213046FFF74D
:108D10007FFF2146013C30464444FFF78DFFE1B21E
:108D20003046FFF789FF5C213046FFF771FF0024D2
:108D300008FB07F74FEA19255FFA89F9A3B2BB428E
:108D400004F1010408DA29463046FFF775FF494669
:108D50003046FFF771FFF1E7BDE8F8832DE9F047F2
:108D600004461F4603680E4653F80C0C1546204473
:108D7000BDF82080BDF8249000F0A8FD032836D867
:108D8000DFE800F0020C19283B462A463146CDE9BF
:108D900008892046BDE8F047FFF788BF23683246C0
:108DA00053F80C3C4544234419894346CDE90879DE
:108DB000491B89B2EDE72368454453F80C3C3E4417
:108DC00023445A891989521B3B46CDE90889891BDE
:108DD00092B2EEE723683E4453F80C3C2946234404
:108DE0005A894346921BCDE9087992B2D1E7BDE892
:108DF000F08707B580230022019100931146FFF709
:108E0000ADFF03B05DF804FBD0F800C0ACF1300C4E
:108E1000DCF800C06044FFF7ECBF2DE9F3417F2987
:108E200005460C4617461E46BDF820803BDC7F2ACF
:108E300039DCCB18802BC4BFC1F17F0636B2002EBF
:108E400031DB1521E4B2FFF7E3FE2146013C284661
:108E50003444FFF7F1FEE1B22846FFF7EDFE75213D
:108E60002846FFF7D5FEF9B228460191FFF7E4FE48
:108E700028460199FFF7E0FE5C212846FFF7C8FE6F
:108E800000244FEA18275FFA88F8A3B2B34204F12E
:108E9000010408DA39462846FFF7CEFE4146284647
:108EA000FFF7CAFEF1E702B0BDE8F0812DE9F3411A
:108EB0007F2905460F4614461E46BDF820803BDC40
:108EC0007F2A39DCD318802BC4BFC2F17F0636B2AB
:108ED000002E31DB1521FFF79BFEF9B228460191E8
:108EE000FFF7AAFE28460199FFF7A6FEE4B2752116
:108EF0002846FFF78DFE2146013C28463444FFF703
:108F00009BFEE1B22846FFF797FE5C212846FFF75B
:108F10007FFE00244FEA18275FFA88F8A3B2B34215
:108F200004F1010408DA39462846FFF785FE414678
:108F30002846FFF781FEF1E702B0BDE8F081F7B502
:108F4000044616460268019352F80C0C0D46204464
:108F5000BDF8207000F0BAFC019B032835D8DFE88B
:108F600000F0020B1B29324629460897204603B021
:108F7000BDE8F040FFF79ABF22681E4452F80C0C7F
:108F80002A46204401890897891B09B2204603B06C
:108F9000BDE8F040FFF741BFE94322681E4452F8A4
:108FA0000C0C204442890589921B2944089712B26F
:108FB00009B2DBE7ED432268314652F80C2C22441B
:108FC000528908972A4412B2E0E703B0F0BDD0F806
:108FD00000C0ACF1200CDCF800C06044FFF7AFBF6C
:108FE000F7B5044615460268019352F80C0C0E467C
:108FF0002044BDF8207000F069FC019B032835D89F
:10900000DFE800F0020B1B292A463146089720466C
:1090100003B0BDE8F040FFF700BF2268E94352F813
:109020000C2C2244158932462944089709B220465F
:1090300003B0BDE8F040FFF739BF22681E4452F884
:109040000C0CEA432044458901892A44891B08976E
:1090500012B209B2DBE722681E4452F80C2C2946F2
:10906000224452890897921B12B2E0E703B0F0BD88
:10907000D0F800C0ACF1240CDCF800C06044FFF76D
:10908000AFBF10B504460121407904F009FC207AF5
:10909000002800F0DA80012104F002FC0121E079CF
:1090A00004F0FEFB0121207904F0FAFB2079002175
:1090B00004F007FCA079D0B1012104F0F1FB0121FB
:1090C000A07904F0FEFB4FF4FA7003F079FB002165
:1090D000A07904F0F6FB4FF4FA7003F071FBA0796D
:1090E000012104F0EEFB4FF4FA7003F069FB204617
:1090F000FD21FFF78DFD20461221FFF79DFD204643
:10910000FD21FFF785FD2046B121FFF795FD2046A3
:10911000AE21FFF77DFD2046B321FFF779FD204604
:10912000F121FFF775FD2046CA21FFF771FD2046AA
:109130007F21FFF781FD2046A021FFF769FD204632
:109140007421FFF779FD20461521FFF761FD2046C8
:109150000021FFF771FD20467F21FFF76DFD2046BE
:109160007521FFF755FD20460021FFF765FD2046DC
:109170007F21FFF761FD2046A121FFF749FD204631
:109180000021FFF759FD2046A221FFF741FD2046AF
:109190000021FFF751FD2046B521FFF739FD20469C
:1091A0000021FFF749FD2046AB21FFF731FD2046A6
:1091B0000121FFF741FD2046B121FFF729FD20469F
:1091C0003221FFF725FD2046BE21FFF721FD204675
:1091D0000521FFF71DFD2046A621FFF719FD2046BA
:1091E000C121FFF715FD2046C821FFF725FD2046C8
:1091F0008021FFF721FD2046C821FFF71DFD2046F5
:10920000C721FFF705FD20460F21FFF715FD20467A
:10921000B421FFF7FDFC2046A021FFF70DFD2046FD
:10922000B521FFF709FD20465521FFF705FD204632
:10923000B621FFF7EDFC20460121FFF7FDFC20469B
:10924000BDE81040AF21FFF7E3BCFFF7FFFB01F0E3
:10925000C9FDFFF7FBFB102101F034FEFFF7F6FB21
:10926000032101F0D3FD1DE7F8B504461F4603684E
:109270000D4653F80C0C1646204400F027FB02283C
:109280002CD0032837D0012808D1F24323682E467A
:1092900053F80C3C23441B891A4415B2ABB27F2B04
:1092A0001BD8B3B27F2B18D8324629462046FFF789
:1092B000D7FC01216079FFF74FFB00212079FFF7F0
:1092C0004BFB2046390AFFF7DBFB2046F9B2FFF7DC
:1092D000D7FB01212079FFF73FFBF8BDED43F643B3
:1092E000236853F80C3C234419895A890D441644C9
:1092F0002DB236B2D2E7E9432368354653F80C3C29
:1093000023445B8919440EB2C8E7D0F800C0ACF121
:10931000180CDCF800C06044FFF7A6BF0A680260C2
:10932000496852F80C2C815070472DE9F04F1F46C8
:1093300085B0BDF93880A7EB010AA8EB0209B9F1A5
:10934000000FB8BFC9F10009BAF1000FB8BFCAF1E8
:10935000000AD14583460C461546BDF83C3004DD75
:109360003A462C4647460D469046BC4205DD2A4605
:109370004546904622463C4617463E1BB2B20092F6
:10938000A8EB050282EAE271A1EBE271C6F3C032FA
:1093900002FA86F64545B4BF01224FF0FF32019133
:1093A00076100292BC421CDCDBF80020D145D2F8DA
:1093B0001080C7BF294622462A46214603935846B5
:1093C000C047019A039BB61AB1B236B2002E05DA35
:1093D000029A1544009A2DB2561836B2013424B2BE
:1093E000E0E705B0BDE8F08F2DE9F34704461646E7
:1093F0008A461D46BDF82C800768BDF92890CDF837
:109400000080FF69B847236809F1FF32CDF800807A
:10941000324451462046DF6912B22B46B8472368D2
:10942000CDF800803246514620469F694B46B847EA
:109430006B1E03EB0A012368CDF828809D69324634
:109440004B462046AC4609B202B0BDE8F047604743
:1094500037B5013BBDF81850134404681BB20093A4
:1094600001950B466469A04703B030BD37B5BDF820
:1094700018500468CDE90025013B0B4464691BB218
:10948000A04703B030BD2DE9F347054692460C4690
:10949000BDF92890BDF82C80CE18B4420BDA2B68A9
:1094A000CDF8008021469F6952464B46284601343C
:1094B000B84724B2F1E702B0BDE8F08713B50191D7
:1094C000B0F90E1002680091546A0022B0F90C3015
:1094D0001146A04702B010BD70470A292DE9FF418F
:1094E00004460D460CD1436A027E5978438A01FB3B
:1094F0000233638200232382012004B0BDE8F0819F
:109500000D29F9D0027E03680292C28A0192828AF2
:1095100000921E6BB0F912200B46B0F91010B04744
:10952000E37E94F91D70ED1A636A002F03EB850248
:1095300013F82560557815DDE28AA38A934211D08D
:10954000237E0192218A15FB03F206FB031120689A
:1095500012B20092D0F824807B432046B4F9122046
:1095600009B2C04794F91D30277E9919238A94F8CF
:10957000282001FB07331BB22382002ABCD0B4F998
:109580000C2006FB17229342B6DD638A05FB0733E6
:10959000AFE700000423064A837642620122054BAE
:1095A000427703621A78C2765B780377704700BF10
:1095B000C2F53F02C8ED3F024281C2814FF0FF3247
:1095C00038B5426100240122064D01818181446049
:1095D000042105600461028380F82820FFF7DAFF88
:1095E00038BD00BF94ED3F022DE9F04F1C468DB011
:1095F0009DF8583083460993BDF95C3003270A93E0
:10960000BDF8603008920493A3B2C3F10105C3EB27
:10961000C3335B001BB2079300230693099B2AB256
:1096200003F001030B938BB203920593069BA342B5
:1096300070DA039B002B0ADB079B013C02331AB252
:109640000792039A24B212FA83F52BB20393069B76
:1096500001331FFA83FA1BB20693039B3B441BB2F0
:1096600003930B9B3BB30498BDF828800090DBF874
:109670000000BDF820900599A6B2806908F10103A9
:1096800003EB4603A9EB0602514405461BB25846BC
:1096900012B209B2A847059904983144DBF800607A
:1096A000009008EB0703A9EB0A025846B6691BB203
:1096B00012B209B2B047099B9B0728D50498BDF8A0
:1096C00028900090DBF80000BDF820800599A6B234
:1096D000806909F1010303EB4603A8EB0602A1EB45
:1096E0000A0105461BB2584612B209B2A8470599AD
:1096F0000498891BDBF80060009009EB0703A8EBD6
:109700000A025846B6691BB212B209B2B047023714
:10971000BFB28BE70DB0BDE8F08F2DE9F0431546E1
:1097200085B0BDF830809AB2CDF800801E46530057
:1097300003F1010C0368AA1AD3F8189012B20FFAB9
:109740008CF304460F46C847032300223946CDE96F
:109750000032204633462A46CDF80880FFF744FF02
:1097600005B0BDE8F0832DE9F04F2DED028B89B0F7
:109770009046BDF8502082460492BDF85420002542
:109780000592C27E9DF858709A4263D8047F9C422D
:1097900060D39B1ADBB2BAF90C208A4240F3848072
:1097A000BAF90E2042457FDDDAF824409A0007928C
:1097B00004EB830214F8233003FB0713002B73DD43
:1097C000537803FB0783002B6EDD53888CB2023382
:1097D0009BB2029300230393BBB20693DAF82430C2
:1097E000079A9DF90C6013445B789E425CDA069BF5
:1097F0004FF00009734313FA88F31BB208EE103AD6
:10980000464436B2DAF8242007984FFA89F1125C00
:109810005FFA89F3914243DA5A0707D1029B029813
:10982000DAF8202001339BB2155C02932B0623D576
:10983000012FDAF8002089B20ED1D2F810B0049BC3
:1098400021443246504609B2D8476D00EDB209F1C5
:109850000109D7E72B469EE706983BB210FB01F1C2
:1098600004982144CDE9003009B2D2F824B0504622
:1098700018EE102AD847E8E7DDE904239342E4D044
:10988000012FDAF8002089B203D1D2F810B02144B8
:10989000D7E706983BB210FB01F105982144E1E7B8
:1098A000039B0133039399E709B0BDEC028BBDE83C
:1098B000F08F70B4BDF80C40BDF810509DF81460E6
:1098C0000394CDE9045670BCFFF74DBF407E70474E
:1098D000B0F90C007047B0F90E00704707B50846A4
:1098E00002220DF1060104F0A5FBBDF8060003B04D
:1098F0005DF804FB07B5042208460DEB020104F0F5
:1099000099FB019803B05DF804FB00002DE9F04FCE
:109910000D460A469FB0744904467448FEF740FC61
:109920000021284604F072FB054601F0E3F9704976
:1099300002686E48FEF734FC6B1C06D16D496B481B
:10994000FEF746FC1FB0BDE8F08F4FF47A6002F0DE
:1099500037FF29462046FFF7C1FF44F6425398429D
:1099600040F0BD8029462046FFF7C4FF01220421B4
:10997000284604F041FB29462046FFF7BBFF294655
:1099800080462046FFF7B6FF29462046FFF7B2FF84
:10999000294607462046FFF7ADFF294606462046E2
:1099A000FFF79CFF0128824640F099802946204617
:1099B000FFF794FF8146294620465FFA89F9FFF7B1
:1099C00099FFB9F1180F40F08A80002840F0878095
:1099D0007B1C03EB430323F0030301932368002E56
:1099E0001A68B8BF039052F80C0CB8BF76421844FE
:1099F000A8BFCDF80CA00497FFF76AFFB84207DABA
:109A000023681A6852F80C0C1844FFF761FF0490A1
:109A100023681A6852F80C0C1844FFF75CFFB04238
:109A200052DA23681A6852F80C0C1844FFF753FFF7
:109A300005904FF00009019B013E03FB0683029352
:109A4000059B4B454BDD4A4600212068FFF708F98E
:109A5000DDE9021300222846934208BF414604F084
:109A6000CBFA4FF0000A6027049B53452EDD5F2F91
:109A700005D96022284606A904F0DCFA0027D4F8AC
:109A800000B07A1C1EA850FA82F2DBF80000B91C64
:109A900000681EAB06461EA83B4450FA81F113F83D
:109AA000603C12F8602C11F8601C5846FEF7ACFFC1
:109AB000033703460FFA8AF158460FFA89F2B04786
:109AC000FFB20AF1010ACFE70596B2E7DDE90132FC
:109AD000D31A0293019B09F101099844B0E7284683
:109AE00004F082FA2EE700BFC2F93F027CAE0710F5
:109AF000D0F93F02E3F93F02F7B51546044649089D
:109B000040681E46BDF8207003F0BCFB2B0A60685D
:109B10008DF805508DF8043003680222DB6801A936
:109B200098470025AF42606805DD0368715D9B685A
:109B300098470135F6E7012103F0A8FB002003B0A8
:109B4000F0BD1FB58DF80F300123097800930DF19A
:109B50000F03FFF7D1FF05B05DF804FB0123862258
:109B60008169FFF7EEBF402387228169FFF7E9BFD4
:109B7000002387228169FFF7E4BF1FB51C0A8DF817
:109B80000D3002230978009303AB8DF80C40FFF7EA
:109B9000B3FF04B010BD2DE9F743044690461D46BF
:109BA00005264F084FEA12293946606803F06AFB20
:109BB00060688DF804908DF80580036801A9022281
:109BC000DB6898470021606803F060FB18B1013E34
:109BD00016F0FF06E8D139469DF82820606803F0AA
:109BE0004EFB013D606803681B69984730B16068AF
:109BF00003685B69984705F8010FF3E703B0BDE818
:109C0000F08313B5012409780094FFF7C4FF0038EE
:109C100018BF0120404202B010BD13B530220C46DF
:109C20000DF107038169FFF7ECFF9DF807306FEA3C
:109C3000131303F00103237002B010BD37B50546BE
:109C40000C460DF10701FFF7E8FF31222846A9690C
:109C50000DF10603FFF7D5FF50B99DF806309DF8CA
:109C6000072003F001039A420ABF012320702370EA
:109C700003B030BD002373B504462D251B4E8DF86F
:109C80000730AAB2204616F8013BA1690135FFF75B
:109C900058FF882DF5D12046FFF765FF98259DF8E0
:109CA000073063B920460DF10701013DFFF7C6FFFC
:109CB00015F0FF0517D0012002F082FDEFE72046E6
:109CC000FFF74CFF2046FFF753FF09230822A16945
:109CD0002046FFF736FF00230B222046A169FFF73D
:109CE00030FF02B070BD6FF00600FAE7E9F93F02FD
:109CF00013B54B220DF107030C468169FFF781FF75
:109D00009DF80730142B03D10123238002B010BD2E
:109D10000A2BFBD10223F8E773B50D460DF10601BE
:109D20000446FFF7E5FFBDF80630064653B1012BA8
:109D300052D1322D32D007D8142D25D0212D2BD041
:109D40000F2D12D001261CE0C82D31D0B5F5FA7FB9
:109D500038D0642DF6D140F2E1235E222046A1697D
:109D6000FFF70BFF4FF4627306E01D235E222046CF
:109D7000A169FFF702FF272361222046A169FFF7AF
:109D8000FCFE304602B070BD51235E222046A16920
:109D9000FFF7F3FE6E23EFE7D623F6E74FF4D77312
:109DA0005E222046A169FFF7E8FE4FF4F473E3E773
:109DB00040F2E1335E222046A169FFF7DEFE40F269
:109DC0009643D9E740F291535E222046A169FFF7FE
:109DD000D4FE40F2C153CFE7642D27D00DD8212DFA
:109DE0001AD0322D1AD0142DACD11E235E2220465B
:109DF000A169FFF7C2FE2223BEE7C82D20D0B5F52A
:109E0000FA7F9FD140F28F435E222046A169FFF77F
:109E1000B4FE40F2A443AFE76023B6E7AD235E2271
:109E20002046A169FFF7A9FEC623A5E74FF4E67314
:109E30005E222046A169FFF7A0FE4FF4F5739BE771
:109E400040F2D9235E222046A169FFF796FE4FF427
:109E50003E7391E71FB51C460023ADF80C3002237A
:109E60000978009303ABFFF796FE30B99DF80C20FC
:109E70009DF80D3003EB0223238004B010BD13B511
:109E80005E220DF106030C468169FFF7E3FFBDF882
:109E90000630B3F5D77F34D010D8512B2FD005D84A
:109EA0001D2B28D01E2B2AD0002325E0AD2B28D037
:109EB000D62B01D0602BF7D121231DE040F2E132F7
:109EC000934220D00CD840F2D92293421BD040F2CA
:109ED000E122934202D0B3F5E67FE5D164230BE0A3
:109EE00040F28F42934203D040F291529342DBD131
:109EF0004FF4FA7300E00F23238002B010BD142347
:109F0000FAE73223F8E7C823F6E737B50D460DF137
:109F100006010446FFF7B3FF012D08D0022D2DD016
:109F20002046BDF80610FFF7F7FE03B030BD14233E
:109F30004B22A1692046FFF704FE07236022A16996
:109F40002046FFF7FEFD05236322A1692046FFF7A7
:109F5000F8FD38236922A1692046FFF7F2FD40F29F
:109F6000057378222046A169FFF707FE40F20663D9
:109F70007A222046A169FFF700FED1E70A234B228F
:109F8000A1692046FFF7DDFD0F236022A16920466D
:109F9000FFF7D7FD0D236322A1692046FFF7D1FD0E
:109FA000B8236922A1692046FFF7CBFD40F60D7367
:109FB00078222046A169FFF7E0FD40F60E63D7E75F
:109FC000002313B540F20F120C46ADF8063081693C
:109FD0000DF10603FFF73EFFBDF80630238002B007
:109FE00010BD13B596220C460DF106038169FFF7EB
:109FF00031FFBDF80630238002B010BD704708B5B0
:10A000008068002803DB002180B203F05AFCBDE821
:10A0100008400A2002F0D4BB08B58068002803DBA2
:10A02000012180B203F04DFCBDE808400A2002F097
:10A03000C7BB10B504461C21FEF76FF8204610BDC3
:10A0400013B50C460DF10601FFF7CBFFBDF8063046
:10A05000236002B010BD07B50DF10601FFF7B0FF98
:10A060004EF6AC63BDF80600C01A18BF4FF0FF30C3
:10A0700003B05DF804FB08B5FFF7FCFD08BD000068
:10A080002DE9F8434FF05209C0E90012C0F80C90D6
:10A09000836005461C200F4616469846FEF737F8A3
:10A0A000044680B10A4B002EC0E9003700F11003CE
:10A0B000C0E9026880F810904761836103DB0121E9
:10A0C000B0B203F0EDFB28462C61BDE8F88300BF79
:10A0D0004CFA3F0207B50DF106010069FFF770FF6A
:10A0E0004EF6CC23BDF80600C31A5842584103B0BF
:10A0F0005DF804FB10B50446FFF7ECFF30B12069B2
:10A10000FFF7B8FD003818BF012010BD0120FCE7A3
:10A110000069FFF723BD0069FFF725BD0069FFF760
:10A1200027BD07B50DF107010069FFF787FD9DF811
:10A130000700003818BF012003B05DF804FB0221BE
:10A140000069FFF7E2BE07B50DF106010069FFF7F0
:10A1500048FFBDF8060003B05DF804FB09B50448EC
:10A160000068044B03441B689B68029309BD000010
:10A170003CAD07105000000009B504480068044BCE
:10A1800003441B68DB68029309BD00003CAD071067
:10A190005000000009B504480068044B03441B68E4
:10A1A0001B68029309BD00003CAD071014000000BD
:10A1B00009B504480068044B03441B689B6802937C
:10A1C00009BD00003CAD07101400000009B50448AB
:10A1D0000068044B03441B68DB68029309BD000060
:10A1E0003CAD07101400000009B504480068044B9A
:10A1F00003441B681B69029309BD00003CAD0710B6
:10A200001400000009B504480068044B03441B68AF
:10A210009B69029309BD00003CAD071014000000CB
:10A2200009B504480068044B03441B68DB690293CA
:10A2300009BD00003CAD07101400000009B504483A
:10A240000068044B03441B685B68029309BD00006F
:10A250003CAD07100000000009B504480068044B3D
:10A2600003441B68DB68029309BD00003CAD071086
:10A270000000000009B504480068044B03441B6853
:10A280005B69029309BD00003CAD071000000000AF
:10A2900009B504480068044B03441B68DB6D029356
:10A2A00009BD00003CAD07100000000009B50448DE
:10A2B0000068044B03441B681B68029309BD00003F
:10A2C0003CAD07106400000009B504480068044B69
:10A2D00003441B685B68029309BD00003CAD071096
:10A2E0006400000009B504480068044B03441B687F
:10A2F0009B68029309BD00003CAD0710640000009C
:10A3000009B504480068044B03441B68DB680293EA
:10A3100009BD00003CAD07106400000009B5044809
:10A320000068044B03441B681B6A029309BD0000CC
:10A330003CAD07106400000009B504480068044BF8
:10A3400003441B681B6B029309BD00003CAD071062
:10A350006400000009B504480068044B03441B680E
:10A36000DB6B029309BD00003CAD071064000000E8
:10A3700009B504480068044B03441B681B6C029336
:10A3800009BD00003CAD07106400000009B5044899
:10A390000068044B03441B685B6D029309BD000019
:10A3A0003CAD07106400000009B504480068044B88
:10A3B00003441B685B6C029309BD00003CAD0710B1
:10A3C0003000000009B504480068044B03441B68D2
:10A3D0009B6C029309BD00003CAD071030000000EB
:10A3E00009B504480068044B03441B68DB6C029306
:10A3F00009BD00003CAD07103000000009B504485D
:10A400000068044B03441B685B6D029309BD0000A8
:10A410003CAD07103000000009B504480068044B4B
:10A4200003441B685B69029309BD00003CAD071043
:10A430004C00000009B504480068044B03441B6845
:10A440009B68029309BD00003CAD0710240000008A
:10A4500009B504480068044B03441B68DB68029399
:10A4600009BD00003CAD07102400000009B50448F8
:10A470000068044B03441B681B69029309BD00007C
:10A480003CAD07102400000009B504480068044BE7
:10A4900003441B685B69029309BD00003CAD0710D3
:10A4A0002400000009B504480068044B03441B68FD
:10A4B0009B69029309BD00003CAD07102400000019
:10A4C00009B504480068044B03441B68DB69029328
:10A4D00009BD00003CAD07102400000009B5044888
:10A4E0000068044B03441B681B6A029309BD00000B
:10A4F0003CAD07102400000009B504480068044B77
:10A5000003441B689B6A029309BD00003CAD071021
:10A510002400000009B504480068044B03441B688C
:10A52000DB6A029309BD00003CAD07102400000067
:10A5300009B504480068044B03441B681B6C029374
:10A5400009BD00003CAD07102400000009B5044817
:10A550000068044B03441B68DB68029309BD0000DC
:10A560003CAD07101000000009B504480068044B1A
:10A5700003441B689B69029309BD00003CAD0710B2
:10A580001000000009B504480068044B03441B6830
:10A59000DB69029309BD00003CAD0710100000000C
:10A5A00009B504480068044B03441B681B6A029306
:10A5B00009BD00003CAD07101000000009B50448BB
:10A5C0000068044B03441B685B6A029309BD0000EA
:10A5D0003CAD07101000000009B504480068044BAA
:10A5E00003441B689B6A029309BD00003CAD071041
:10A5F0001000000009B504480068044B03441B68C0
:10A60000DB6A029309BD00003CAD0710100000009A
:10A6100009B504480068044B03441B681B6B029394
:10A6200009BD00003CAD07101000000009B504484A
:10A630000068044B03441B685B6B029309BD000078
:10A640003CAD07101000000009B504480068044B39
:10A6500003441B681B6C029309BD00003CAD07104E
:10A660001000000009B504480068044B03441B684F
:10A670001B6D029309BD00003CAD071010000000E7
:10A6800009B504480068044B03441B681B68029327
:10A6900009BD00003CAD07101800000009B50448D2
:10A6A0000068044B03441B68DB68029309BD00008B
:10A6B0003CAD07101800000009B504480068044BC1
:10A6C00003441B681B69029309BD00003CAD0710E1
:10A6D0001800000009B504480068044B03441B68D7
:10A6E0005B69029309BD00003CAD07101800000033
:10A6F00009B504480068044B03441B68DB690293F6
:10A7000009BD00003CAD07101800000009B5044861
:10A710000068044B03441B681B6A029309BD0000D8
:10A720003CAD07101800000009B504480068044B50
:10A7300003441B685B6A029309BD00003CAD07102F
:10A740001800000009B504480068044B03441B6866
:10A750001B6C029309BD00003CAD071018000000FF
:10A7600009B504480068044B03441B685B6C029302
:10A7700009BD00003CAD07101800000009B50448F1
:10A780000068044B03441B681B68029309BD00006A
:10A790003CAD07103400000009B504480068044BC4
:10A7A00003441B685B68029309BD00003CAD0710C1
:10A7B0003400000009B504480068044B03441B68DA
:10A7C0009B68029309BD00003CAD071034000000F7
:10A7D00009B504480068044B03441B681B690293D5
:10A7E00009BD00003CAD07103400000009B5044865
:10A7F0000068044B03441B685B69029309BD0000B9
:10A800003CAD07103400000009B504480068044B53
:10A8100003441B689B69029309BD00003CAD07100F
:10A820003400000009B504480068044B03441B6869
:10A83000DB69029309BD00003CAD07103400000045
:10A8400009B504480068044B03441B681B6A029363
:10A8500009BD00003CAD07103400000009B50448F4
:10A860000068044B03441B689B6A029309BD000007
:10A870003CAD07103400000009B504480068044BE3
:10A8800003441B685B6B029309BD00003CAD0710DD
:10A890004800000009B504480068044B03441B68E5
:10A8A0005B6D029309BD00003CAD0710480000003D
:10A8B00009B504480068044B03441B68DB6E02932F
:10A8C00009BD00003CAD07104800000009B5044870
:10A8D0000068044B03441B681B6F029309BD000012
:10A8E0003CAD07104800000009B504480068044B5F
:10A8F00003441B685B68029309BD00003CAD071070
:10A900000800000009B504480068044B03441B68B4
:10A910005B69029309BD00003CAD07100800000010
:10A9200009B504480068044B03441B68DB6C0293C0
:10A9300009BD00003CAD07100800000009B504483F
:10A940000068044B03441B685B6D029309BD000063
:10A950003CAD07100800000009B504480068044B2E
:10A9600003441B68D3F88830029309BD3CAD07103F
:10A970000800000009B504480068044B03441B6844
:10A98000D3F89430029309BD3CAD071008000000D5
:10A9900009B504480068044B03441B685B680293D4
:10A9A00009BD00003CAD07102800000009B50448AF
:10A9B0000068044B03441B689B68029309BD0000B8
:10A9C0003CAD07102800000009B504480068044B9E
:10A9D00003441B68DB68029309BD00003CAD07100F
:10A9E0002800000009B504480068044B03441B68B4
:10A9F0001B69029309BD00003CAD07102800000050
:10AA000009B504480068044B03441B685B69029362
:10AA100009BD00003CAD07102800000009B504483E
:10AA20000068044B03441B689B69029309BD000046
:10AA30003CAD07102800000009B504480068044B2D
:10AA400003441B68DB69029309BD00003CAD07109D
:10AA50002800000009B504480068044B03441B6843
:10AA60001B6A029309BD00003CAD071028000000DE
:10AA700009B504480068044B03441B681B6B029330
:10AA800009BD00003CAD07102800000009B50448CE
:10AA90000068044B03441B685B6B029309BD000014
:10AAA0003CAD07102800000009B504480068044BBD
:10AAB00003441B681B6C029309BD00003CAD0710EA
:10AAC0002800000009B504480068044B03441B68D3
:10AAD0005B6C029309BD00003CAD0710280000002C
:10AAE00009B504480068044B03441B689B68029343
:10AAF00009BD00003CAD07102C00000009B504485A
:10AB00000068044B03441B685B69029309BD0000A5
:10AB10003CAD07102C00000009B504480068044B48
:10AB200003441B681B6A029309BD00003CAD07107B
:10AB30002C00000009B504480068044B03441B685E
:10AB4000DB6B029309BD00003CAD07102C00000038
:10AB500009B504480068044B03441B685B68029312
:10AB600009BD00003CAD07107400000009B50448A1
:10AB70000068044B03441B689B68029309BD0000F6
:10AB80003CAD07107400000009B504480068044B90
:10AB900003441B68DB68029309BD00003CAD07104D
:10ABA0007400000009B504480068044B03441B68A6
:10ABB0001B69029309BD00003CAD07107400000042
:10ABC00009B504480068044B03441B685B690293A1
:10ABD00009BD00003CAD07107400000009B5044831
:10ABE0000068044B03441B689B69029309BD000085
:10ABF0003CAD07107400000009B504480068044B20
:10AC000003441B68DB69029309BD00003CAD0710DB
:10AC10007400000009B504480068044B03441B6835
:10AC20001B6A029309BD00003CAD071074000000D0
:10AC300009B504480068044B03441B689B6A0293EF
:10AC400009BD00003CAD07107400000009B50448C0
:10AC50000068044B03441B681B68029309BD000095
:10AC60003CAD07100400000009B504480068044B1F
:10AC700003441B685B68029309BD00003CAD0710EC
:10AC80000400000009B504480068044B03441B6835
:10AC90009B68029309BD00003CAD07100400000052
:10ACA00009B504480068044B03441B685B6A0293BF
:10ACB00009BD00003CAD07100400000009B50448C0
:10ACC0000068044B03441B68DB6A029309BD000063
:10ACD0003CAD07100400000009B504480068044BAF
:10ACE00003441B681B6B029309BD00003CAD0710B9
:10ACF0000400000009B504480068044B03441B68C5
:10AD0000DB6B029309BD00003CAD0710040000009E
:10AD100009B504480068044B03441B681B6C02938C
:10AD200009BD00003CAD07100400000009B504484F
:10AD30000068044B03441B685B6C029309BD000070
:10AD40003CAD071004000000002240681146FFF7E8
:10AD500081BE002240681146FFF798BE002240687D
:10AD6000FFF786BE0022406881F00101FFF764BE54
:10AD7000002340681A461946FFF750BE002340687A
:10AD80001A461946FFF73CBE002240681146FFF7FD
:10AD900029BE002240681146FFF708BE00220221AA
:10ADA0004068FFF711BE002340681A46FFF7F0BD68
:10ADB0000322024B5A60024A1A60704754AE0710D1
:10ADC00070FA3F020021FFF7CBBC0021FFF7BABCAD
:10ADD00010B5044608462170FFF78AFC0023204680
:10ADE000636010BD13B504460078FFF7EEFF58B955
:10ADF00020784FF6FF710190FFF742FC019802B0F6
:10AE0000BDE81040FFF7DEBF02B010BD13B5044629
:10AE100000780191FFF7D9FF019948B92078019096
:10AE2000FFF73CFC019802B0BDE81040FFF7CABF35
:10AE300002B010BD30B50024400818601868E5B2B3
:10AE4000884206D90134082C02D040081860F5E782
:10AE50000725024B5B5D137030BD00BFA4FA3F02B3
:10AE600000232DE9F041044688B000780E461746CD
:10AE70000293FFF7AAFF054600BB0146142203A870
:10AE800094F8008002F087FF0B232A46404603A96E
:10AE9000ADF80C30FFF748FC07FB06F1049802AB55
:10AEA0000DF107028DF80750FFF7C4FF20789DF8D9
:10AEB0000710FFF701FC2078FFF784FF029808B025
:10AEC000BDE8F08138B5044600780D46FFF77DFFF8
:10AED0000346D0B9616899B10C4A12F8010B85425A
:10AEE00002D00133082BF8D10133DBB20122204616
:10AEF000D940FFF7B5FF2078BDE83840FFF762BFC3
:10AF000029462078FFF7D8FBF5E738BDA4FA3F02C1
:10AF100008B50078FFF7DEFBC0B208BD10B5836846
:10AF2000044613B1032201469847204610BD00286D
:10AF30004FF0000114BF01200220FFF725BE10B51D
:10AF40000446006808B1FDF7E6F8204610BDF7B5E5
:10AF5000002704460D46C0E90071C9B10846FDF757
:10AF6000D8F8064638B16B1E0133ACBF2A463A46C4
:10AF7000394602F010FF002320680193266008B1D3
:10AF8000FDF7C9F801A8FFF7DAFF236803B963608A
:10AF9000204603B0F0BD000038B50D4604464B68AE
:10AFA0001031436051F8083C836051F8043CC360A1
:10AFB000134B40F8103B00F09AF995F8203004F15B
:10AFC000240084F82030A96AFFF7C1FFA26A2AB1E1
:10AFD000AB6A1BB1696A606A02F0B6FEEB6AE362B3
:10AFE0002B6B236395F8343084F83430AB6BA36358
:10AFF000EB6BE36313B15A6801325A60204638BDE7
:10B00000D8FA3F028842F8B506460C46154615D9CF
:10B01000904214D2A2F140056B1AA1F140071E44E0
:10B02000AF421AD01EB129463046FFF7B5FF2B6854
:10B0300028461B689847403D403EF1E70DD0AC42A2
:10B040000BD01EB121463046FFF7A6FF23682046ED
:10B050001B68984740344036F1E7F8BD70B50E1EC6
:10B06000054611DDB001FFF7F1FD044658B1D5E901
:10B07000001201EB8212FFF7C5FF2868FFF7F4FD0D
:10B0800001202C60AE6070BD0024F6E738B50F4B90
:10B09000C46B054603607CB16368013B63605BB9C8
:10B0A000236820469B689847A368013BA3601BB9AF
:10B0B00023682046DB68984705F12400FFF73FFF2F
:10B0C00005F1100000F07CF8284638BDD8FA3F02A0
:10B0D00030B5044691B045686846FFF75DFFD4E996
:10B0E000011399420FDA2368626803EB851529463C
:10B0F00003EB821205F14000FFF784FF75B9636826
:10B100000133636005E020460131FFF7A7FF002807
:10B11000E9D16846FFF7BAFF11B030BD694628464D
:10B12000FFF73AFFEBE770B500241C2698B02146E4
:10B13000C0E9004484603246054601A802F02BFEB7
:10B14000214601A8ADF80460FFF702FD0446C0B92E
:10B15000BDF81C30A34210D9069BBDF80C1008A8FE
:10B1600004FB013100F00EFA284608A9FFF7B0FFF2
:10B1700008A8FFF78BFF0134EAE7002101A8FFF7D9
:10B18000F5FC284618B070BD10B50446FFF77EFFE9
:10B1900020464021FCF7C1FF204610BD02220020BE
:10B1A000044B1A60044B054AC3E900009A60FFF79C
:10B1B0009BBB00BF68AE07105CAE07100000FFFF2E
:10B1C00010B504460068FFF74FFD204610BD10B5CE
:10B1D0000446006808B1FFF747FD0023C4E90133C6
:10B1E000236010BD38B504460D4600680131FFF7F5
:10B1F00049FD10B1C4E90005012038BD10B5036850
:10B20000044623B143688B4201D3012010BD204680
:10B21000FFF7E8FF0028F9D0A368002BF5D12268DA
:10B220001370F2E737B50D46114601920446FFF759
:10B23000E5FF019A28B92046FFF7C9FF204603B071
:10B2400030BD2946A260206802F07EFD0021226800
:10B25000A368D154F2E7002313B50446C0E90033D4
:10B260008360037341B108460191FCF72BFF0199FC
:10B2700002462046FFF7D6FF204602B010BD38B583
:10B28000054600680C4670B16A688B689A4208D31C
:10B29000096831B102F0CDFDA368AB600023A36063
:10B2A00038BDFFF7E1FC23682B6063686B60A3681F
:10B2B000AB600023C4E90033F1E7002310B5044676
:10B2C000C0E9003383600373FFF7D9FF204610BD48
:10B2D000884210B5044605D00B682BB18A68194620
:10B2E000FFF7A0FF204610BDFFF771FFFAE700232C
:10B2F00010B50446C0E9003383600373FFF7E8FF2D
:10B30000204610BD884210B5044601D0FFF7B7FFB4
:10B31000204610BD08B582683AB921B10878B0FA64
:10B3200080F0400900E0012008BD006809B90078FC
:10B33000F5E7FCF7BDFEF2E7134610B58A688468AE
:10B34000A41A9C420AD3006838B1096841B1184474
:10B3500002F095FDB0FA80F0400910BD0020FCE736
:10B360000846FAE782688B689A4202D30022FFF708
:10B37000E3BF0020704710B543680446013B4360BB
:10B3800063B903689B689847A368013BA3602BB926
:10B3900023682046BDE81040DB68184710BD70B533
:10B3A0000446D0E9005305EB0316AE4204D028460C
:10B3B000FFF706FF1035F8E72068FFF755FC204639
:10B3C00070BD13B56C460B460246D0E9000184E817
:10B3D000030093E8030082E8030094E8030083E895
:10B3E000030002B010BD0000002302480360FEF716
:10B3F000DBBF00BF6CAE0710F8B506460D46002453
:10B400008F18BD420CD0336830469B6815F8011B7D
:10B410009847031E01DB1C44F3E7002C08BF1C46C1
:10B420002046F8BD03689B6818470023012A98BF8F
:10B430000A2230B58BB08DF8243009AC0D46B1FB33
:10B44000F2F101FB125303F0FF03092B94BF3033D9
:10B450003733DBB2AA4204F8013DEFD92146FDF7AC
:10B4600037FA0BB030BD07B5036801221B6A0DF136
:10B4700007019847012808BF9DF8070003B05DF851
:10B4800004FB07B5036801225B6A0DF107019847C9
:10B49000012808BF9DF8070003B05DF804FB704762
:10B4A0000020704770470000064B10B5994200F12C
:10B4B0000C0405D0084602F027FB002808BF002432
:10B4C000204610BDACFA3F0210B504461021FCF72F
:10B4D00024FE204610BD1021FCF71FBE10B5044607
:10B4E0001031FFF704FF204610BDC06A7047836922
:10B4F00043B190F92030013304D0806A003818BF7E
:10B50000012070470020704710B50446006810B154
:10B510000021FFF78DFB204610BD0C30FFF7F4BF74
:10B5200038B504460D464968FFF711FD62682AB137
:10B530006B681BB12968206802F006FC204638BD04
:10B54000FF2373B5154604460E4600F8043B002160
:10B55000FFF7FDFC95B97368202B0FD13146684683
:10B56000FFF7DEFF009A63686260019A0093A368A8
:10B570006846A2600193FFF7E2FC2570204602B006
:10B5800070BD0000F0B54FF47A7300260746C0E99D
:10B590000163314B044647F8103B89B00D463846ED
:10B5A0002E49FFF758FEFF23314684F8203004F17E
:10B5B0002400FFF7CCFCC4E90B66C4E90E6684F8EE
:10B5C0003460002D45D0296849B104A8FFF743FE37
:10B5D000384604A9FFF796FE04A8FFF7F1FD6E6850
:10B5E000002E31D02A89002A2ED0114602A895F9C2
:10B5F0000A700192FFF7ABFC029818B13146019A2C
:10B6000002F0A2FB3A4602A904A8FFF799FF02A89C
:10B61000FFF795FC9DF81030002184F8203002A837
:10B62000FFF795FC029B05990593039B069A0693E9
:10B63000636A02A80293A36A6162A2620393FFF79E
:10B640007EFC05A8FFF77BFCEB6803B1E3622B6986
:10B650002363204609B0F0BDD8FA3F025EFB3F02EB
:10B6600070B58AB004460E46FFF741FF00284ED061
:10B67000A36B13B11B68002B3CD194F83450002D00
:10B6800048D1E36A002B48D02369CDE907550593DB
:10B69000636A2A460693A36A6846ADF81C3094F89C
:10B6A000203005A9009509958DF81E30FFF77AFA2C
:10B6B00000282ADBE6B110200195FCF728FD30B107
:10B6C0000123C0E90133164B0360009BC3600023D4
:10B6D000CDE90133A36B039300F10C03A363E36B88
:10B6E000E06304A80493FCF78BFD02A8FCF788FD37
:10B6F000A16B09B1002008E00098FFF799FA002E2D
:10B70000F8D0A36B002BF5D106480AB070BD6FF0DE
:10B71000D100FAE76FF0C800F7E76FF0BE00F4E77A
:10B72000BCFA3F02FCFEFFFF70B50C460121064645
:10B730001546FFF795FF00280BDB4CB145B1B06B08
:10B740002A462146BDE8704000230068FFF754BA3E
:10B75000004870BDF2FEFFFF38B50C4601210546DA
:10B76000FFF77EFF002807DBAB6B2146186800223D
:10B77000BDE83840FFF74EBA38BD07B503684268E8
:10B78000009300230360436001A80192FCF738FD99
:10B7900003B05DF804FB38B501210546FFF760FFF3
:10B7A000044628B9AB6B01461868FFF709FA04464E
:10B7B00014F1C90F09D195F8343033B905F13800C7
:10B7C000FFF7DBFF012385F8343024EAE47038BD4D
:10B7D0002DE9F0418846012107461546FFF740FF55
:10B7E000041E1BDBB8F1000F20D0FDB10026B86BA2
:10B7F00000232A46006808EB0601FFF7EFF9041E54
:10B800000FDC14F1C90F06D107F13800FFF7B5FFBF
:10B81000012387F83430002E18BF34462046BDE897
:10B82000F0812D1B2644E2D13446F7E7004CF5E7C2
:10B83000F2FEFFFF80680368DB6818477047084620
:10B8400011B10B685B6818477047704770477047C5
:10B85000704738B504460D4600682E2102F0DFFA25
:10B860002368C31A2B6023B1037803B10130236826
:10B870002060184638BD10B504460C21FCF74DFC7D
:10B88000204610BD10B504460421FCF746FC2046B6
:10B8900010BD10B504460421FCF73FFC204610BD46
:10B8A000FEF79EBD08B5FCF703FCB0FA80F0400936
:10B8B00008BD704710B50C4601F0A6FB844205D1C7
:10B8C00001F0A2FBBDE8104001F090BB02F042F88D
:10B8D000844205D102F03EF8BDE8104001F03BBCC7
:10B8E0002CB123682046BDE810405B68184710BDA6
:10B8F0000B6803604B68436013B15A6801325A60A9
:10B90000704713B5044608460191FCF7DBFB02467D
:10B910002046019902B0BDE8104001F073BF13B595
:10B92000044608460191FCF7CDFB024620462368F9
:10B930000199DB6802B0BDE81040184707B50368FD
:10B940008DF807100122DB680DF10701984703B05D
:10B950005DF804FB0A6810B502604A684260002284
:10B96000C0E9022202618C688A608460CC68CA6087
:10B97000C4600C690A61046110BD00002DE9F74F35
:10B980004FF0140AD0E90084174645460AFB04F438
:10B990000093174BA4105C43002C21DD66100AFBBA
:10B9A00006F005EB0009B9F804B03A465F4528BF38
:10B9B0005A462858019102F062FA00284FF001031C
:10B9C00001990BD15F4503D1009A13703446E3E728
:10B9D000FCD9A61B09F11405013EF7E7F9DBF5E7F1
:10B9E000A5EB08050248AD10684303B0BDE8F08F31
:10B9F000CDCCCCCC7FB50369057E019103B3F9B101
:10BA0000002600F10C04039603A901A8FFF721FF0B
:10BA10000146A8B10DF10B032046039A8DF80B6087
:10BA2000FFF7ACFF9DF80B3053B12368142404FBDF
:10BA30000034B4F906300834002BA8BFDDB2E3E7C8
:10BA4000284604B070BD0EB4F0B58CB000AF07F15D
:10BA5000440555F8042B04462B46202107F110001D
:10BA60007A60FD60FFF71CF91F287A681AD900F187
:10BA7000080323F007036E46ADEB030D411C2B4674
:10BA80006846FD60FFF70CF9021E04DD2368694675
:10BA90002046DB689847B5463037BD46BDE8F040E4
:10BAA00003B070470028F7D023680246DB682046C1
:10BAB00007F110019847EFE710B5084CD4E88F3F25
:10BAC000DB0709D42046FCF737FB28B12046FCF7FA
:10BAD00038FB034802F02AF9024810BD74AE071083
:10BAE000EBC13F0240AD071010B5084CD4E88F3FC2
:10BAF000DB0709D42046FCF71FFB28B12046FCF7E2
:10BB000020FB034802F012F9024810BD78AE07107E
:10BB100053C23F0244AD071038B500250446C0E9C2
:10BB20000055C0E904558560856140F8245FFEF743
:10BB30003BFCFFF7C1FFE061FFF7D6FF25732062F2
:10BB4000204638BD10B50A4CD4E88F3FDB070CD433
:10BB50002046FCF7F1FA40B10648FFF7DDFF20462A
:10BB6000FCF7EFFA044802F0E1F8024810BD00BF0C
:10BB700070AE071080AE071035CA3F020023024A9C
:10BB800002490348FEF7A2BE1DC83F02A9C73F02F3
:10BB900029C73F0200231A4619461846FEF796BEEB
:10BBA00037B504468D686846FFF7A2FE6A46294607
:10BBB000204601F047FD01A8FCF722FB204603B018
:10BBC00030BD37B50446CD686846FFF791FE6A463A
:10BBD0002946204601F012FD01A8FCF711FB204682
:10BBE00003B030BD37B504460D696846FFF780FEE7
:10BBF0006A462946204601F0AAFC01A8FCF700FB92
:10BC0000204603B030BD000070B58AB00D46014635
:10BC100004A8FFF7C5FF144E04A801F02BFDE8B1FE
:10BC2000684604A9FFF7CDFF31460298FFF73AFEB8
:10BC3000044610B12C1E18BF012401A8FCF7E0FA3D
:10BC4000002CE9D0684604A9FFF7CCFF684601F054
:10BC5000B4FC286001A8FCF7D3FADDE705A8FCF7DF
:10BC6000CFFA0AB070BD00BF04FB3F0237B50C46E7
:10BC7000134920461546FCF71BFA50B901F0C4F9E8
:10BC80004FF4165101F0AEF903B0BDE8304001F0B9
:10BC9000BBB920460B49FCF70BFA78B94FF41653A1
:10BCA00001A928460193FFF7AFFF01F053FE019968
:10BCB00001F04EFA01F04EFE03B030BD0020FBE76C
:10BCC00009FB3F0210FB3F0270B51426D0E9005378
:10BCD000044606FB0356AE4205D005F10800FFF707
:10BCE000F3FF1435F7E72068FEF7BEFF204670BD6E
:10BCF00010B504460C30FFF7E7FF2046FFF74FFB77
:10BD0000204610BD10B50446034B40F8043BFFF736
:10BD1000EFFF204610BD00BFD4EC3F0210B5044633
:10BD2000FFF7F0FF20462421FCF7F7F9204610BD6D
:10BD300010B50446024B0360FFF7E4FF204610BD38
:10BD4000B0FB3F0210B50446FFF7F2FF2046242166
:10BD5000FCF7E3F9204610BD0022C0E90022826012
:10BD600010B50C680A6004604C684A6044608C68D6
:10BD70008A60846010BD10B5044603681868FEF739
:10BD80003DFB204610BD00002DE9F04F87B0039326
:10BD90001C4B80465B688946C3F3080316466BB9A3
:10BDA000FFF7D0FE044600F12403406A0593FFF735
:10BDB00077FD237B2BB105A8FFF7DDFF07B0BDE8BA
:10BDC000F08F01235FFA89F92373D4E9005305EB5F
:10BDD000830AAA4512D055F8047B3146381DFFF777
:10BDE00009FE8145F5D3039A3B680092D3F808B069
:10BDF0004A46334641463846D847EAE7002323738C
:10BE0000D9E700BF00ED00E02DE9F74F9B461A4B44
:10BE100080465B688946C3F3080316466BB9FFF793
:10BE200091FE044600F12403406A0193FFF738FDB8
:10BE3000237B2BB101A8FFF79EFF03B0BDE8F08F75
:10BE40000123F6B22373D4E9005305EB830A554569
:10BE50000ED055F8047B5946381DFFF7CBFD8642BE
:10BE6000F5D33B684A4641463846DB689847EEE7DB
:10BE700000232373DEE700BF00ED00E02DE9F3416E
:10BE8000164B05465B680F46C3F308031BBBFFF761
:10BE900059FE044600F12403406A0193FFF700FDB8
:10BEA000D4E90063462406EB8308B04509D101A814
:10BEB000FFF761FFA542B4BF0020012002B0BDE83A
:10BEC000F08156F8040B39460430FFF793FD8442A5
:10BED000A8BF0446E9E70020F0E700BF00ED00E05E
:10BEE000F8B5D0E901539D4204460E460DDB6F1CA8
:10BEF000002F006804DDB900FEF7C4FE18B9F8BDD4
:10BF0000FEF7B2FE00202060A7602768626807EB9A
:10BF100085019200A2EB8502081D01F022FF47F87F
:10BF200025606368012001336360E8E737B50446A4
:10BF300000F12403406A01930D46FFF7B1FCD4E9F8
:10BF4000003203EB8202934219460AD00968043397
:10BF5000A942F8D101A8FFF70EFF0025284603B03B
:10BF600030BD29462046FFF7BBFF05460028F1D02B
:10BF70006368012B01D1FFF701FE01A8FFF7FBFE6B
:10BF8000ECE70B4670B50446D0E9000200EB8202F4
:10BF900082420FD001461D6851F8046BAE4207D1B2
:10BFA000521A01F0DEFE01206368013B636070BD40
:10BFB0000846EDE70020FAE71FB5044600F1240328
:10BFC000406A01910393FFF76BFC204601A9FFF73C
:10BFD000D8FF18B163680BB9FFF7DCFD03A8FFF7C2
:10BFE000CAFE04B010BD182370B50446D0E904564B
:10BFF00003FB0656AE4215D0204605F11001FFF7AF
:10C00000C0FF63680BB9FFF7C5FDE06929690368E4
:10C01000DB689847696919B1206A0368DB6898474B
:10C020001835E7E71826D4E9045306FB0356AE4259
:10C0300004D02846FFF7C4F81835F8E700236361F9
:10C0400070BD73B50446FFF7A5FD04F12403606AD3
:10C050000193FFF725FC2046FFF7C5FF01A8FFF776
:10C060008AFE606A08B1FEF7ADF9D4E904531826D8
:10C0700006FB0356AE4204D02846FFF7A1F8183558
:10C08000F8E72069FEF7F0FD2068FEF7EDFD204699
:10C0900002B070BD0148FFF7D4BF00BF80AE0710EB
:10C0A0008842F8B504460D46164615D9904214D27A
:10C0B000A2F11406751AA1F114072C44B7421AD044
:10C0C0001CB131462046FFF745FC06F10800FFF79A
:10C0D000FBFD143E143CF1E70DD0B5420BD01CB172
:10C0E00029462046FFF736FC05F10800FFF7ECFD76
:10C0F00014351434F1E7F8BD8842F8B504460D460E
:10C10000164614D9904213D2A2F11006751AA1F165
:10C1100010072C44B74218D01CB131462046FFF717
:10C12000CCF83046FFF74CF8103E103CF2E70CD04C
:10C13000B5420AD01CB129462046FFF7BEF8284672
:10C14000FFF73EF810351034F2E7F8BD70B50E1E5B
:10C15000054611DD3001FEF779FD044658B1D5E9F9
:10C16000001201EB0212FFF7C7FF2868FEF77CFD03
:10C1700001202C60AE6070BD0024F6E72DE9F04F81
:10C1800090460023462295B00391D8F80410044647
:10C190009942C0E90033C0E90233C0E90433CDE974
:10C1A000083302760A9323DCD8E90057142303FBF3
:10C1B0000757AF423BD029460BA8FFF77EF80BA9E3
:10C1C0000FA8099EFFF779F8DDE9091399421BDAF8
:10C1D000089B099A03EB0616314603EB021206F19F
:10C1E0001000FFF789FFEEB9099B0133099311E0B5
:10C1F00008A8FFF7ABFF0028D6D108A8FFF7CFF8B3
:10C20000204615B0BDE8F08F013108A8FFF79EFF6A
:10C210000028DDD10FA8FEF7D3FF0BA8FEF7D0FF53
:10C220001435C6E730460FA9FFF747F8DCE70026CC
:10C230004FF01409CDE90B660D96DDE908239E4207
:10C240007CDA3301D35806930BB90136F5E70023A6
:10C25000079309FB06F30BAD029307A906A8FFF7A6
:10C26000F8FA82460028F0D04FF0000301468DF81E
:10C2700017302846079A0DF11703FFF77FFB9DF84B
:10C2800017700190002F4AD1BDF81C30CDE911770D
:10C29000ADF840304FF6FF73CDF83CA0ADF842301A
:10C2A0001397D5E90132934217DB03F1010ABAF182
:10C2B000000F30DD09FB0AF0FEF7C8FC834660B3CF
:10C2C000D5E9001209FB0212FFF7EAFE2868FEF723
:10C2D000CBFCC5F800B0C5F808A02B68019A09FB93
:10C2E000023A6A68514609FB02320AF11400FFF76C
:10C2F000D7FEBAF1000F03D050460FA9FFF72AFB73
:10C300006B6801336B6011A8FFF7DEFC3FB10BA82F
:10C31000FFF7DAFC71E7BB46D8E70127F3E7019B9B
:10C320002D6809FB0355069B1B782BB9D8F8003004
:10C33000029A13441B7CEB8008358EE7216822604B
:10C3400062686360A36809920A9A0A93E368A2602C
:10C350000B9A0B932369E2600C9A0C936369226138
:10C360000D9A0D93039B089162612376CFE700003D
:10C37000F0B504462646174687B00D46684619466E
:10C38000FCF742F80B4B694646F8043B03A8FCF760
:10C390003BF8394603AA3046FFF7F0FE03A8FBF747
:10C3A000DFFF6846FBF7DCFF2046034B2562236076
:10C3B00007B0F0BDD4EC3F0298FB3F02F0B50F464A
:10C3C00085B038461C4916461D460A9CFBF770FE90
:10C3D000C0B9A4B1294601A8FFF7BEFC2420174923
:10C3E00001F088FB054630B101AB32462146FFF72C
:10C3F000BFFF134B2B6001A8FBF7B2FF2C46204672
:10C4000005B0F0BD38460F49FBF752FE90B9002C3D
:10C41000F5D0294601A8FFF79FFC2420074901F029
:10C4200069FB05460028E6D03246214601ABFFF7FE
:10C430009FFFE0E70024E2E718FB3F0245FD3F02D3
:10C44000B0FB3F021CFB3F02014B024A1A607047DF
:10C450007CAE07102DFB3F022DE9F047089DD0F878
:10C46000209004460E461746984600F0CDFD8145C3
:10C470004DD02B79190704D520466A695449FFF736
:10C48000E2FAB8F1000F0DD05B212046FFF756FA13
:10C4900041462046FFF743FA236802222046DB6824
:10C4A0004C4998472B79DA0724D5D5F808802F21F5
:10C4B000404601F0F8FC08B100F101084146204671
:10C4C000FFF72DFA2B799B0708D53A212046FFF775
:10C4D00035FA2046EA684049FFF7B5FA2A79236819
:10C4E00012F0040F20464FF00202DB6814BF3B49F4
:10C4F0003B4998472B7958071DD529690B461A46A1
:10C5000013F8010B60B1202808D11946F7E7354828
:10C5100000F035FF0028ACD0BDE8F0872828EED128
:10C520002368521A2046DB68984723680422204675
:10C53000DB682D49984700213846FEF7B9F90146D6
:10C540002046FFF7ECF9236802222046DB682449E5
:10C5500098471EB131462046FFF7E1F92B7913F0D9
:10C56000300F2CD023682149DB68022220469847EF
:10C570002B79D9060AD52368072220461C49DB6897
:10C5800098472046AA691B49FFF75DFA2B799A065E
:10C5900011D5DB0605D5236802222046DB680F494A
:10C5A00098472368204614490A22DB6898472046AA
:10C5B000E969FFF7B4F95D212046FFF7BFF9236869
:10C5C0002046BDE8F0470222DB680C49184700BF4F
:10C5D00031FB3F0238FB3F020EEC3F023BFB3F02C8
:10C5E00040FB3F02E4AE07103EFB3F0243FB3F022D
:10C5F00046FB3F024EFB3F0251FB3F025CFB3F020A
:10C600002DE9F0410446076A0D46164600F0FCFC91
:10C61000874207D0206A324603682946BDE8F041C8
:10C62000DB681847034800F0AAFE0028F2D0BDE8F6
:10C63000F08100BFE4AE07102DE9F04385B0D0F8DB
:10C64000209005460F4690461E460C9C00F0DCFCF0
:10C65000814505D1494800F092FE002840F08A80CB
:10C660004FF000092B6A464A01A8019203938DF806
:10C67000089001F028F849464046FEF719F980462F
:10C680004049012201A801F0ADF84146FFF739F910
:10C690003FB13D49012201A801F0A4F83946FFF756
:10C6A00030F93EB13949012201A801F09BF8314629
:10C6B000FFF727F92379DF070ED5A6682F2130462B
:10C6C00001F0F1FB00B1461C3149012201A801F043
:10C6D00089F83146FFF715F923799E0707D52D49CB
:10C6E000022201A801F07EF8E16800F0F9FF237949
:10C6F000580714D5266933461F4613F8012B2AB173
:10C70000202A01D11E46F7E7282AF5D10222224924
:10C7100001A801F067F83146BA1B01F073F82379DC
:10C72000190707D51D49012201A801F05BF86169CD
:10C7300000F0E8FF2379DA0608D5042218490DEB4A
:10C74000020001F04FF8A16900F0CAFF23799B06AF
:10C7500007D51449062201A801F044F8E169FFF762
:10C76000D0F801A800F099FF286A022203680E4958
:10C77000DB68984705B0BDE8F08300BFE4AE071062
:10C7800080FB3F020EFB3F025FFB3F02CBFE3F02FE
:10C7900061FB3F0263FB3F0266FB3F02C9EC3F02C5
:10C7A00069FB3F026EFB3F025CFB3F02024B1A68D3
:10C7B000024B1A60704700BF48AD0710A8AE0710C3
:10C7C0000021FEF79FB800000022014B9A607047DD
:10C7D000ACAE0710014B1860704700BF4CAD07109E
:10C7E00008B50F4B43B100F00FFC03681B69984775
:10C7F000002801DD00E000BF0A4B43B101F0AAF8B8
:10C8000003681B699847002801DD00E000BF064B64
:10C810000BB101F0E5F8054B0BB101F017F908BDBC
:10C820000000000000000000000000000000000008
:10C8300008B5FFF7D5FFFDF71DFD014B186008BDDA
:10C8400034AF07100548064A08B5121A054901F029
:10C850007BFA054B054A1A6008BD00BF00B40710FB
:10C8600004B40710CCF65F0800B407101E1C279A0A
:10C87000002307B51A466FF077010093FEF77AF8A8
:10C8800003B05DF804FB000007B543880A2B08D00D
:10C89000502B0BD1094B1B684BB103B05DF804EB77
:10C8A0001847FFF7E5FF03B05DF804FB00231A46C5
:10C8B0006FF077010093FEF75DF8F4E7C0AE071064
:10C8C000002110B51148FEF731FA114B1A68114BCF
:10C8D0009A420CBF012200220F4B1A7001D0FFF7C1
:10C8E000B1FFFDF7ABFC044601F05EFA0B4B13B150
:10C8F000204600E000BF00210848FEF71BF9BDE814
:10C90000104000210648FEF727B800BF75D13F024E
:10C9100000B407101E1C279ABCAE071000000000D0
:10C9200029D23F0270470020704710B504461021FD
:10C93000FBF7F3FB204610BD08B5FFF7F6FF08BD77
:10C94000002230B54FF69C74026084808D888C8004
:10C950000C68858004600A6030BD10B5044600682C
:10C96000FEF782F9204610BD38B5C46814B32378A9
:10C97000DBB2022B03D104F10C00FFF7EEFF231D05
:10C980001D6835B12846FEF7C9FA10212846FBF785
:10C99000C4FB04F108031D6835B12846FEF7BEFA52
:10C9A00010212846FBF7B9FB2046BDE8384014218A
:10C9B000FBF7B3BB38BD0B6803604B68436013B132
:10C9C0005A6801325A60704737B5044668460D46CA
:10C9D000FFF7F1FF009B019A23600023626001A82A
:10C9E00001930093FBF70CFC35B1281DFBF708FC05
:10C9F00008212846FBF791FB204603B030BD826832
:10CA000010B50AB901F07DF8C368BDE810401847B9
:10CA100008B5006800F11001FFF7F1FF08BD82685A
:10CA200010B50AB901F06DF8C368BDE810401847A9
:10CA300008B5006800F11001FFF7F1FF08BD000024
:10CA400038B500230446036010200D46FBF75FFB5A
:10CA500028B10123C0E90133024BC56003602060A7
:10CA6000204638BD14FC3F0238B5002383608B6834
:10CA700004460D462BB102229847EB68E360AB6891
:10CA8000A360204638BD0000F0B589B00468684650
:10CA9000FFF756FF4FF00203D4E84F2F002A03D1CF
:10CAA000C4E8413F0029F7D121D104F10C056946C2
:10CAB0002846FFF745FF0122631CC3E88F2F0020A3
:10CAC00004F10803D3E8EF6FC3E8E20F002AF9D1BD
:10CAD0006EB1FDF725FF78B129463046FFF78FFF8D
:10CAE0003046FEF71BFA10213046FBF716FB68466E
:10CAF000FFF733FF09B0F0BD314602A8FFF7B4FFDE
:10CB0000E068B4F9105008B101F09CF906901020CB
:10CB1000ADF81C50FBF7FBFA0546E8B1002787602B
:10CB20001820FBF7F4FA044688B10146876002A892
:10CB3000FEF747FC049BA268A360059B0492E26891
:10CB400006A9E36004F110000592FFF7F9FE084B17
:10CB50002C60EB60074BAB6006A8FFF7FEFE02A857
:10CB6000FEF7DCF9002229460348FDF7E7FEB7E7A8
:10CB7000B1D33F022DD63F0203DB3F022DE9F04F38
:10CB80008BB005460F46904699469DF850A0FDF79C
:10CB9000B5FF07AE834638BB4FF62E73059005A947
:10CBA0003046ADF81830FFF7CBFE1420FBF7AFFA94
:10CBB000044648B1022303700123C0E901BB43705E
:10CBC00031460C30FFF7BCFE2846214640F8044BA6
:10CBD000FFF736FF3046FFF7C0FE05A8FFF7BDFEA2
:10CBE00028460BB0BDE8F08F0C2300241420CDE9BB
:10CBF00008440793FBF78BFA014618B1C0E90144DA
:10CC00000470447004A80391FFF71AFF1E4B08201C
:10CC10000893FBF77CFA044610B103A9FFF7CBFE9B
:10CC20004A464146384600965FFA8AF30994FDF772
:10CC300073FFB8B9039B01331B78DBB293B905933B
:10CC40004FF69C7305A903A8ADF81830FFF71CFF39
:10CC500005A8FFF782FE05A80999FFF7B5FE06A80B
:10CC6000FBF7CEFA03A905A8FFF7A5FE059B069AD8
:10CC70002B6000236A6006A806930593FBF7C0FAB1
:10CC800004A8FBF7BDFAABE7A9D63F02012AF8B525
:10CC9000054603D10B6803600020F8BD022A10D0BE
:10CCA000032AF9D10468002CF6D004F11000FFF734
:10CCB00054FE2046FEF732F918212046FBF72DFAE4
:10CCC000EAE718200E68FBF722FA044650B1314615
:10CCD000FFF7CAFE3069B6F9147008B101F0B2F876
:10CCE0002061A7822C60D7E738B5002383608B686A
:10CCF00004460D462BB102229847EB68E360AB680F
:10CD0000A360204638BD0000F0B5044689B00D464A
:10CD100001A81146FFF758FEA4B124B21DB1284660
:10CD200001F090F8054601A803A90395ADF810405D
:10CD3000FFF7AAFE03A8FFF710FE02A8FBF760FAB0
:10CD400009B0F0BD0123019DD5E84F2F002A03D182
:10CD5000C5E8413F0029F7D1EFD12B730122EB1831
:10CD6000C3E88F2F2B1DD3E8EF6FC3E8E24F002AF3
:10CD7000F9D1002EE1D02046FDF7D2FD074660B183
:10CD8000304605F10C01FFF74AFE3046FEF7C6F8C3
:10CD900010213046FBF7C1F9CFE7314603A8FFF772
:10CDA000A3FF2B7B10208DF81C30FBF7B0F9054654
:10CDB000D0B187601420FBF7AAF9044678B1014688
:10CDC000876003A8FEF7FDFA059BA268A360069B97
:10CDD0000592E268E3609DF81C3006922374074BCD
:10CDE0002C60EB60064BAB6003A8FEF797F80022BF
:10CDF00029460448FDF7A2FDC7E700BFD1D33F0293
:10CE0000A9D73F0203DB3F02012A70B5044603D1D4
:10CE10000B680360002070BD022A0CD0032AF9D1F0
:10CE20000468002CF6D02046FEF778F8142120463E
:10CE3000FBF773F9EEE714200E68FBF768F9054677
:10CE400020B13146FFF750FF337C2B742560E1E7BA
:10CE5000704710B504461821FBF75FF9204610BD56
:10CE6000F0B5037D0E46062B4FF000048DB000F1A7
:10CE7000040712D000F1080515F8011D0A223046FA
:10CE8000FEF7D3FAAF42044419D0002CF4D02E217F
:10CE90003046FEF7C7FA0444EEE72F236A463946C8
:10CEA0000A208DF80040FDF7B7FA6846FBF70AF94B
:10CEB0003368024669463046DB6898470446204698
:10CEC0000DB0F0BD10B50446044B1122002140F80E
:10CED000043B00F060FF204610BD00BF30FC3F0265
:10CEE0000346074A10B543F8042B01F1100251F82C
:10CEF000044B914243F8044BF9D10A781A7010BDE3
:10CF000030FC3F0210B59DF8084044EA032343EA91
:10CF10000242042342EA01614160037510BD000032
:10CF200007B5064B0360CB7800938B784A78097875
:10CF3000FFF7E8FF03B05DF804FB00BF30FC3F02E1
:10CF4000417470477047704708B50021007CFDF7B9
:10CF50005BFC40EAE07008BD08B50121007CFDF7EC
:10CF600053FC40EAE07008BD08B5007CFDF73EFCCC
:10CF700020EAE07008BD08B5007CFDF729FC20EA36
:10CF8000E07008BD13B50446007C0191FDF72EFC4E
:10CF90000028019901DC607C20B1207CFDF742FC77
:10CFA00020EAE07002B010BD007CFDF749BC10B56E
:10CFB00004461421FBF7B1F8204610BD10B54FF41C
:10CFC0007A73044608460021C4E90113044B207417
:10CFD0002360012311466374FDF7D0FB204610BD8A
:10CFE00044FC3F020022007CFDF7D6BB007CFDF72D
:10CFF000E1BB007CFDF732BC10B5044614220021D1
:10D0000000F0C9FE204610BD10B588B003A8FFF798
:10D01000F3FF0C4CD4E88F1F11F001010FD1204613
:10D020000191FBF789F8019948B103AA0648FFF777
:10D03000C5FF2046FBF785F8044800F077FE02485C
:10D0400008B010BDC4AE0710C8AE0710E5D83F0247
:10D05000004700002DE9FF411D4600240F46904681
:10D060000646FDF7DDF80423A5428DF80830A8BF79
:10D070009DF82830CDF80940A4BF02AC8DF80A30E5
:10D080003A464346304606490094A8BF8DF80950F9
:10D09000FDF7B8F8B0FA80F0400904B0BDE8F081BF
:10D0A000F1D93F0270474174704708B5007CFDF725
:10D0B00023FA20EAE07008BD08B5007CFDF7D6F938
:10D0C00020EAE07008BD08B5007CFDF7EBF940EA06
:10D0D000E07008BD08B5007CFDF7D6F940EAE070C5
:10D0E00008BD007CFDF7ECB937B5457C04462DB191
:10D0F000207C03B0BDE83040FDF7AAB9007C019167
:10D10000FDF7FAF900280199F2DC284603B030BD9A
:10D1100010B504461421FBF700F8204610BD0000AE
:10D1200010B54FF47A730446084611460022C4E94C
:10D130000123044B2074236001236374FDF7F8F985
:10D14000204610BD74FC3F020023007CFDF7E2B9CD
:10D150000022FFF7F9BF007CFDF76CB9007CFDF7FA
:10D16000BDB910B5836804460BB900F0CAFCC368AA
:10D170009847A3681BB103222146204698472046C2
:10D18000BDE810401021FAF7C8BF7047F8B5064651
:10D1900015460C468F18BC4206D0336830469B6853
:10D1A00014F8011B9847F6E72846F8BD0022007CDA
:10D1B000FDF7F6B90021007CFDF700BA0021007CE4
:10D1C000FDF70ABA0021007CFDF714BA0021007CAB
:10D1D000FDF71EBA10B504461421FAF79EFF20464B
:10D1E00010BD000038B5044615464FF47A7300228E
:10D1F000C4E90123094B0846217423602946FDF741
:10D2000023FABF3008D16B69DB0705D56868FDF7E5
:10D210002BFDE868FDF728FD204638BDA4FC3F0241
:10D220000023007C1A461946FDF790B97FB500220D
:10D230001423CDE90122ADF804300B78007C8DF881
:10D2400008304B680393CB6804930B7A01A90593CC
:10D25000FDF708FA07B05DF804FB1FB5003B8DF839
:10D2600000104FF0640118BF012303916946019239
:10D270008DF80830FFF7DAFF05B05DF804FB0123F5
:10D28000FFF7EBBF0022007CFDF76EB90022007CA7
:10D29000FDF778B9002240681146FDF7A3BB0022D4
:10D2A00040681146FDF7D6BB002240681146FDF7E5
:10D2B000EDBB00224068FDF7DBBB0022406881F037
:10D2C0000101FDF7B9BB002340681A461946FDF776
:10D2D000A5BB002340681A461946FDF791BB002202
:10D2E00040681146FDF762BB002202214068FDF74D
:10D2F0006BBB002340681A46FDF74ABB0422024B71
:10D300005A60024A1A607047DCAE0710CCFC3F023C
:10D31000002340681A46FDF73BBB0022022140680B
:10D32000FDF752BB002240681146FDF73FBB0022CB
:10D3300040681146FDF756BB002340681A4619465F
:10D34000FDF75EBB002340681A461946FDF766BB31
:10D3500000214068FDF7A8BB00214068FDF7B2BB83
:10D360000022406881F00101FDF766BB00224068A1
:10D37000FDF77EBB002240681146FDF787BB002207
:10D3800040681146FDF766BB2DE9F04395B01446A1
:10D390000D460746FFF796FD00211C220DA80091BF
:10D3A00000F0F9FC402320460C9300216B460CAAA8
:10D3B000FCF7E2FE044600284BD1024601216868D2
:10D3C000FDF710FB0221804622466868FDF70AFB44
:10D3D00021468146009E002E3BD0002939D173683A
:10D3E000022B03D00A2B11D0F669F4E7B8F1000F35
:10D3F000FAD0716906A804313C1D07ADFFF790FD16
:10D400000FCD0FC42B6841462370EDE7B9F1000F33
:10D41000EAD0102201A8746900F0BDFC062301AD1A
:10D420008DF8143004F1080318342A461868596836
:10D43000083303C2A3421546F7D101A906A83C1D33
:10D4400007ADFFF74DFD0FCD0FC42B684946237084
:10D45000CAE70098FCF782FE384615B0BDE8F083B5
:10D46000024B034A1A6000225A607047E4AE07106C
:10D4700008FD3F02012200F1100313F8101C1846AA
:10D48000012908D153F8041C02EB4102013A03F1CF
:10D490001003F2D17047022904BF53F8041C52183C
:10D4A000F4E70EB4F0B588B0102100AF07F13405F1
:10D4B00055F8042B04462B4678187A60FD60FDF77A
:10D4C000EFFB0F287A681AD900F1080323F007034D
:10D4D0006E46ADEB030D411C2B466846FD60FDF723
:10D4E000DFFB021E04DD2368694620469B689847DF
:10D4F000B5462037BD46BDE8F04003B07047002870
:10D50000F7D0236802469B68204607F11001984730
:10D51000EFE738B50B68044603604D6843689D42E9
:10D5200008D015B16B6801336B60606808B1FDF716
:10D5300022FF656038BD07B503688DF8071001222A
:10D540009B680DF10701984703B05DF804FB0B469B
:10D550001146002210B50446C0E9002283600BB9D1
:10D56000204610BDFFF7D5FFFAE78368EBB11A78C4
:10D57000032A1AD8DFE802F00417021B05207047BF
:10D5800002685B685268D05C2D2812D0A0F130038D
:10D59000092B0ED974280ED066280CD0A0F16E038A
:10D5A00058425841704706207047002070470420B9
:10D5B0007047032070470220704710B50446FFF7FC
:10D5C000D4FF02280ED0C31EDBB2012B14D8226870
:10D5D000A36850685B680A22BDE810400021184427
:10D5E00000F0F8BC2268A36852685B68D05CA0F1C8
:10D5F00074035842584110BD0020FCE738B50023A1
:10D600000446C0E900330E48C4E90203A9B10B780F
:10D61000032B06D08BB9136858684B68C35C6E2B1C
:10D6200007D013684D6858688B6828445B1BA0605E
:10D63000E36011462046FFF76CFF204638BD00BF6F
:10D640005EFB3F0238B500250B4604461146C0E993
:10D650000055C0E90255C0E904554BB11A78012ABA
:10D6600006D103F11002DB6882604361FFF751FFCE
:10D67000204638BD10B54369044663B18068013B5C
:10D68000E0601030A0602061636113B1FFF7F2FE2B
:10D69000A060012000E0184610BD10B57D210446B1
:10D6A000FFF749FF01232046237110BD08B5037918
:10D6B000012B02D0022B04D008BD2C21FFF73BFF29
:10D6C000FAE73A21FAE710B50446FFF7EFFF2046E4
:10D6D0007B21FFF730FF00232046237110BD00009F
:10D6E00013B504460191FFF7E1FF23682046DB688C
:10D6F000019A0349984701232046237102B010BDC7
:10D700000EEC3F0213B504460191FFF7CFFF2368EB
:10D710002046DB68019A034998470123204623717C
:10D7200002B010BD3CFD3F022DE9F0470D4690468A
:10D73000222104462F46FFF7FEFEDFF8A490A844FE
:10D740004745BA463DD017F8016B222E06D05C2E15
:10D7500004D0304600F0F0FA0028F1D123682946C1
:10D7600020469B68AAEB050298475C212046FFF7FC
:10D77000E2FE0D2E0AD8072E1CD9A6F10803052BB0
:10D7800018D8DFE803F00D0F11171315222E01D062
:10D790005C2E0FD131462046FFF7CDFE3D46CFE748
:10D7A0006221F8E77421F6E76E21F4E76621F2E7DB
:10D7B0007221F0E72368324649462046DB689847E5
:10D7C000ECE7BD4205D02368294620469B687A1BBA
:10D7D000984722212046FFF7AEFEBDE8F08700BF44
:10D7E0003FFD3F0213B50446CDE90021FFF75EFF80
:10D7F000DDE900212046FFF797FF02232046237131
:10D8000002B010BD13B50446CDE90021FFF74EFF6D
:10D81000DDE900212046FFF787FF01232046237121
:10D8200002B010BD1B2837B5044602D9002003B052
:10D8300030BDA0F10F03022B0BD9012821D800F035
:10D8400035F90021007CFCF7F1FE80F00100C0B248
:10D85000EDE7114DD5E88F1F11F001010BD12846DE
:10D860000191FAF769FC019928B10C48FDF7B0FA6B
:10D870002846FAF766FC094B1878FCF747FF0028A2
:10D88000D4D1083C012C05D800F064F8007CFCF7EA
:10D8900025FEDAE70120CAE740AE071044AE0710C4
:10D8A0001B2838B504460D460AD8FF2908D0FFF7D3
:10D8B000B9FF28B129462046BDE83840FCF778BCBE
:10D8C00038BD38B504460D46FCF780FCFF2810D063
:10D8D000062804D84D2323FA00F0C30709D42046B4
:10D8E000FFF7A0FF28B129462046BDE83840FCF7E5
:10D8F0007BBC38BD7047000038B5142504462A4665
:10D90000002100F048FA2580402507492846258156
:10D91000258200F0F1F804496060284600F0ECF838
:10D92000E060204638BD00BF45FD3F0270477047AC
:10D9300010B50446FFF7E0FF204610BD10B50446C1
:10D94000FFF7DAFF204610BD10B50446FFF7D4FFFD
:10D95000204610BD30B50E4D87B0D5E88F1F11F0B1
:10D96000010411D12846FAF7E7FB68B101A8FFF7D7
:10D97000DFFF214601AA0748FFF7D2FB2846FAF746
:10D98000E0FB054800F0D2F9024807B030BD00BF07
:10D99000ECAE0710F8AE071095E23F0210B50D4C43
:10D9A00086B0D4E88F3FDB0711D42046FAF7C4FBDA
:10D9B00068B101A8FFF7C2FF012101AA0648FFF7DD
:10D9C000AFFB2046FAF7BDFB044800F0AFF9024870
:10D9D00006B010BDF0AE07100CAF0710CFE23F024B
:10D9E00010B5FFF7DBFF074B044653B1FFF7B6FB5B
:10D9F00038B1236820461B699847002801DD00E004
:10DA000000BF10BD0000000010B50D4C86B0D4E87A
:10DA10008F3FDB0711D42046FAF78EFB68B101A8CF
:10DA2000FFF792FF022101AA0648FFF779FB204683
:10DA3000FAF787FB044800F079F9024806B010BDF8
:10DA4000F4AE071020AF0710CDE23F0210B5FFF78C
:10DA5000DBFF074B044653B1FFF780FB38B1236867
:10DA600020461B699847002801DD00E000BF10BD7B
:10DA7000000000007047000038B50A4B0446036000
:10DA8000012309494361202000F036F82025606019
:10DA900005492846A56000F02FF8C4E90305204693
:10DAA00038BD00BF1800010045FD3F0230B50E4DE6
:10DAB00087B0D5E88F1F11F0010411D12846FAF77D
:10DAC0003BFB68B16846FFF7D7FF6A462146074827
:10DAD000FFF788FB2846FAF734FB054800F026F9E3
